{
    "_format": "hh-sol-artifact-1",
    "contractName": "FakeIt",
    "sourceName": "contracts/FakeIt.sol",
    "abi": [
        {
            "inputs": [],
            "stateMutability": "nonpayable",
            "type": "constructor"
        },
        {
            "anonymous": false,
            "inputs": [
                {
                    "indexed": true,
                    "internalType": "address",
                    "name": "owner",
                    "type": "address"
                },
                {
                    "indexed": true,
                    "internalType": "address",
                    "name": "approved",
                    "type": "address"
                },
                {
                    "indexed": true,
                    "internalType": "uint256",
                    "name": "tokenId",
                    "type": "uint256"
                }
            ],
            "name": "Approval",
            "type": "event"
        },
        {
            "anonymous": false,
            "inputs": [
                {
                    "indexed": true,
                    "internalType": "address",
                    "name": "owner",
                    "type": "address"
                },
                {
                    "indexed": true,
                    "internalType": "address",
                    "name": "operator",
                    "type": "address"
                },
                {
                    "indexed": false,
                    "internalType": "bool",
                    "name": "approved",
                    "type": "bool"
                }
            ],
            "name": "ApprovalForAll",
            "type": "event"
        },
        {
            "anonymous": false,
            "inputs": [
                {
                    "indexed": true,
                    "internalType": "address",
                    "name": "previousOwner",
                    "type": "address"
                },
                {
                    "indexed": true,
                    "internalType": "address",
                    "name": "newOwner",
                    "type": "address"
                }
            ],
            "name": "OwnershipTransferred",
            "type": "event"
        },
        {
            "anonymous": false,
            "inputs": [
                {
                    "indexed": true,
                    "internalType": "address",
                    "name": "from",
                    "type": "address"
                },
                {
                    "indexed": true,
                    "internalType": "address",
                    "name": "to",
                    "type": "address"
                },
                {
                    "indexed": true,
                    "internalType": "uint256",
                    "name": "tokenId",
                    "type": "uint256"
                }
            ],
            "name": "Transfer",
            "type": "event"
        },
        {
            "inputs": [
                {
                    "internalType": "address",
                    "name": "to",
                    "type": "address"
                },
                {
                    "internalType": "uint256",
                    "name": "tokenId",
                    "type": "uint256"
                }
            ],
            "name": "approve",
            "outputs": [],
            "stateMutability": "nonpayable",
            "type": "function"
        },
        {
            "inputs": [
                {
                    "internalType": "address",
                    "name": "owner",
                    "type": "address"
                }
            ],
            "name": "balanceOf",
            "outputs": [
                {
                    "internalType": "uint256",
                    "name": "",
                    "type": "uint256"
                }
            ],
            "stateMutability": "view",
            "type": "function"
        },
        {
            "inputs": [
                {
                    "internalType": "uint256",
                    "name": "tokenId",
                    "type": "uint256"
                }
            ],
            "name": "burn",
            "outputs": [],
            "stateMutability": "nonpayable",
            "type": "function"
        },
        {
            "inputs": [
                {
                    "internalType": "uint256",
                    "name": "tokenId",
                    "type": "uint256"
                }
            ],
            "name": "getApproved",
            "outputs": [
                {
                    "internalType": "address",
                    "name": "",
                    "type": "address"
                }
            ],
            "stateMutability": "view",
            "type": "function"
        },
        {
            "inputs": [
                {
                    "internalType": "address",
                    "name": "owner",
                    "type": "address"
                },
                {
                    "internalType": "address",
                    "name": "operator",
                    "type": "address"
                }
            ],
            "name": "isApprovedForAll",
            "outputs": [
                {
                    "internalType": "bool",
                    "name": "",
                    "type": "bool"
                }
            ],
            "stateMutability": "view",
            "type": "function"
        },
        {
            "inputs": [],
            "name": "name",
            "outputs": [
                {
                    "internalType": "string",
                    "name": "",
                    "type": "string"
                }
            ],
            "stateMutability": "view",
            "type": "function"
        },
        {
            "inputs": [],
            "name": "owner",
            "outputs": [
                {
                    "internalType": "address",
                    "name": "",
                    "type": "address"
                }
            ],
            "stateMutability": "view",
            "type": "function"
        },
        {
            "inputs": [
                {
                    "internalType": "uint256",
                    "name": "tokenId",
                    "type": "uint256"
                }
            ],
            "name": "ownerOf",
            "outputs": [
                {
                    "internalType": "address",
                    "name": "",
                    "type": "address"
                }
            ],
            "stateMutability": "view",
            "type": "function"
        },
        {
            "inputs": [],
            "name": "renounceOwnership",
            "outputs": [],
            "stateMutability": "nonpayable",
            "type": "function"
        },
        {
            "inputs": [
                {
                    "internalType": "address",
                    "name": "to",
                    "type": "address"
                },
                {
                    "internalType": "string",
                    "name": "uri",
                    "type": "string"
                }
            ],
            "name": "safeMint",
            "outputs": [],
            "stateMutability": "nonpayable",
            "type": "function"
        },
        {
            "inputs": [
                {
                    "internalType": "address",
                    "name": "from",
                    "type": "address"
                },
                {
                    "internalType": "address",
                    "name": "to",
                    "type": "address"
                },
                {
                    "internalType": "uint256",
                    "name": "tokenId",
                    "type": "uint256"
                }
            ],
            "name": "safeTransferFrom",
            "outputs": [],
            "stateMutability": "nonpayable",
            "type": "function"
        },
        {
            "inputs": [
                {
                    "internalType": "address",
                    "name": "from",
                    "type": "address"
                },
                {
                    "internalType": "address",
                    "name": "to",
                    "type": "address"
                },
                {
                    "internalType": "uint256",
                    "name": "tokenId",
                    "type": "uint256"
                },
                {
                    "internalType": "bytes",
                    "name": "data",
                    "type": "bytes"
                }
            ],
            "name": "safeTransferFrom",
            "outputs": [],
            "stateMutability": "nonpayable",
            "type": "function"
        },
        {
            "inputs": [
                {
                    "internalType": "address",
                    "name": "operator",
                    "type": "address"
                },
                {
                    "internalType": "bool",
                    "name": "approved",
                    "type": "bool"
                }
            ],
            "name": "setApprovalForAll",
            "outputs": [],
            "stateMutability": "nonpayable",
            "type": "function"
        },
        {
            "inputs": [
                {
                    "internalType": "bytes4",
                    "name": "interfaceId",
                    "type": "bytes4"
                }
            ],
            "name": "supportsInterface",
            "outputs": [
                {
                    "internalType": "bool",
                    "name": "",
                    "type": "bool"
                }
            ],
            "stateMutability": "view",
            "type": "function"
        },
        {
            "inputs": [],
            "name": "symbol",
            "outputs": [
                {
                    "internalType": "string",
                    "name": "",
                    "type": "string"
                }
            ],
            "stateMutability": "view",
            "type": "function"
        },
        {
            "inputs": [],
            "name": "tokenCount",
            "outputs": [
                {
                    "internalType": "uint256",
                    "name": "",
                    "type": "uint256"
                }
            ],
            "stateMutability": "view",
            "type": "function"
        },
        {
            "inputs": [
                {
                    "internalType": "uint256",
                    "name": "tokenId",
                    "type": "uint256"
                }
            ],
            "name": "tokenURI",
            "outputs": [
                {
                    "internalType": "string",
                    "name": "",
                    "type": "string"
                }
            ],
            "stateMutability": "view",
            "type": "function"
        },
        {
            "inputs": [
                {
                    "internalType": "address",
                    "name": "from",
                    "type": "address"
                },
                {
                    "internalType": "address",
                    "name": "to",
                    "type": "address"
                },
                {
                    "internalType": "uint256",
                    "name": "tokenId",
                    "type": "uint256"
                }
            ],
            "name": "transferFrom",
            "outputs": [],
            "stateMutability": "nonpayable",
            "type": "function"
        },
        {
            "inputs": [
                {
                    "internalType": "address",
                    "name": "newOwner",
                    "type": "address"
                }
            ],
            "name": "transferOwnership",
            "outputs": [],
            "stateMutability": "nonpayable",
            "type": "function"
        }
    ],
    "bytecode": "0x608060405260006009553480156200001657600080fd5b506040518060400160405280600681526020017f46616b65497400000000000000000000000000000000000000000000000000008152506040518060400160405280600381526020017f464b54000000000000000000000000000000000000000000000000000000000081525081600090805190602001906200009b929190620001ab565b508060019080519060200190620000b4929190620001ab565b505050620000d7620000cb620000dd60201b60201c565b620000e560201b60201c565b620002c0565b600033905090565b6000600760009054906101000a900473ffffffffffffffffffffffffffffffffffffffff16905081600760006101000a81548173ffffffffffffffffffffffffffffffffffffffff021916908373ffffffffffffffffffffffffffffffffffffffff1602179055508173ffffffffffffffffffffffffffffffffffffffff168173ffffffffffffffffffffffffffffffffffffffff167f8be0079c531659141344cd1fd0a4f28419497f9722a3daafe3b4186f6b6457e060405160405180910390a35050565b828054620001b9906200028a565b90600052602060002090601f016020900481019282620001dd576000855562000229565b82601f10620001f857805160ff191683800117855562000229565b8280016001018555821562000229579182015b82811115620002285782518255916020019190600101906200020b565b5b5090506200023891906200023c565b5090565b5b80821115620002575760008160009055506001016200023d565b5090565b7f4e487b7100000000000000000000000000000000000000000000000000000000600052602260045260246000fd5b60006002820490506001821680620002a357607f821691505b60208210811415620002ba57620002b96200025b565b5b50919050565b612f3a80620002d06000396000f3fe608060405234801561001057600080fd5b50600436106101215760003560e01c8063715018a6116100ad578063b88d4fde11610071578063b88d4fde146102f4578063c87b56dd14610310578063d204c45e14610340578063e985e9c51461035c578063f2fde38b1461038c57610121565b8063715018a6146102745780638da5cb5b1461027e57806395d89b411461029c5780639f181b5e146102ba578063a22cb465146102d857610121565b806323b872dd116100f457806323b872dd146101c057806342842e0e146101dc57806342966c68146101f85780636352211e1461021457806370a082311461024457610121565b806301ffc9a71461012657806306fdde0314610156578063081812fc14610174578063095ea7b3146101a4575b600080fd5b610140600480360381019061013b9190611dea565b6103a8565b60405161014d9190611e32565b60405180910390f35b61015e61048a565b60405161016b9190611ee6565b60405180910390f35b61018e60048036038101906101899190611f3e565b61051c565b60405161019b9190611fac565b60405180910390f35b6101be60048036038101906101b99190611ff3565b610562565b005b6101da60048036038101906101d59190612033565b61067a565b005b6101f660048036038101906101f19190612033565b6106da565b005b610212600480360381019061020d9190611f3e565b6106fa565b005b61022e60048036038101906102299190611f3e565b610756565b60405161023b9190611fac565b60405180910390f35b61025e60048036038101906102599190612086565b610808565b60405161026b91906120c2565b60405180910390f35b61027c6108c0565b005b6102866108d4565b6040516102939190611fac565b60405180910390f35b6102a46108fe565b6040516102b19190611ee6565b60405180910390f35b6102c2610990565b6040516102cf91906120c2565b60405180910390f35b6102f260048036038101906102ed9190612109565b610996565b005b61030e6004803603810190610309919061227e565b6109ac565b005b61032a60048036038101906103259190611f3e565b610a0e565b6040516103379190611ee6565b60405180910390f35b61035a600480360381019061035591906123a2565b610a20565b005b610376600480360381019061037191906123fe565b610a71565b6040516103839190611e32565b60405180910390f35b6103a660048036038101906103a19190612086565b610b05565b005b60007f80ac58cd000000000000000000000000000000000000000000000000000000007bffffffffffffffffffffffffffffffffffffffffffffffffffffffff1916827bffffffffffffffffffffffffffffffffffffffffffffffffffffffff1916148061047357507f5b5e139f000000000000000000000000000000000000000000000000000000007bffffffffffffffffffffffffffffffffffffffffffffffffffffffff1916827bffffffffffffffffffffffffffffffffffffffffffffffffffffffff1916145b80610483575061048282610b89565b5b9050919050565b6060600080546104999061246d565b80601f01602080910402602001604051908101604052809291908181526020018280546104c59061246d565b80156105125780601f106104e757610100808354040283529160200191610512565b820191906000526020600020905b8154815290600101906020018083116104f557829003601f168201915b5050505050905090565b600061052782610bf3565b6004600083815260200190815260200160002060009054906101000a900473ffffffffffffffffffffffffffffffffffffffff169050919050565b600061056d82610756565b90508073ffffffffffffffffffffffffffffffffffffffff168373ffffffffffffffffffffffffffffffffffffffff1614156105de576040517f08c379a00000000000000000000000000000000000000000000000000000000081526004016105d590612511565b60405180910390fd5b8073ffffffffffffffffffffffffffffffffffffffff166105fd610c3e565b73ffffffffffffffffffffffffffffffffffffffff16148061062c575061062b81610626610c3e565b610a71565b5b61066b576040517f08c379a0000000000000000000000000000000000000000000000000000000008152600401610662906125a3565b60405180910390fd5b6106758383610c46565b505050565b61068b610685610c3e565b82610cff565b6106ca576040517f08c379a00000000000000000000000000000000000000000000000000000000081526004016106c190612635565b60405180910390fd5b6106d5838383610d94565b505050565b6106f5838383604051806020016040528060008152506109ac565b505050565b61070b610705610c3e565b82610cff565b61074a576040517f08c379a000000000000000000000000000000000000000000000000000000000815260040161074190612635565b60405180910390fd5b61075381610ffb565b50565b6000806002600084815260200190815260200160002060009054906101000a900473ffffffffffffffffffffffffffffffffffffffff169050600073ffffffffffffffffffffffffffffffffffffffff168173ffffffffffffffffffffffffffffffffffffffff1614156107ff576040517f08c379a00000000000000000000000000000000000000000000000000000000081526004016107f6906126a1565b60405180910390fd5b80915050919050565b60008073ffffffffffffffffffffffffffffffffffffffff168273ffffffffffffffffffffffffffffffffffffffff161415610879576040517f08c379a000000000000000000000000000000000000000000000000000000000815260040161087090612733565b60405180910390fd5b600360008373ffffffffffffffffffffffffffffffffffffffff1673ffffffffffffffffffffffffffffffffffffffff168152602001908152602001600020549050919050565b6108c8611007565b6108d26000611085565b565b6000600760009054906101000a900473ffffffffffffffffffffffffffffffffffffffff16905090565b60606001805461090d9061246d565b80601f01602080910402602001604051908101604052809291908181526020018280546109399061246d565b80156109865780601f1061095b57610100808354040283529160200191610986565b820191906000526020600020905b81548152906001019060200180831161096957829003601f168201915b5050505050905090565b60095481565b6109a86109a1610c3e565b838361114b565b5050565b6109bd6109b7610c3e565b83610cff565b6109fc576040517f08c379a00000000000000000000000000000000000000000000000000000000081526004016109f390612635565b60405180910390fd5b610a08848484846112b8565b50505050565b6060610a1982611314565b9050919050565b610a28611007565b60096000815480929190610a3b90612782565b91905055506000610a4c6008611427565b9050610a586008611435565b610a62838261144b565b610a6c8183611469565b505050565b6000600560008473ffffffffffffffffffffffffffffffffffffffff1673ffffffffffffffffffffffffffffffffffffffff16815260200190815260200160002060008373ffffffffffffffffffffffffffffffffffffffff1673ffffffffffffffffffffffffffffffffffffffff16815260200190815260200160002060009054906101000a900460ff16905092915050565b610b0d611007565b600073ffffffffffffffffffffffffffffffffffffffff168173ffffffffffffffffffffffffffffffffffffffff161415610b7d576040517f08c379a0000000000000000000000000000000000000000000000000000000008152600401610b749061283d565b60405180910390fd5b610b8681611085565b50565b60007f01ffc9a7000000000000000000000000000000000000000000000000000000007bffffffffffffffffffffffffffffffffffffffffffffffffffffffff1916827bffffffffffffffffffffffffffffffffffffffffffffffffffffffff1916149050919050565b610bfc816114dd565b610c3b576040517f08c379a0000000000000000000000000000000000000000000000000000000008152600401610c32906126a1565b60405180910390fd5b50565b600033905090565b816004600083815260200190815260200160002060006101000a81548173ffffffffffffffffffffffffffffffffffffffff021916908373ffffffffffffffffffffffffffffffffffffffff160217905550808273ffffffffffffffffffffffffffffffffffffffff16610cb983610756565b73ffffffffffffffffffffffffffffffffffffffff167f8c5be1e5ebec7d5bd14f71427d1e84f3dd0314c0f7b2291e5b200ac8c7c3b92560405160405180910390a45050565b600080610d0b83610756565b90508073ffffffffffffffffffffffffffffffffffffffff168473ffffffffffffffffffffffffffffffffffffffff161480610d4d5750610d4c8185610a71565b5b80610d8b57508373ffffffffffffffffffffffffffffffffffffffff16610d738461051c565b73ffffffffffffffffffffffffffffffffffffffff16145b91505092915050565b8273ffffffffffffffffffffffffffffffffffffffff16610db482610756565b73ffffffffffffffffffffffffffffffffffffffff1614610e0a576040517f08c379a0000000000000000000000000000000000000000000000000000000008152600401610e01906128cf565b60405180910390fd5b600073ffffffffffffffffffffffffffffffffffffffff168273ffffffffffffffffffffffffffffffffffffffff161415610e7a576040517f08c379a0000000000000000000000000000000000000000000000000000000008152600401610e7190612961565b60405180910390fd5b610e85838383611549565b610e90600082610c46565b6001600360008573ffffffffffffffffffffffffffffffffffffffff1673ffffffffffffffffffffffffffffffffffffffff1681526020019081526020016000206000828254610ee09190612981565b925050819055506001600360008473ffffffffffffffffffffffffffffffffffffffff1673ffffffffffffffffffffffffffffffffffffffff1681526020019081526020016000206000828254610f3791906129b5565b92505081905550816002600083815260200190815260200160002060006101000a81548173ffffffffffffffffffffffffffffffffffffffff021916908373ffffffffffffffffffffffffffffffffffffffff160217905550808273ffffffffffffffffffffffffffffffffffffffff168473ffffffffffffffffffffffffffffffffffffffff167fddf252ad1be2c89b69c2b068fc378daa952ba7f163c4a11628f55a4df523b3ef60405160405180910390a4610ff683838361154e565b505050565b61100481611553565b50565b61100f610c3e565b73ffffffffffffffffffffffffffffffffffffffff1661102d6108d4565b73ffffffffffffffffffffffffffffffffffffffff1614611083576040517f08c379a000000000000000000000000000000000000000000000000000000000815260040161107a90612a57565b60405180910390fd5b565b6000600760009054906101000a900473ffffffffffffffffffffffffffffffffffffffff16905081600760006101000a81548173ffffffffffffffffffffffffffffffffffffffff021916908373ffffffffffffffffffffffffffffffffffffffff1602179055508173ffffffffffffffffffffffffffffffffffffffff168173ffffffffffffffffffffffffffffffffffffffff167f8be0079c531659141344cd1fd0a4f28419497f9722a3daafe3b4186f6b6457e060405160405180910390a35050565b8173ffffffffffffffffffffffffffffffffffffffff168373ffffffffffffffffffffffffffffffffffffffff1614156111ba576040517f08c379a00000000000000000000000000000000000000000000000000000000081526004016111b190612ac3565b60405180910390fd5b80600560008573ffffffffffffffffffffffffffffffffffffffff1673ffffffffffffffffffffffffffffffffffffffff16815260200190815260200160002060008473ffffffffffffffffffffffffffffffffffffffff1673ffffffffffffffffffffffffffffffffffffffff16815260200190815260200160002060006101000a81548160ff0219169083151502179055508173ffffffffffffffffffffffffffffffffffffffff168373ffffffffffffffffffffffffffffffffffffffff167f17307eab39ab6107e8899845ad3d59bd9653f200f220920489ca2b5937696c31836040516112ab9190611e32565b60405180910390a3505050565b6112c3848484610d94565b6112cf848484846115a6565b61130e576040517f08c379a000000000000000000000000000000000000000000000000000000000815260040161130590612b55565b60405180910390fd5b50505050565b606061131f82610bf3565b600060066000848152602001908152602001600020805461133f9061246d565b80601f016020809104026020016040519081016040528092919081815260200182805461136b9061246d565b80156113b85780601f1061138d576101008083540402835291602001916113b8565b820191906000526020600020905b81548152906001019060200180831161139b57829003601f168201915b5050505050905060006113c961173d565b90506000815114156113df578192505050611422565b6000825111156114145780826040516020016113fc929190612bb1565b60405160208183030381529060405292505050611422565b61141d8461175d565b925050505b919050565b600081600001549050919050565b6001816000016000828254019250508190555050565b6114658282604051806020016040528060008152506117c5565b5050565b611472826114dd565b6114b1576040517f08c379a00000000000000000000000000000000000000000000000000000000081526004016114a890612c47565b60405180910390fd5b806006600084815260200190815260200160002090805190602001906114d8929190611c9b565b505050565b60008073ffffffffffffffffffffffffffffffffffffffff166002600084815260200190815260200160002060009054906101000a900473ffffffffffffffffffffffffffffffffffffffff1673ffffffffffffffffffffffffffffffffffffffff1614159050919050565b505050565b505050565b61155c81611820565b600060066000838152602001908152602001600020805461157c9061246d565b9050146115a3576006600082815260200190815260200160002060006115a29190611d21565b5b50565b60006115c78473ffffffffffffffffffffffffffffffffffffffff1661193d565b15611730578373ffffffffffffffffffffffffffffffffffffffff1663150b7a026115f0610c3e565b8786866040518563ffffffff1660e01b81526004016116129493929190612cbc565b602060405180830381600087803b15801561162c57600080fd5b505af192505050801561165d57506040513d601f19601f8201168201806040525081019061165a9190612d1d565b60015b6116e0573d806000811461168d576040519150601f19603f3d011682016040523d82523d6000602084013e611692565b606091505b506000815114156116d8576040517f08c379a00000000000000000000000000000000000000000000000000000000081526004016116cf90612b55565b60405180910390fd5b805181602001fd5b63150b7a0260e01b7bffffffffffffffffffffffffffffffffffffffffffffffffffffffff1916817bffffffffffffffffffffffffffffffffffffffffffffffffffffffff191614915050611735565b600190505b949350505050565b6060604051806060016040528060228152602001612ee360229139905090565b606061176882610bf3565b600061177261173d565b9050600081511161179257604051806020016040528060008152506117bd565b8061179c84611960565b6040516020016117ad929190612bb1565b6040516020818303038152906040525b915050919050565b6117cf8383611ac1565b6117dc60008484846115a6565b61181b576040517f08c379a000000000000000000000000000000000000000000000000000000000815260040161181290612b55565b60405180910390fd5b505050565b600061182b82610756565b905061183981600084611549565b611844600083610c46565b6001600360008373ffffffffffffffffffffffffffffffffffffffff1673ffffffffffffffffffffffffffffffffffffffff16815260200190815260200160002060008282546118949190612981565b925050819055506002600083815260200190815260200160002060006101000a81549073ffffffffffffffffffffffffffffffffffffffff021916905581600073ffffffffffffffffffffffffffffffffffffffff168273ffffffffffffffffffffffffffffffffffffffff167fddf252ad1be2c89b69c2b068fc378daa952ba7f163c4a11628f55a4df523b3ef60405160405180910390a46119398160008461154e565b5050565b6000808273ffffffffffffffffffffffffffffffffffffffff163b119050919050565b606060008214156119a8576040518060400160405280600181526020017f30000000000000000000000000000000000000000000000000000000000000008152509050611abc565b600082905060005b600082146119da5780806119c390612782565b915050600a826119d39190612d79565b91506119b0565b60008167ffffffffffffffff8111156119f6576119f5612153565b5b6040519080825280601f01601f191660200182016040528015611a285781602001600182028036833780820191505090505b5090505b60008514611ab557600182611a419190612981565b9150600a85611a509190612daa565b6030611a5c91906129b5565b60f81b818381518110611a7257611a71612ddb565b5b60200101907effffffffffffffffffffffffffffffffffffffffffffffffffffffffffffff1916908160001a905350600a85611aae9190612d79565b9450611a2c565b8093505050505b919050565b600073ffffffffffffffffffffffffffffffffffffffff168273ffffffffffffffffffffffffffffffffffffffff161415611b31576040517f08c379a0000000000000000000000000000000000000000000000000000000008152600401611b2890612e56565b60405180910390fd5b611b3a816114dd565b15611b7a576040517f08c379a0000000000000000000000000000000000000000000000000000000008152600401611b7190612ec2565b60405180910390fd5b611b8660008383611549565b6001600360008473ffffffffffffffffffffffffffffffffffffffff1673ffffffffffffffffffffffffffffffffffffffff1681526020019081526020016000206000828254611bd691906129b5565b92505081905550816002600083815260200190815260200160002060006101000a81548173ffffffffffffffffffffffffffffffffffffffff021916908373ffffffffffffffffffffffffffffffffffffffff160217905550808273ffffffffffffffffffffffffffffffffffffffff16600073ffffffffffffffffffffffffffffffffffffffff167fddf252ad1be2c89b69c2b068fc378daa952ba7f163c4a11628f55a4df523b3ef60405160405180910390a4611c976000838361154e565b5050565b828054611ca79061246d565b90600052602060002090601f016020900481019282611cc95760008555611d10565b82601f10611ce257805160ff1916838001178555611d10565b82800160010185558215611d10579182015b82811115611d0f578251825591602001919060010190611cf4565b5b509050611d1d9190611d61565b5090565b508054611d2d9061246d565b6000825580601f10611d3f5750611d5e565b601f016020900490600052602060002090810190611d5d9190611d61565b5b50565b5b80821115611d7a576000816000905550600101611d62565b5090565b6000604051905090565b600080fd5b600080fd5b60007fffffffff0000000000000000000000000000000000000000000000000000000082169050919050565b611dc781611d92565b8114611dd257600080fd5b50565b600081359050611de481611dbe565b92915050565b600060208284031215611e0057611dff611d88565b5b6000611e0e84828501611dd5565b91505092915050565b60008115159050919050565b611e2c81611e17565b82525050565b6000602082019050611e476000830184611e23565b92915050565b600081519050919050565b600082825260208201905092915050565b60005b83811015611e87578082015181840152602081019050611e6c565b83811115611e96576000848401525b50505050565b6000601f19601f8301169050919050565b6000611eb882611e4d565b611ec28185611e58565b9350611ed2818560208601611e69565b611edb81611e9c565b840191505092915050565b60006020820190508181036000830152611f008184611ead565b905092915050565b6000819050919050565b611f1b81611f08565b8114611f2657600080fd5b50565b600081359050611f3881611f12565b92915050565b600060208284031215611f5457611f53611d88565b5b6000611f6284828501611f29565b91505092915050565b600073ffffffffffffffffffffffffffffffffffffffff82169050919050565b6000611f9682611f6b565b9050919050565b611fa681611f8b565b82525050565b6000602082019050611fc16000830184611f9d565b92915050565b611fd081611f8b565b8114611fdb57600080fd5b50565b600081359050611fed81611fc7565b92915050565b6000806040838503121561200a57612009611d88565b5b600061201885828601611fde565b925050602061202985828601611f29565b9150509250929050565b60008060006060848603121561204c5761204b611d88565b5b600061205a86828701611fde565b935050602061206b86828701611fde565b925050604061207c86828701611f29565b9150509250925092565b60006020828403121561209c5761209b611d88565b5b60006120aa84828501611fde565b91505092915050565b6120bc81611f08565b82525050565b60006020820190506120d760008301846120b3565b92915050565b6120e681611e17565b81146120f157600080fd5b50565b600081359050612103816120dd565b92915050565b600080604083850312156121205761211f611d88565b5b600061212e85828601611fde565b925050602061213f858286016120f4565b9150509250929050565b600080fd5b600080fd5b7f4e487b7100000000000000000000000000000000000000000000000000000000600052604160045260246000fd5b61218b82611e9c565b810181811067ffffffffffffffff821117156121aa576121a9612153565b5b80604052505050565b60006121bd611d7e565b90506121c98282612182565b919050565b600067ffffffffffffffff8211156121e9576121e8612153565b5b6121f282611e9c565b9050602081019050919050565b82818337600083830152505050565b600061222161221c846121ce565b6121b3565b90508281526020810184848401111561223d5761223c61214e565b5b6122488482856121ff565b509392505050565b600082601f83011261226557612264612149565b5b813561227584826020860161220e565b91505092915050565b6000806000806080858703121561229857612297611d88565b5b60006122a687828801611fde565b94505060206122b787828801611fde565b93505060406122c887828801611f29565b925050606085013567ffffffffffffffff8111156122e9576122e8611d8d565b5b6122f587828801612250565b91505092959194509250565b600067ffffffffffffffff82111561231c5761231b612153565b5b61232582611e9c565b9050602081019050919050565b600061234561234084612301565b6121b3565b9050828152602081018484840111156123615761236061214e565b5b61236c8482856121ff565b509392505050565b600082601f83011261238957612388612149565b5b8135612399848260208601612332565b91505092915050565b600080604083850312156123b9576123b8611d88565b5b60006123c785828601611fde565b925050602083013567ffffffffffffffff8111156123e8576123e7611d8d565b5b6123f485828601612374565b9150509250929050565b6000806040838503121561241557612414611d88565b5b600061242385828601611fde565b925050602061243485828601611fde565b9150509250929050565b7f4e487b7100000000000000000000000000000000000000000000000000000000600052602260045260246000fd5b6000600282049050600182168061248557607f821691505b602082108114156124995761249861243e565b5b50919050565b7f4552433732313a20617070726f76616c20746f2063757272656e74206f776e6560008201527f7200000000000000000000000000000000000000000000000000000000000000602082015250565b60006124fb602183611e58565b91506125068261249f565b604082019050919050565b6000602082019050818103600083015261252a816124ee565b9050919050565b7f4552433732313a20617070726f76652063616c6c6572206973206e6f7420746f60008201527f6b656e206f776e6572206e6f7220617070726f76656420666f7220616c6c0000602082015250565b600061258d603e83611e58565b915061259882612531565b604082019050919050565b600060208201905081810360008301526125bc81612580565b9050919050565b7f4552433732313a2063616c6c6572206973206e6f7420746f6b656e206f776e6560008201527f72206e6f7220617070726f766564000000000000000000000000000000000000602082015250565b600061261f602e83611e58565b915061262a826125c3565b604082019050919050565b6000602082019050818103600083015261264e81612612565b9050919050565b7f4552433732313a20696e76616c696420746f6b656e2049440000000000000000600082015250565b600061268b601883611e58565b915061269682612655565b602082019050919050565b600060208201905081810360008301526126ba8161267e565b9050919050565b7f4552433732313a2061646472657373207a65726f206973206e6f74206120766160008201527f6c6964206f776e65720000000000000000000000000000000000000000000000602082015250565b600061271d602983611e58565b9150612728826126c1565b604082019050919050565b6000602082019050818103600083015261274c81612710565b9050919050565b7f4e487b7100000000000000000000000000000000000000000000000000000000600052601160045260246000fd5b600061278d82611f08565b91507fffffffffffffffffffffffffffffffffffffffffffffffffffffffffffffffff8214156127c0576127bf612753565b5b600182019050919050565b7f4f776e61626c653a206e6577206f776e657220697320746865207a65726f206160008201527f6464726573730000000000000000000000000000000000000000000000000000602082015250565b6000612827602683611e58565b9150612832826127cb565b604082019050919050565b600060208201905081810360008301526128568161281a565b9050919050565b7f4552433732313a207472616e736665722066726f6d20696e636f72726563742060008201527f6f776e6572000000000000000000000000000000000000000000000000000000602082015250565b60006128b9602583611e58565b91506128c48261285d565b604082019050919050565b600060208201905081810360008301526128e8816128ac565b9050919050565b7f4552433732313a207472616e7366657220746f20746865207a65726f2061646460008201527f7265737300000000000000000000000000000000000000000000000000000000602082015250565b600061294b602483611e58565b9150612956826128ef565b604082019050919050565b6000602082019050818103600083015261297a8161293e565b9050919050565b600061298c82611f08565b915061299783611f08565b9250828210156129aa576129a9612753565b5b828203905092915050565b60006129c082611f08565b91506129cb83611f08565b9250827fffffffffffffffffffffffffffffffffffffffffffffffffffffffffffffffff03821115612a00576129ff612753565b5b828201905092915050565b7f4f776e61626c653a2063616c6c6572206973206e6f7420746865206f776e6572600082015250565b6000612a41602083611e58565b9150612a4c82612a0b565b602082019050919050565b60006020820190508181036000830152612a7081612a34565b9050919050565b7f4552433732313a20617070726f766520746f2063616c6c657200000000000000600082015250565b6000612aad601983611e58565b9150612ab882612a77565b602082019050919050565b60006020820190508181036000830152612adc81612aa0565b9050919050565b7f4552433732313a207472616e7366657220746f206e6f6e20455243373231526560008201527f63656976657220696d706c656d656e7465720000000000000000000000000000602082015250565b6000612b3f603283611e58565b9150612b4a82612ae3565b604082019050919050565b60006020820190508181036000830152612b6e81612b32565b9050919050565b600081905092915050565b6000612b8b82611e4d565b612b958185612b75565b9350612ba5818560208601611e69565b80840191505092915050565b6000612bbd8285612b80565b9150612bc98284612b80565b91508190509392505050565b7f45524337323155524953746f726167653a2055524920736574206f66206e6f6e60008201527f6578697374656e7420746f6b656e000000000000000000000000000000000000602082015250565b6000612c31602e83611e58565b9150612c3c82612bd5565b604082019050919050565b60006020820190508181036000830152612c6081612c24565b9050919050565b600081519050919050565b600082825260208201905092915050565b6000612c8e82612c67565b612c988185612c72565b9350612ca8818560208601611e69565b612cb181611e9c565b840191505092915050565b6000608082019050612cd16000830187611f9d565b612cde6020830186611f9d565b612ceb60408301856120b3565b8181036060830152612cfd8184612c83565b905095945050505050565b600081519050612d1781611dbe565b92915050565b600060208284031215612d3357612d32611d88565b5b6000612d4184828501612d08565b91505092915050565b7f4e487b7100000000000000000000000000000000000000000000000000000000600052601260045260246000fd5b6000612d8482611f08565b9150612d8f83611f08565b925082612d9f57612d9e612d4a565b5b828204905092915050565b6000612db582611f08565b9150612dc083611f08565b925082612dd057612dcf612d4a565b5b828206905092915050565b7f4e487b7100000000000000000000000000000000000000000000000000000000600052603260045260246000fd5b7f4552433732313a206d696e7420746f20746865207a65726f2061646472657373600082015250565b6000612e40602083611e58565b9150612e4b82612e0a565b602082019050919050565b60006020820190508181036000830152612e6f81612e33565b9050919050565b7f4552433732313a20746f6b656e20616c7265616479206d696e74656400000000600082015250565b6000612eac601c83611e58565b9150612eb782612e76565b602082019050919050565b60006020820190508181036000830152612edb81612e9f565b905091905056fe68747470733a2f2f676174657761792e70696e6174612e636c6f75642f697066732fa26469706673582212204311cfe7b6bd38d7e6dba11af853ffffbe27e4a0d49c0d3d83fe0da8a3c83a1f64736f6c63430008090033",
    "linkReferences": {},
    "deployedLinkReferences": {}
}