{
  "_format": "hh-sol-artifact-1",
  "contractName": "FakeIt",
  "sourceName": "contracts/FakeIt.sol",
  "abi": [
    {
      "inputs": [],
      "stateMutability": "nonpayable",
      "type": "constructor"
    },
    {
      "anonymous": false,
      "inputs": [
        {
          "indexed": true,
          "internalType": "address",
          "name": "owner",
          "type": "address"
        },
        {
          "indexed": true,
          "internalType": "address",
          "name": "approved",
          "type": "address"
        },
        {
          "indexed": true,
          "internalType": "uint256",
          "name": "tokenId",
          "type": "uint256"
        }
      ],
      "name": "Approval",
      "type": "event"
    },
    {
      "anonymous": false,
      "inputs": [
        {
          "indexed": true,
          "internalType": "address",
          "name": "owner",
          "type": "address"
        },
        {
          "indexed": true,
          "internalType": "address",
          "name": "operator",
          "type": "address"
        },
        {
          "indexed": false,
          "internalType": "bool",
          "name": "approved",
          "type": "bool"
        }
      ],
      "name": "ApprovalForAll",
      "type": "event"
    },
    {
      "anonymous": false,
      "inputs": [
        {
          "indexed": true,
          "internalType": "address",
          "name": "previousOwner",
          "type": "address"
        },
        {
          "indexed": true,
          "internalType": "address",
          "name": "newOwner",
          "type": "address"
        }
      ],
      "name": "OwnershipTransferred",
      "type": "event"
    },
    {
      "anonymous": false,
      "inputs": [
        {
          "indexed": true,
          "internalType": "address",
          "name": "from",
          "type": "address"
        },
        {
          "indexed": true,
          "internalType": "address",
          "name": "to",
          "type": "address"
        },
        {
          "indexed": true,
          "internalType": "uint256",
          "name": "tokenId",
          "type": "uint256"
        }
      ],
      "name": "Transfer",
      "type": "event"
    },
    {
      "inputs": [
        {
          "internalType": "address",
          "name": "to",
          "type": "address"
        },
        {
          "internalType": "uint256",
          "name": "tokenId",
          "type": "uint256"
        }
      ],
      "name": "approve",
      "outputs": [],
      "stateMutability": "nonpayable",
      "type": "function"
    },
    {
      "inputs": [
        {
          "internalType": "address",
          "name": "owner",
          "type": "address"
        }
      ],
      "name": "balanceOf",
      "outputs": [
        {
          "internalType": "uint256",
          "name": "",
          "type": "uint256"
        }
      ],
      "stateMutability": "view",
      "type": "function"
    },
    {
      "inputs": [
        {
          "internalType": "uint256",
          "name": "tokenId",
          "type": "uint256"
        }
      ],
      "name": "burn",
      "outputs": [],
      "stateMutability": "nonpayable",
      "type": "function"
    },
    {
      "inputs": [
        {
          "internalType": "uint256",
          "name": "tokenId",
          "type": "uint256"
        }
      ],
      "name": "getApproved",
      "outputs": [
        {
          "internalType": "address",
          "name": "",
          "type": "address"
        }
      ],
      "stateMutability": "view",
      "type": "function"
    },
    {
      "inputs": [],
      "name": "getTokenCount",
      "outputs": [
        {
          "internalType": "uint256",
          "name": "",
          "type": "uint256"
        }
      ],
      "stateMutability": "view",
      "type": "function"
    },
    {
      "inputs": [
        {
          "internalType": "address",
          "name": "owner",
          "type": "address"
        },
        {
          "internalType": "address",
          "name": "operator",
          "type": "address"
        }
      ],
      "name": "isApprovedForAll",
      "outputs": [
        {
          "internalType": "bool",
          "name": "",
          "type": "bool"
        }
      ],
      "stateMutability": "view",
      "type": "function"
    },
    {
      "inputs": [],
      "name": "name",
      "outputs": [
        {
          "internalType": "string",
          "name": "",
          "type": "string"
        }
      ],
      "stateMutability": "view",
      "type": "function"
    },
    {
      "inputs": [],
      "name": "owner",
      "outputs": [
        {
          "internalType": "address",
          "name": "",
          "type": "address"
        }
      ],
      "stateMutability": "view",
      "type": "function"
    },
    {
      "inputs": [
        {
          "internalType": "uint256",
          "name": "tokenId",
          "type": "uint256"
        }
      ],
      "name": "ownerOf",
      "outputs": [
        {
          "internalType": "address",
          "name": "",
          "type": "address"
        }
      ],
      "stateMutability": "view",
      "type": "function"
    },
    {
      "inputs": [],
      "name": "renounceOwnership",
      "outputs": [],
      "stateMutability": "nonpayable",
      "type": "function"
    },
    {
      "inputs": [
        {
          "internalType": "address",
          "name": "to",
          "type": "address"
        },
        {
          "internalType": "string",
          "name": "uri",
          "type": "string"
        }
      ],
      "name": "safeMint",
      "outputs": [],
      "stateMutability": "payable",
      "type": "function"
    },
    {
      "inputs": [
        {
          "internalType": "address",
          "name": "from",
          "type": "address"
        },
        {
          "internalType": "address",
          "name": "to",
          "type": "address"
        },
        {
          "internalType": "uint256",
          "name": "tokenId",
          "type": "uint256"
        }
      ],
      "name": "safeTransferFrom",
      "outputs": [],
      "stateMutability": "nonpayable",
      "type": "function"
    },
    {
      "inputs": [
        {
          "internalType": "address",
          "name": "from",
          "type": "address"
        },
        {
          "internalType": "address",
          "name": "to",
          "type": "address"
        },
        {
          "internalType": "uint256",
          "name": "tokenId",
          "type": "uint256"
        },
        {
          "internalType": "bytes",
          "name": "data",
          "type": "bytes"
        }
      ],
      "name": "safeTransferFrom",
      "outputs": [],
      "stateMutability": "nonpayable",
      "type": "function"
    },
    {
      "inputs": [
        {
          "internalType": "address",
          "name": "operator",
          "type": "address"
        },
        {
          "internalType": "bool",
          "name": "approved",
          "type": "bool"
        }
      ],
      "name": "setApprovalForAll",
      "outputs": [],
      "stateMutability": "nonpayable",
      "type": "function"
    },
    {
      "inputs": [
        {
          "internalType": "bytes4",
          "name": "interfaceId",
          "type": "bytes4"
        }
      ],
      "name": "supportsInterface",
      "outputs": [
        {
          "internalType": "bool",
          "name": "",
          "type": "bool"
        }
      ],
      "stateMutability": "view",
      "type": "function"
    },
    {
      "inputs": [],
      "name": "symbol",
      "outputs": [
        {
          "internalType": "string",
          "name": "",
          "type": "string"
        }
      ],
      "stateMutability": "view",
      "type": "function"
    },
    {
      "inputs": [],
      "name": "tokenCount",
      "outputs": [
        {
          "internalType": "uint256",
          "name": "",
          "type": "uint256"
        }
      ],
      "stateMutability": "view",
      "type": "function"
    },
    {
      "inputs": [
        {
          "internalType": "uint256",
          "name": "tokenId",
          "type": "uint256"
        }
      ],
      "name": "tokenURI",
      "outputs": [
        {
          "internalType": "string",
          "name": "",
          "type": "string"
        }
      ],
      "stateMutability": "view",
      "type": "function"
    },
    {
      "inputs": [
        {
          "internalType": "address",
          "name": "from",
          "type": "address"
        },
        {
          "internalType": "address",
          "name": "to",
          "type": "address"
        },
        {
          "internalType": "uint256",
          "name": "tokenId",
          "type": "uint256"
        }
      ],
      "name": "transferFrom",
      "outputs": [],
      "stateMutability": "nonpayable",
      "type": "function"
    },
    {
      "inputs": [
        {
          "internalType": "address",
          "name": "newOwner",
          "type": "address"
        }
      ],
      "name": "transferOwnership",
      "outputs": [],
      "stateMutability": "nonpayable",
      "type": "function"
    }
  ],
  "bytecode": "0x60806040523480156200001157600080fd5b506040518060400160405280600681526020017f46616b65497400000000000000000000000000000000000000000000000000008152506040518060400160405280600381526020017f464b540000000000000000000000000000000000000000000000000000000000815250816000908051906020019062000096929190620001a6565b508060019080519060200190620000af929190620001a6565b505050620000d2620000c6620000d860201b60201c565b620000e060201b60201c565b620002bb565b600033905090565b6000600760009054906101000a900473ffffffffffffffffffffffffffffffffffffffff16905081600760006101000a81548173ffffffffffffffffffffffffffffffffffffffff021916908373ffffffffffffffffffffffffffffffffffffffff1602179055508173ffffffffffffffffffffffffffffffffffffffff168173ffffffffffffffffffffffffffffffffffffffff167f8be0079c531659141344cd1fd0a4f28419497f9722a3daafe3b4186f6b6457e060405160405180910390a35050565b828054620001b49062000285565b90600052602060002090601f016020900481019282620001d8576000855562000224565b82601f10620001f357805160ff191683800117855562000224565b8280016001018555821562000224579182015b828111156200022357825182559160200191906001019062000206565b5b50905062000233919062000237565b5090565b5b808211156200025257600081600090555060010162000238565b5090565b7f4e487b7100000000000000000000000000000000000000000000000000000000600052602260045260246000fd5b600060028204905060018216806200029e57607f821691505b60208210811415620002b557620002b462000256565b5b50919050565b61310b80620002cb6000396000f3fe60806040526004361061011f5760003560e01c806378a89567116100a0578063b88d4fde11610064578063b88d4fde146103d3578063c87b56dd146103fc578063d204c45e14610439578063e985e9c514610455578063f2fde38b146104925761011f565b806378a89567146102fe5780638da5cb5b1461032957806395d89b41146103545780639f181b5e1461037f578063a22cb465146103aa5761011f565b806342842e0e116100e757806342842e0e1461021b57806342966c68146102445780636352211e1461026d57806370a08231146102aa578063715018a6146102e75761011f565b806301ffc9a71461012457806306fdde0314610161578063081812fc1461018c578063095ea7b3146101c957806323b872dd146101f2575b600080fd5b34801561013057600080fd5b5061014b60048036038101906101469190611f4f565b6104bb565b6040516101589190611f97565b60405180910390f35b34801561016d57600080fd5b5061017661059d565b604051610183919061204b565b60405180910390f35b34801561019857600080fd5b506101b360048036038101906101ae91906120a3565b61062f565b6040516101c09190612111565b60405180910390f35b3480156101d557600080fd5b506101f060048036038101906101eb9190612158565b610675565b005b3480156101fe57600080fd5b5061021960048036038101906102149190612198565b61078d565b005b34801561022757600080fd5b50610242600480360381019061023d9190612198565b6107ed565b005b34801561025057600080fd5b5061026b600480360381019061026691906120a3565b61080d565b005b34801561027957600080fd5b50610294600480360381019061028f91906120a3565b610869565b6040516102a19190612111565b60405180910390f35b3480156102b657600080fd5b506102d160048036038101906102cc91906121eb565b61091b565b6040516102de9190612227565b60405180910390f35b3480156102f357600080fd5b506102fc6109d3565b005b34801561030a57600080fd5b506103136109e7565b6040516103209190612227565b60405180910390f35b34801561033557600080fd5b5061033e6109fd565b60405161034b9190612111565b60405180910390f35b34801561036057600080fd5b50610369610a27565b604051610376919061204b565b60405180910390f35b34801561038b57600080fd5b50610394610ab9565b6040516103a19190612227565b60405180910390f35b3480156103b657600080fd5b506103d160048036038101906103cc919061226e565b610abf565b005b3480156103df57600080fd5b506103fa60048036038101906103f591906123e3565b610ad5565b005b34801561040857600080fd5b50610423600480360381019061041e91906120a3565b610b37565b604051610430919061204b565b60405180910390f35b610453600480360381019061044e9190612507565b610b49565b005b34801561046157600080fd5b5061047c60048036038101906104779190612563565b610bd6565b6040516104899190611f97565b60405180910390f35b34801561049e57600080fd5b506104b960048036038101906104b491906121eb565b610c6a565b005b60007f80ac58cd000000000000000000000000000000000000000000000000000000007bffffffffffffffffffffffffffffffffffffffffffffffffffffffff1916827bffffffffffffffffffffffffffffffffffffffffffffffffffffffff1916148061058657507f5b5e139f000000000000000000000000000000000000000000000000000000007bffffffffffffffffffffffffffffffffffffffffffffffffffffffff1916827bffffffffffffffffffffffffffffffffffffffffffffffffffffffff1916145b80610596575061059582610cee565b5b9050919050565b6060600080546105ac906125d2565b80601f01602080910402602001604051908101604052809291908181526020018280546105d8906125d2565b80156106255780601f106105fa57610100808354040283529160200191610625565b820191906000526020600020905b81548152906001019060200180831161060857829003601f168201915b5050505050905090565b600061063a82610d58565b6004600083815260200190815260200160002060009054906101000a900473ffffffffffffffffffffffffffffffffffffffff169050919050565b600061068082610869565b90508073ffffffffffffffffffffffffffffffffffffffff168373ffffffffffffffffffffffffffffffffffffffff1614156106f1576040517f08c379a00000000000000000000000000000000000000000000000000000000081526004016106e890612676565b60405180910390fd5b8073ffffffffffffffffffffffffffffffffffffffff16610710610da3565b73ffffffffffffffffffffffffffffffffffffffff16148061073f575061073e81610739610da3565b610bd6565b5b61077e576040517f08c379a000000000000000000000000000000000000000000000000000000000815260040161077590612708565b60405180910390fd5b6107888383610dab565b505050565b61079e610798610da3565b82610e64565b6107dd576040517f08c379a00000000000000000000000000000000000000000000000000000000081526004016107d49061279a565b60405180910390fd5b6107e8838383610ef9565b505050565b61080883838360405180602001604052806000815250610ad5565b505050565b61081e610818610da3565b82610e64565b61085d576040517f08c379a00000000000000000000000000000000000000000000000000000000081526004016108549061279a565b60405180910390fd5b61086681611160565b50565b6000806002600084815260200190815260200160002060009054906101000a900473ffffffffffffffffffffffffffffffffffffffff169050600073ffffffffffffffffffffffffffffffffffffffff168173ffffffffffffffffffffffffffffffffffffffff161415610912576040517f08c379a000000000000000000000000000000000000000000000000000000000815260040161090990612806565b60405180910390fd5b80915050919050565b60008073ffffffffffffffffffffffffffffffffffffffff168273ffffffffffffffffffffffffffffffffffffffff16141561098c576040517f08c379a000000000000000000000000000000000000000000000000000000000815260040161098390612898565b60405180910390fd5b600360008373ffffffffffffffffffffffffffffffffffffffff1673ffffffffffffffffffffffffffffffffffffffff168152602001908152602001600020549050919050565b6109db61116c565b6109e560006111ea565b565b600060016009546109f891906128e7565b905090565b6000600760009054906101000a900473ffffffffffffffffffffffffffffffffffffffff16905090565b606060018054610a36906125d2565b80601f0160208091040260200160405190810160405280929190818152602001828054610a62906125d2565b8015610aaf5780601f10610a8457610100808354040283529160200191610aaf565b820191906000526020600020905b815481529060010190602001808311610a9257829003601f168201915b5050505050905090565b60095481565b610ad1610aca610da3565b83836112b0565b5050565b610ae6610ae0610da3565b83610e64565b610b25576040517f08c379a0000000000000000000000000000000000000000000000000000000008152600401610b1c9061279a565b60405180910390fd5b610b318484848461141d565b50505050565b6060610b4282611479565b9050919050565b6000341415610b8d576040517f08c379a0000000000000000000000000000000000000000000000000000000008152600401610b8490612967565b60405180910390fd5b60096000815480929190610ba090612987565b91905055506000610bb1600861158c565b9050610bbd600861159a565b610bc783826115b0565b610bd181836115ce565b505050565b6000600560008473ffffffffffffffffffffffffffffffffffffffff1673ffffffffffffffffffffffffffffffffffffffff16815260200190815260200160002060008373ffffffffffffffffffffffffffffffffffffffff1673ffffffffffffffffffffffffffffffffffffffff16815260200190815260200160002060009054906101000a900460ff16905092915050565b610c7261116c565b600073ffffffffffffffffffffffffffffffffffffffff168173ffffffffffffffffffffffffffffffffffffffff161415610ce2576040517f08c379a0000000000000000000000000000000000000000000000000000000008152600401610cd990612a42565b60405180910390fd5b610ceb816111ea565b50565b60007f01ffc9a7000000000000000000000000000000000000000000000000000000007bffffffffffffffffffffffffffffffffffffffffffffffffffffffff1916827bffffffffffffffffffffffffffffffffffffffffffffffffffffffff1916149050919050565b610d6181611642565b610da0576040517f08c379a0000000000000000000000000000000000000000000000000000000008152600401610d9790612806565b60405180910390fd5b50565b600033905090565b816004600083815260200190815260200160002060006101000a81548173ffffffffffffffffffffffffffffffffffffffff021916908373ffffffffffffffffffffffffffffffffffffffff160217905550808273ffffffffffffffffffffffffffffffffffffffff16610e1e83610869565b73ffffffffffffffffffffffffffffffffffffffff167f8c5be1e5ebec7d5bd14f71427d1e84f3dd0314c0f7b2291e5b200ac8c7c3b92560405160405180910390a45050565b600080610e7083610869565b90508073ffffffffffffffffffffffffffffffffffffffff168473ffffffffffffffffffffffffffffffffffffffff161480610eb25750610eb18185610bd6565b5b80610ef057508373ffffffffffffffffffffffffffffffffffffffff16610ed88461062f565b73ffffffffffffffffffffffffffffffffffffffff16145b91505092915050565b8273ffffffffffffffffffffffffffffffffffffffff16610f1982610869565b73ffffffffffffffffffffffffffffffffffffffff1614610f6f576040517f08c379a0000000000000000000000000000000000000000000000000000000008152600401610f6690612ad4565b60405180910390fd5b600073ffffffffffffffffffffffffffffffffffffffff168273ffffffffffffffffffffffffffffffffffffffff161415610fdf576040517f08c379a0000000000000000000000000000000000000000000000000000000008152600401610fd690612b66565b60405180910390fd5b610fea8383836116ae565b610ff5600082610dab565b6001600360008573ffffffffffffffffffffffffffffffffffffffff1673ffffffffffffffffffffffffffffffffffffffff168152602001908152602001600020600082825461104591906128e7565b925050819055506001600360008473ffffffffffffffffffffffffffffffffffffffff1673ffffffffffffffffffffffffffffffffffffffff168152602001908152602001600020600082825461109c9190612b86565b92505081905550816002600083815260200190815260200160002060006101000a81548173ffffffffffffffffffffffffffffffffffffffff021916908373ffffffffffffffffffffffffffffffffffffffff160217905550808273ffffffffffffffffffffffffffffffffffffffff168473ffffffffffffffffffffffffffffffffffffffff167fddf252ad1be2c89b69c2b068fc378daa952ba7f163c4a11628f55a4df523b3ef60405160405180910390a461115b8383836116b3565b505050565b611169816116b8565b50565b611174610da3565b73ffffffffffffffffffffffffffffffffffffffff166111926109fd565b73ffffffffffffffffffffffffffffffffffffffff16146111e8576040517f08c379a00000000000000000000000000000000000000000000000000000000081526004016111df90612c28565b60405180910390fd5b565b6000600760009054906101000a900473ffffffffffffffffffffffffffffffffffffffff16905081600760006101000a81548173ffffffffffffffffffffffffffffffffffffffff021916908373ffffffffffffffffffffffffffffffffffffffff1602179055508173ffffffffffffffffffffffffffffffffffffffff168173ffffffffffffffffffffffffffffffffffffffff167f8be0079c531659141344cd1fd0a4f28419497f9722a3daafe3b4186f6b6457e060405160405180910390a35050565b8173ffffffffffffffffffffffffffffffffffffffff168373ffffffffffffffffffffffffffffffffffffffff16141561131f576040517f08c379a000000000000000000000000000000000000000000000000000000000815260040161131690612c94565b60405180910390fd5b80600560008573ffffffffffffffffffffffffffffffffffffffff1673ffffffffffffffffffffffffffffffffffffffff16815260200190815260200160002060008473ffffffffffffffffffffffffffffffffffffffff1673ffffffffffffffffffffffffffffffffffffffff16815260200190815260200160002060006101000a81548160ff0219169083151502179055508173ffffffffffffffffffffffffffffffffffffffff168373ffffffffffffffffffffffffffffffffffffffff167f17307eab39ab6107e8899845ad3d59bd9653f200f220920489ca2b5937696c31836040516114109190611f97565b60405180910390a3505050565b611428848484610ef9565b6114348484848461170b565b611473576040517f08c379a000000000000000000000000000000000000000000000000000000000815260040161146a90612d26565b60405180910390fd5b50505050565b606061148482610d58565b60006006600084815260200190815260200160002080546114a4906125d2565b80601f01602080910402602001604051908101604052809291908181526020018280546114d0906125d2565b801561151d5780601f106114f25761010080835404028352916020019161151d565b820191906000526020600020905b81548152906001019060200180831161150057829003601f168201915b50505050509050600061152e6118a2565b9050600081511415611544578192505050611587565b600082511115611579578082604051602001611561929190612d82565b60405160208183030381529060405292505050611587565b611582846118c2565b925050505b919050565b600081600001549050919050565b6001816000016000828254019250508190555050565b6115ca82826040518060200160405280600081525061192a565b5050565b6115d782611642565b611616576040517f08c379a000000000000000000000000000000000000000000000000000000000815260040161160d90612e18565b60405180910390fd5b8060066000848152602001908152602001600020908051906020019061163d929190611e00565b505050565b60008073ffffffffffffffffffffffffffffffffffffffff166002600084815260200190815260200160002060009054906101000a900473ffffffffffffffffffffffffffffffffffffffff1673ffffffffffffffffffffffffffffffffffffffff1614159050919050565b505050565b505050565b6116c181611985565b60006006600083815260200190815260200160002080546116e1906125d2565b905014611708576006600082815260200190815260200160002060006117079190611e86565b5b50565b600061172c8473ffffffffffffffffffffffffffffffffffffffff16611aa2565b15611895578373ffffffffffffffffffffffffffffffffffffffff1663150b7a02611755610da3565b8786866040518563ffffffff1660e01b81526004016117779493929190612e8d565b602060405180830381600087803b15801561179157600080fd5b505af19250505080156117c257506040513d601f19601f820116820180604052508101906117bf9190612eee565b60015b611845573d80600081146117f2576040519150601f19603f3d011682016040523d82523d6000602084013e6117f7565b606091505b5060008151141561183d576040517f08c379a000000000000000000000000000000000000000000000000000000000815260040161183490612d26565b60405180910390fd5b805181602001fd5b63150b7a0260e01b7bffffffffffffffffffffffffffffffffffffffffffffffffffffffff1916817bffffffffffffffffffffffffffffffffffffffffffffffffffffffff19161491505061189a565b600190505b949350505050565b60606040518060600160405280602281526020016130b460229139905090565b60606118cd82610d58565b60006118d76118a2565b905060008151116118f75760405180602001604052806000815250611922565b8061190184611ac5565b604051602001611912929190612d82565b6040516020818303038152906040525b915050919050565b6119348383611c26565b611941600084848461170b565b611980576040517f08c379a000000000000000000000000000000000000000000000000000000000815260040161197790612d26565b60405180910390fd5b505050565b600061199082610869565b905061199e816000846116ae565b6119a9600083610dab565b6001600360008373ffffffffffffffffffffffffffffffffffffffff1673ffffffffffffffffffffffffffffffffffffffff16815260200190815260200160002060008282546119f991906128e7565b925050819055506002600083815260200190815260200160002060006101000a81549073ffffffffffffffffffffffffffffffffffffffff021916905581600073ffffffffffffffffffffffffffffffffffffffff168273ffffffffffffffffffffffffffffffffffffffff167fddf252ad1be2c89b69c2b068fc378daa952ba7f163c4a11628f55a4df523b3ef60405160405180910390a4611a9e816000846116b3565b5050565b6000808273ffffffffffffffffffffffffffffffffffffffff163b119050919050565b60606000821415611b0d576040518060400160405280600181526020017f30000000000000000000000000000000000000000000000000000000000000008152509050611c21565b600082905060005b60008214611b3f578080611b2890612987565b915050600a82611b389190612f4a565b9150611b15565b60008167ffffffffffffffff811115611b5b57611b5a6122b8565b5b6040519080825280601f01601f191660200182016040528015611b8d5781602001600182028036833780820191505090505b5090505b60008514611c1a57600182611ba691906128e7565b9150600a85611bb59190612f7b565b6030611bc19190612b86565b60f81b818381518110611bd757611bd6612fac565b5b60200101907effffffffffffffffffffffffffffffffffffffffffffffffffffffffffffff1916908160001a905350600a85611c139190612f4a565b9450611b91565b8093505050505b919050565b600073ffffffffffffffffffffffffffffffffffffffff168273ffffffffffffffffffffffffffffffffffffffff161415611c96576040517f08c379a0000000000000000000000000000000000000000000000000000000008152600401611c8d90613027565b60405180910390fd5b611c9f81611642565b15611cdf576040517f08c379a0000000000000000000000000000000000000000000000000000000008152600401611cd690613093565b60405180910390fd5b611ceb600083836116ae565b6001600360008473ffffffffffffffffffffffffffffffffffffffff1673ffffffffffffffffffffffffffffffffffffffff1681526020019081526020016000206000828254611d3b9190612b86565b92505081905550816002600083815260200190815260200160002060006101000a81548173ffffffffffffffffffffffffffffffffffffffff021916908373ffffffffffffffffffffffffffffffffffffffff160217905550808273ffffffffffffffffffffffffffffffffffffffff16600073ffffffffffffffffffffffffffffffffffffffff167fddf252ad1be2c89b69c2b068fc378daa952ba7f163c4a11628f55a4df523b3ef60405160405180910390a4611dfc600083836116b3565b5050565b828054611e0c906125d2565b90600052602060002090601f016020900481019282611e2e5760008555611e75565b82601f10611e4757805160ff1916838001178555611e75565b82800160010185558215611e75579182015b82811115611e74578251825591602001919060010190611e59565b5b509050611e829190611ec6565b5090565b508054611e92906125d2565b6000825580601f10611ea45750611ec3565b601f016020900490600052602060002090810190611ec29190611ec6565b5b50565b5b80821115611edf576000816000905550600101611ec7565b5090565b6000604051905090565b600080fd5b600080fd5b60007fffffffff0000000000000000000000000000000000000000000000000000000082169050919050565b611f2c81611ef7565b8114611f3757600080fd5b50565b600081359050611f4981611f23565b92915050565b600060208284031215611f6557611f64611eed565b5b6000611f7384828501611f3a565b91505092915050565b60008115159050919050565b611f9181611f7c565b82525050565b6000602082019050611fac6000830184611f88565b92915050565b600081519050919050565b600082825260208201905092915050565b60005b83811015611fec578082015181840152602081019050611fd1565b83811115611ffb576000848401525b50505050565b6000601f19601f8301169050919050565b600061201d82611fb2565b6120278185611fbd565b9350612037818560208601611fce565b61204081612001565b840191505092915050565b600060208201905081810360008301526120658184612012565b905092915050565b6000819050919050565b6120808161206d565b811461208b57600080fd5b50565b60008135905061209d81612077565b92915050565b6000602082840312156120b9576120b8611eed565b5b60006120c78482850161208e565b91505092915050565b600073ffffffffffffffffffffffffffffffffffffffff82169050919050565b60006120fb826120d0565b9050919050565b61210b816120f0565b82525050565b60006020820190506121266000830184612102565b92915050565b612135816120f0565b811461214057600080fd5b50565b6000813590506121528161212c565b92915050565b6000806040838503121561216f5761216e611eed565b5b600061217d85828601612143565b925050602061218e8582860161208e565b9150509250929050565b6000806000606084860312156121b1576121b0611eed565b5b60006121bf86828701612143565b93505060206121d086828701612143565b92505060406121e18682870161208e565b9150509250925092565b60006020828403121561220157612200611eed565b5b600061220f84828501612143565b91505092915050565b6122218161206d565b82525050565b600060208201905061223c6000830184612218565b92915050565b61224b81611f7c565b811461225657600080fd5b50565b60008135905061226881612242565b92915050565b6000806040838503121561228557612284611eed565b5b600061229385828601612143565b92505060206122a485828601612259565b9150509250929050565b600080fd5b600080fd5b7f4e487b7100000000000000000000000000000000000000000000000000000000600052604160045260246000fd5b6122f082612001565b810181811067ffffffffffffffff8211171561230f5761230e6122b8565b5b80604052505050565b6000612322611ee3565b905061232e82826122e7565b919050565b600067ffffffffffffffff82111561234e5761234d6122b8565b5b61235782612001565b9050602081019050919050565b82818337600083830152505050565b600061238661238184612333565b612318565b9050828152602081018484840111156123a2576123a16122b3565b5b6123ad848285612364565b509392505050565b600082601f8301126123ca576123c96122ae565b5b81356123da848260208601612373565b91505092915050565b600080600080608085870312156123fd576123fc611eed565b5b600061240b87828801612143565b945050602061241c87828801612143565b935050604061242d8782880161208e565b925050606085013567ffffffffffffffff81111561244e5761244d611ef2565b5b61245a878288016123b5565b91505092959194509250565b600067ffffffffffffffff821115612481576124806122b8565b5b61248a82612001565b9050602081019050919050565b60006124aa6124a584612466565b612318565b9050828152602081018484840111156124c6576124c56122b3565b5b6124d1848285612364565b509392505050565b600082601f8301126124ee576124ed6122ae565b5b81356124fe848260208601612497565b91505092915050565b6000806040838503121561251e5761251d611eed565b5b600061252c85828601612143565b925050602083013567ffffffffffffffff81111561254d5761254c611ef2565b5b612559858286016124d9565b9150509250929050565b6000806040838503121561257a57612579611eed565b5b600061258885828601612143565b925050602061259985828601612143565b9150509250929050565b7f4e487b7100000000000000000000000000000000000000000000000000000000600052602260045260246000fd5b600060028204905060018216806125ea57607f821691505b602082108114156125fe576125fd6125a3565b5b50919050565b7f4552433732313a20617070726f76616c20746f2063757272656e74206f776e6560008201527f7200000000000000000000000000000000000000000000000000000000000000602082015250565b6000612660602183611fbd565b915061266b82612604565b604082019050919050565b6000602082019050818103600083015261268f81612653565b9050919050565b7f4552433732313a20617070726f76652063616c6c6572206973206e6f7420746f60008201527f6b656e206f776e6572206e6f7220617070726f76656420666f7220616c6c0000602082015250565b60006126f2603e83611fbd565b91506126fd82612696565b604082019050919050565b60006020820190508181036000830152612721816126e5565b9050919050565b7f4552433732313a2063616c6c6572206973206e6f7420746f6b656e206f776e6560008201527f72206e6f7220617070726f766564000000000000000000000000000000000000602082015250565b6000612784602e83611fbd565b915061278f82612728565b604082019050919050565b600060208201905081810360008301526127b381612777565b9050919050565b7f4552433732313a20696e76616c696420746f6b656e2049440000000000000000600082015250565b60006127f0601883611fbd565b91506127fb826127ba565b602082019050919050565b6000602082019050818103600083015261281f816127e3565b9050919050565b7f4552433732313a2061646472657373207a65726f206973206e6f74206120766160008201527f6c6964206f776e65720000000000000000000000000000000000000000000000602082015250565b6000612882602983611fbd565b915061288d82612826565b604082019050919050565b600060208201905081810360008301526128b181612875565b9050919050565b7f4e487b7100000000000000000000000000000000000000000000000000000000600052601160045260246000fd5b60006128f28261206d565b91506128fd8361206d565b9250828210156129105761290f6128b8565b5b828203905092915050565b7f4e4654206973206e6f7420667265650000000000000000000000000000000000600082015250565b6000612951600f83611fbd565b915061295c8261291b565b602082019050919050565b6000602082019050818103600083015261298081612944565b9050919050565b60006129928261206d565b91507fffffffffffffffffffffffffffffffffffffffffffffffffffffffffffffffff8214156129c5576129c46128b8565b5b600182019050919050565b7f4f776e61626c653a206e6577206f776e657220697320746865207a65726f206160008201527f6464726573730000000000000000000000000000000000000000000000000000602082015250565b6000612a2c602683611fbd565b9150612a37826129d0565b604082019050919050565b60006020820190508181036000830152612a5b81612a1f565b9050919050565b7f4552433732313a207472616e736665722066726f6d20696e636f72726563742060008201527f6f776e6572000000000000000000000000000000000000000000000000000000602082015250565b6000612abe602583611fbd565b9150612ac982612a62565b604082019050919050565b60006020820190508181036000830152612aed81612ab1565b9050919050565b7f4552433732313a207472616e7366657220746f20746865207a65726f2061646460008201527f7265737300000000000000000000000000000000000000000000000000000000602082015250565b6000612b50602483611fbd565b9150612b5b82612af4565b604082019050919050565b60006020820190508181036000830152612b7f81612b43565b9050919050565b6000612b918261206d565b9150612b9c8361206d565b9250827fffffffffffffffffffffffffffffffffffffffffffffffffffffffffffffffff03821115612bd157612bd06128b8565b5b828201905092915050565b7f4f776e61626c653a2063616c6c6572206973206e6f7420746865206f776e6572600082015250565b6000612c12602083611fbd565b9150612c1d82612bdc565b602082019050919050565b60006020820190508181036000830152612c4181612c05565b9050919050565b7f4552433732313a20617070726f766520746f2063616c6c657200000000000000600082015250565b6000612c7e601983611fbd565b9150612c8982612c48565b602082019050919050565b60006020820190508181036000830152612cad81612c71565b9050919050565b7f4552433732313a207472616e7366657220746f206e6f6e20455243373231526560008201527f63656976657220696d706c656d656e7465720000000000000000000000000000602082015250565b6000612d10603283611fbd565b9150612d1b82612cb4565b604082019050919050565b60006020820190508181036000830152612d3f81612d03565b9050919050565b600081905092915050565b6000612d5c82611fb2565b612d668185612d46565b9350612d76818560208601611fce565b80840191505092915050565b6000612d8e8285612d51565b9150612d9a8284612d51565b91508190509392505050565b7f45524337323155524953746f726167653a2055524920736574206f66206e6f6e60008201527f6578697374656e7420746f6b656e000000000000000000000000000000000000602082015250565b6000612e02602e83611fbd565b9150612e0d82612da6565b604082019050919050565b60006020820190508181036000830152612e3181612df5565b9050919050565b600081519050919050565b600082825260208201905092915050565b6000612e5f82612e38565b612e698185612e43565b9350612e79818560208601611fce565b612e8281612001565b840191505092915050565b6000608082019050612ea26000830187612102565b612eaf6020830186612102565b612ebc6040830185612218565b8181036060830152612ece8184612e54565b905095945050505050565b600081519050612ee881611f23565b92915050565b600060208284031215612f0457612f03611eed565b5b6000612f1284828501612ed9565b91505092915050565b7f4e487b7100000000000000000000000000000000000000000000000000000000600052601260045260246000fd5b6000612f558261206d565b9150612f608361206d565b925082612f7057612f6f612f1b565b5b828204905092915050565b6000612f868261206d565b9150612f918361206d565b925082612fa157612fa0612f1b565b5b828206905092915050565b7f4e487b7100000000000000000000000000000000000000000000000000000000600052603260045260246000fd5b7f4552433732313a206d696e7420746f20746865207a65726f2061646472657373600082015250565b6000613011602083611fbd565b915061301c82612fdb565b602082019050919050565b6000602082019050818103600083015261304081613004565b9050919050565b7f4552433732313a20746f6b656e20616c7265616479206d696e74656400000000600082015250565b600061307d601c83611fbd565b915061308882613047565b602082019050919050565b600060208201905081810360008301526130ac81613070565b905091905056fe68747470733a2f2f676174657761792e70696e6174612e636c6f75642f697066732fa2646970667358221220d35e4848c9b17b7caea98203d8cd605e74844b36749b476cdeced1486edc77af64736f6c63430008090033",
  "linkReferences": {},
  "deployedLinkReferences": {}
}