{
  "_format": "hh-sol-artifact-1",
  "contractName": "FundsManager",
  "sourceName": "contracts/FundsManager.sol",
  "abi": [
    {
      "inputs": [
        {
          "internalType": "string",
          "name": "_poolId",
          "type": "string"
        }
      ],
      "name": "contributeFunds",
      "outputs": [],
      "stateMutability": "payable",
      "type": "function"
    },
    {
      "inputs": [
        {
          "internalType": "string",
          "name": "_poolId",
          "type": "string"
        },
        {
          "internalType": "string",
          "name": "_poolName",
          "type": "string"
        },
        {
          "internalType": "uint256",
          "name": "_poolSize",
          "type": "uint256"
        },
        {
          "internalType": "address[]",
          "name": "_owners",
          "type": "address[]"
        },
        {
          "internalType": "uint256",
          "name": "_fundsGoal",
          "type": "uint256"
        },
        {
          "internalType": "uint256",
          "name": "_tokenId",
          "type": "uint256"
        },
        {
          "internalType": "address",
          "name": "_collectionAddress",
          "type": "address"
        }
      ],
      "name": "createPool",
      "outputs": [],
      "stateMutability": "nonpayable",
      "type": "function"
    },
    {
      "inputs": [
        {
          "internalType": "string",
          "name": "_poolId",
          "type": "string"
        }
      ],
      "name": "getPoolOwners",
      "outputs": [
        {
          "internalType": "address[]",
          "name": "",
          "type": "address[]"
        }
      ],
      "stateMutability": "view",
      "type": "function"
    },
    {
      "inputs": [],
      "name": "getUserPools",
      "outputs": [
        {
          "internalType": "string[]",
          "name": "",
          "type": "string[]"
        }
      ],
      "stateMutability": "view",
      "type": "function"
    },
    {
      "inputs": [
        {
          "internalType": "string",
          "name": "_poolId",
          "type": "string"
        },
        {
          "internalType": "bool",
          "name": "_isAgree",
          "type": "bool"
        }
      ],
      "name": "makeConsensus",
      "outputs": [],
      "stateMutability": "nonpayable",
      "type": "function"
    },
    {
      "inputs": [
        {
          "internalType": "address",
          "name": "",
          "type": "address"
        },
        {
          "internalType": "uint256",
          "name": "",
          "type": "uint256"
        }
      ],
      "name": "poolOwners",
      "outputs": [
        {
          "internalType": "string",
          "name": "",
          "type": "string"
        }
      ],
      "stateMutability": "view",
      "type": "function"
    },
    {
      "inputs": [
        {
          "internalType": "string",
          "name": "",
          "type": "string"
        }
      ],
      "name": "pools",
      "outputs": [
        {
          "internalType": "uint256",
          "name": "funds",
          "type": "uint256"
        },
        {
          "internalType": "string",
          "name": "poolName",
          "type": "string"
        },
        {
          "internalType": "uint256",
          "name": "poolSize",
          "type": "uint256"
        },
        {
          "internalType": "uint256",
          "name": "fundGoal",
          "type": "uint256"
        },
        {
          "internalType": "uint256",
          "name": "positiveCount",
          "type": "uint256"
        },
        {
          "internalType": "uint256",
          "name": "negativeCount",
          "type": "uint256"
        },
        {
          "internalType": "contract OwnerShipTokens",
          "name": "ownerShipTokenAddress",
          "type": "address"
        },
        {
          "internalType": "string",
          "name": "poolId",
          "type": "string"
        },
        {
          "internalType": "contract OwnerShipTokens",
          "name": "OwnerShipTokenContract",
          "type": "address"
        },
        {
          "internalType": "uint256",
          "name": "tokenId",
          "type": "uint256"
        },
        {
          "internalType": "address",
          "name": "collectionAddress",
          "type": "address"
        }
      ],
      "stateMutability": "view",
      "type": "function"
    },
    {
      "stateMutability": "payable",
      "type": "receive"
    }
  ],
  "bytecode": "0x608060405273ffe9330a68e7f43b8146ac235ee3c809a5298b436000806101000a81548173ffffffffffffffffffffffffffffffffffffffff021916908373ffffffffffffffffffffffffffffffffffffffff16021790555034801561006457600080fd5b50613d3c806100746000396000f3fe6080604052600436106200007f5760003560e01c80634ce6a99d11620000555780634ce6a99d146200010a5780636a05e5fe146200014e5780639d6f17a81462000192578063dab07f4314620001e05762000087565b80630b7fd928146200008c57806326f1024f14620000ba5780632fe839dd14620000ea5762000087565b366200008757005b600080fd5b3480156200009957600080fd5b50620000b86004803603810190620000b2919062001318565b6200020e565b005b348015620000c757600080fd5b50620000d2620004e2565b604051620000e191906200158b565b60405180910390f35b620001086004803603810190620001029190620015af565b62000602565b005b3480156200011757600080fd5b50620001366004803603810190620001309190620015af565b620006ba565b604051620001459190620016ce565b60405180910390f35b3480156200015b57600080fd5b506200017a6004803603810190620001749190620016f2565b6200076d565b6040516200018991906200178b565b60405180910390f35b3480156200019f57600080fd5b50620001be6004803603810190620001b89190620015af565b6200082f565b604051620001d79b9a999897969594939291906200183c565b60405180910390f35b348015620001ed57600080fd5b506200020c600480360381019062000206919062001948565b62000a1f565b005b85600288604051620002219190620019f0565b908152602001604051809103902060020190805190602001906200024792919062000f69565b50846002886040516200025b9190620019f0565b90815260200160405180910390206003018190555060005b8581101562000333576002886040516200028e9190620019f0565b9081526020016040518091039020600001858281518110620002b557620002b462001a09565b5b60200260200101519080600181540180825580915050600190039060005260206000200160009091909190916101000a81548173ffffffffffffffffffffffffffffffffffffffff021916908373ffffffffffffffffffffffffffffffffffffffff16021790555080806200032a9062001a67565b91505062000273565b5082600288604051620003479190620019f0565b908152602001604051809103902060040181905550600360003373ffffffffffffffffffffffffffffffffffffffff1673ffffffffffffffffffffffffffffffffffffffff16815260200190815260200160002087908060018154018082558091505060019003906000526020600020016000909190919091509080519060200190620003d692919062000f69565b506004879080600181540180825580915050600190039060005260206000200160009091909190915090805190602001906200041492919062000f69565b5086600288604051620004289190620019f0565b908152602001604051809103902060080190805190602001906200044e92919062000f69565b5081600288604051620004629190620019f0565b9081526020016040518091039020600b0181905550806002886040516200048a9190620019f0565b9081526020016040518091039020600c0160006101000a81548173ffffffffffffffffffffffffffffffffffffffff021916908373ffffffffffffffffffffffffffffffffffffffff16021790555050505050505050565b6060600360003373ffffffffffffffffffffffffffffffffffffffff1673ffffffffffffffffffffffffffffffffffffffff168152602001908152602001600020805480602002602001604051908101604052809291908181526020016000905b82821015620005f9578382906000526020600020018054620005659062001ae4565b80601f0160208091040260200160405190810160405280929190818152602001828054620005939062001ae4565b8015620005e45780601f10620005b857610100808354040283529160200191620005e4565b820191906000526020600020905b815481529060010190602001808311620005c657829003601f168201915b50505050508152602001906001019062000543565b50505050905090565b34600282604051620006159190620019f0565b9081526020016040518091039020600101600082825462000637919062001b1a565b9250508190555034600282604051620006519190620019f0565b908152602001604051809103902060090160003373ffffffffffffffffffffffffffffffffffffffff1673ffffffffffffffffffffffffffffffffffffffff1681526020019081526020016000206000828254620006b0919062001b1a565b9250508190555050565b6060600282604051620006ce9190620019f0565b90815260200160405180910390206000018054806020026020016040519081016040528092919081815260200182805480156200076157602002820191906000526020600020905b8160009054906101000a900473ffffffffffffffffffffffffffffffffffffffff1673ffffffffffffffffffffffffffffffffffffffff168152602001906001019080831162000716575b50505050509050919050565b600360205281600052604060002081815481106200078a57600080fd5b90600052602060002001600091509150508054620007a89062001ae4565b80601f0160208091040260200160405190810160405280929190818152602001828054620007d69062001ae4565b8015620008275780601f10620007fb5761010080835404028352916020019162000827565b820191906000526020600020905b8154815290600101906020018083116200080957829003601f168201915b505050505081565b600281805160208101820180518482526020830160208501208183528095505050505050600091509050806001015490806002018054620008709062001ae4565b80601f01602080910402602001604051908101604052809291908181526020018280546200089e9062001ae4565b8015620008ef5780601f10620008c357610100808354040283529160200191620008ef565b820191906000526020600020905b815481529060010190602001808311620008d157829003601f168201915b5050505050908060030154908060040154908060050154908060060154908060070160009054906101000a900473ffffffffffffffffffffffffffffffffffffffff1690806008018054620009449062001ae4565b80601f0160208091040260200160405190810160405280929190818152602001828054620009729062001ae4565b8015620009c35780601f106200099757610100808354040283529160200191620009c3565b820191906000526020600020905b815481529060010190602001808311620009a557829003601f168201915b50505050509080600a0160009054906101000a900473ffffffffffffffffffffffffffffffffffffffff169080600b01549080600c0160009054906101000a900473ffffffffffffffffffffffffffffffffffffffff1690508b565b801562000acf5760028260405162000a389190620019f0565b9081526020016040518091039020600501600081548092919062000a5c9062001a67565b91905055506002808360405162000a749190620019f0565b90815260200160405180910390206003015462000a92919062001ba6565b60028360405162000aa49190620019f0565b908152602001604051809103902060050154111562000ac95762000ac88262000b0f565b5b62000b0b565b60028260405162000ae19190620019f0565b9081526020016040518091039020600601600081548092919062000b059062001a67565b91905055505b5050565b60008054906101000a900473ffffffffffffffffffffffffffffffffffffffff16600160006101000a81548173ffffffffffffffffffffffffffffffffffffffff021916908373ffffffffffffffffffffffffffffffffffffffff160217905550600160009054906101000a900473ffffffffffffffffffffffffffffffffffffffff1673ffffffffffffffffffffffffffffffffffffffff1663d38ea5bf670de0b6b3a764000060028460405162000bc99190620019f0565b9081526020016040518091039020600b01546040518363ffffffff1660e01b815260040162000bf9919062001bde565b6000604051808303818588803b15801562000c1357600080fd5b505af115801562000c28573d6000803e3d6000fd5b50505050506000818260405162000c3f9062000ffa565b62000c4c92919062001bfb565b604051809103906000f08015801562000c69573d6000803e3d6000fd5b5090508060028360405162000c7f9190620019f0565b908152602001604051809103902060070160006101000a81548173ffffffffffffffffffffffffffffffffffffffff021916908373ffffffffffffffffffffffffffffffffffffffff1602179055508060028360405162000ce19190620019f0565b9081526020016040518091039020600a0160006101000a81548173ffffffffffffffffffffffffffffffffffffffff021916908373ffffffffffffffffffffffffffffffffffffffff16021790555060005b60028360405162000d459190620019f0565b90815260200160405180910390206000018054905081101562000f64576000670de0b6b3a764000060028560405162000d7f9190620019f0565b90815260200160405180910390206004015460028660405162000da39190620019f0565b908152602001604051809103902060090160003373ffffffffffffffffffffffffffffffffffffffff1673ffffffffffffffffffffffffffffffffffffffff1681526020019081526020016000205462000dfe919062001ba6565b62000e0a919062001c36565b905060028460405162000e1e9190620019f0565b9081526020016040518091039020600a0160009054906101000a900473ffffffffffffffffffffffffffffffffffffffff1673ffffffffffffffffffffffffffffffffffffffff1663a9059cbb60028660405162000e7d9190620019f0565b9081526020016040518091039020600001848154811062000ea35762000ea262001a09565b5b9060005260206000200160009054906101000a900473ffffffffffffffffffffffffffffffffffffffff16670de0b6b3a76400006040518363ffffffff1660e01b815260040162000ef692919062001cda565b602060405180830381600087803b15801562000f1157600080fd5b505af115801562000f26573d6000803e3d6000fd5b505050506040513d601f19601f8201168201806040525081019062000f4c919062001d1e565b5050808062000f5b9062001a67565b91505062000d33565b505050565b82805462000f779062001ae4565b90600052602060002090601f01602090048101928262000f9b576000855562000fe7565b82601f1062000fb657805160ff191683800117855562000fe7565b8280016001018555821562000fe7579182015b8281111562000fe657825182559160200191906001019062000fc9565b5b50905062000ff6919062001008565b5090565b611fb68062001d5183390190565b5b808211156200102357600081600090555060010162001009565b5090565b6000604051905090565b600080fd5b600080fd5b600080fd5b600080fd5b6000601f19601f8301169050919050565b7f4e487b7100000000000000000000000000000000000000000000000000000000600052604160045260246000fd5b620010908262001045565b810181811067ffffffffffffffff82111715620010b257620010b162001056565b5b80604052505050565b6000620010c762001027565b9050620010d5828262001085565b919050565b600067ffffffffffffffff821115620010f857620010f762001056565b5b620011038262001045565b9050602081019050919050565b82818337600083830152505050565b6000620011366200113084620010da565b620010bb565b90508281526020810184848401111562001155576200115462001040565b5b6200116284828562001110565b509392505050565b600082601f8301126200118257620011816200103b565b5b8135620011948482602086016200111f565b91505092915050565b6000819050919050565b620011b2816200119d565b8114620011be57600080fd5b50565b600081359050620011d281620011a7565b92915050565b600067ffffffffffffffff821115620011f657620011f562001056565b5b602082029050602081019050919050565b600080fd5b600073ffffffffffffffffffffffffffffffffffffffff82169050919050565b600062001239826200120c565b9050919050565b6200124b816200122c565b81146200125757600080fd5b50565b6000813590506200126b8162001240565b92915050565b6000620012886200128284620011d8565b620010bb565b90508083825260208201905060208402830185811115620012ae57620012ad62001207565b5b835b81811015620012db5780620012c688826200125a565b845260208401935050602081019050620012b0565b5050509392505050565b600082601f830112620012fd57620012fc6200103b565b5b81356200130f84826020860162001271565b91505092915050565b600080600080600080600060e0888a0312156200133a576200133962001031565b5b600088013567ffffffffffffffff8111156200135b576200135a62001036565b5b620013698a828b016200116a565b975050602088013567ffffffffffffffff8111156200138d576200138c62001036565b5b6200139b8a828b016200116a565b9650506040620013ae8a828b01620011c1565b955050606088013567ffffffffffffffff811115620013d257620013d162001036565b5b620013e08a828b01620012e5565b9450506080620013f38a828b01620011c1565b93505060a0620014068a828b01620011c1565b92505060c0620014198a828b016200125a565b91505092959891949750929550565b600081519050919050565b600082825260208201905092915050565b6000819050602082019050919050565b600081519050919050565b600082825260208201905092915050565b60005b838110156200149057808201518184015260208101905062001473565b83811115620014a0576000848401525b50505050565b6000620014b38262001454565b620014bf81856200145f565b9350620014d181856020860162001470565b620014dc8162001045565b840191505092915050565b6000620014f58383620014a6565b905092915050565b6000602082019050919050565b6000620015178262001428565b62001523818562001433565b935083602082028501620015378562001444565b8060005b85811015620015795784840389528151620015578582620014e7565b94506200156483620014fd565b925060208a019950506001810190506200153b565b50829750879550505050505092915050565b60006020820190508181036000830152620015a781846200150a565b905092915050565b600060208284031215620015c857620015c762001031565b5b600082013567ffffffffffffffff811115620015e957620015e862001036565b5b620015f7848285016200116a565b91505092915050565b600081519050919050565b600082825260208201905092915050565b6000819050602082019050919050565b62001637816200122c565b82525050565b60006200164b83836200162c565b60208301905092915050565b6000602082019050919050565b6000620016718262001600565b6200167d81856200160b565b93506200168a836200161c565b8060005b83811015620016c1578151620016a588826200163d565b9750620016b28362001657565b9250506001810190506200168e565b5085935050505092915050565b60006020820190508181036000830152620016ea818462001664565b905092915050565b600080604083850312156200170c576200170b62001031565b5b60006200171c858286016200125a565b92505060206200172f85828601620011c1565b9150509250929050565b600082825260208201905092915050565b6000620017578262001454565b62001763818562001739565b93506200177581856020860162001470565b620017808162001045565b840191505092915050565b60006020820190508181036000830152620017a781846200174a565b905092915050565b620017ba816200119d565b82525050565b6000819050919050565b6000620017eb620017e5620017df846200120c565b620017c0565b6200120c565b9050919050565b6000620017ff82620017ca565b9050919050565b60006200181382620017f2565b9050919050565b620018258162001806565b82525050565b62001836816200122c565b82525050565b60006101608201905062001854600083018e620017af565b818103602083015262001868818d6200174a565b905062001879604083018c620017af565b62001888606083018b620017af565b62001897608083018a620017af565b620018a660a0830189620017af565b620018b560c08301886200181a565b81810360e0830152620018c981876200174a565b9050620018db6101008301866200181a565b620018eb610120830185620017af565b620018fb6101408301846200182b565b9c9b505050505050505050505050565b60008115159050919050565b62001922816200190b565b81146200192e57600080fd5b50565b600081359050620019428162001917565b92915050565b6000806040838503121562001962576200196162001031565b5b600083013567ffffffffffffffff81111562001983576200198262001036565b5b62001991858286016200116a565b9250506020620019a48582860162001931565b9150509250929050565b600081905092915050565b6000620019c68262001454565b620019d28185620019ae565b9350620019e481856020860162001470565b80840191505092915050565b6000620019fe8284620019b9565b915081905092915050565b7f4e487b7100000000000000000000000000000000000000000000000000000000600052603260045260246000fd5b7f4e487b7100000000000000000000000000000000000000000000000000000000600052601160045260246000fd5b600062001a74826200119d565b91507fffffffffffffffffffffffffffffffffffffffffffffffffffffffffffffffff82141562001aaa5762001aa962001a38565b5b600182019050919050565b7f4e487b7100000000000000000000000000000000000000000000000000000000600052602260045260246000fd5b6000600282049050600182168062001afd57607f821691505b6020821081141562001b145762001b1362001ab5565b5b50919050565b600062001b27826200119d565b915062001b34836200119d565b9250827fffffffffffffffffffffffffffffffffffffffffffffffffffffffffffffffff0382111562001b6c5762001b6b62001a38565b5b828201905092915050565b7f4e487b7100000000000000000000000000000000000000000000000000000000600052601260045260246000fd5b600062001bb3826200119d565b915062001bc0836200119d565b92508262001bd35762001bd262001b77565b5b828204905092915050565b600060208201905062001bf56000830184620017af565b92915050565b6000604082019050818103600083015262001c1781856200174a565b9050818103602083015262001c2d81846200174a565b90509392505050565b600062001c43826200119d565b915062001c50836200119d565b9250817fffffffffffffffffffffffffffffffffffffffffffffffffffffffffffffffff048311821515161562001c8c5762001c8b62001a38565b5b828202905092915050565b6000819050919050565b600062001cc262001cbc62001cb68462001c97565b620017c0565b6200119d565b9050919050565b62001cd48162001ca1565b82525050565b600060408201905062001cf160008301856200182b565b62001d00602083018462001cc9565b9392505050565b60008151905062001d188162001917565b92915050565b60006020828403121562001d375762001d3662001031565b5b600062001d478482850162001d07565b9150509291505056fe60806040523480156200001157600080fd5b5060405162001fb638038062001fb6833981810160405281019062000037919062000551565b818181600390805190602001906200005192919062000304565b5080600490805190602001906200006a92919062000304565b5050506200008d62000081620000b360201b60201c565b620000bb60201b60201c565b620000ab336b033b2e3c9fd0803ce80000006200018160201b60201c565b505062000782565b600033905090565b6000600560009054906101000a900473ffffffffffffffffffffffffffffffffffffffff16905081600560006101000a81548173ffffffffffffffffffffffffffffffffffffffff021916908373ffffffffffffffffffffffffffffffffffffffff1602179055508173ffffffffffffffffffffffffffffffffffffffff168173ffffffffffffffffffffffffffffffffffffffff167f8be0079c531659141344cd1fd0a4f28419497f9722a3daafe3b4186f6b6457e060405160405180910390a35050565b600073ffffffffffffffffffffffffffffffffffffffff168273ffffffffffffffffffffffffffffffffffffffff161415620001f4576040517f08c379a0000000000000000000000000000000000000000000000000000000008152600401620001eb9062000637565b60405180910390fd5b6200020860008383620002fa60201b60201c565b80600260008282546200021c919062000692565b92505081905550806000808473ffffffffffffffffffffffffffffffffffffffff1673ffffffffffffffffffffffffffffffffffffffff168152602001908152602001600020600082825462000273919062000692565b925050819055508173ffffffffffffffffffffffffffffffffffffffff16600073ffffffffffffffffffffffffffffffffffffffff167fddf252ad1be2c89b69c2b068fc378daa952ba7f163c4a11628f55a4df523b3ef83604051620002da919062000700565b60405180910390a3620002f660008383620002ff60201b60201c565b5050565b505050565b505050565b82805462000312906200074c565b90600052602060002090601f01602090048101928262000336576000855562000382565b82601f106200035157805160ff191683800117855562000382565b8280016001018555821562000382579182015b828111156200038157825182559160200191906001019062000364565b5b50905062000391919062000395565b5090565b5b80821115620003b057600081600090555060010162000396565b5090565b6000604051905090565b600080fd5b600080fd5b600080fd5b600080fd5b6000601f19601f8301169050919050565b7f4e487b7100000000000000000000000000000000000000000000000000000000600052604160045260246000fd5b6200041d82620003d2565b810181811067ffffffffffffffff821117156200043f576200043e620003e3565b5b80604052505050565b600062000454620003b4565b905062000462828262000412565b919050565b600067ffffffffffffffff821115620004855762000484620003e3565b5b6200049082620003d2565b9050602081019050919050565b60005b83811015620004bd578082015181840152602081019050620004a0565b83811115620004cd576000848401525b50505050565b6000620004ea620004e48462000467565b62000448565b905082815260208101848484011115620005095762000508620003cd565b5b620005168482856200049d565b509392505050565b600082601f830112620005365762000535620003c8565b5b815162000548848260208601620004d3565b91505092915050565b600080604083850312156200056b576200056a620003be565b5b600083015167ffffffffffffffff8111156200058c576200058b620003c3565b5b6200059a858286016200051e565b925050602083015167ffffffffffffffff811115620005be57620005bd620003c3565b5b620005cc858286016200051e565b9150509250929050565b600082825260208201905092915050565b7f45524332303a206d696e7420746f20746865207a65726f206164647265737300600082015250565b60006200061f601f83620005d6565b91506200062c82620005e7565b602082019050919050565b60006020820190508181036000830152620006528162000610565b9050919050565b6000819050919050565b7f4e487b7100000000000000000000000000000000000000000000000000000000600052601160045260246000fd5b60006200069f8262000659565b9150620006ac8362000659565b9250827fffffffffffffffffffffffffffffffffffffffffffffffffffffffffffffffff03821115620006e457620006e362000663565b5b828201905092915050565b620006fa8162000659565b82525050565b6000602082019050620007176000830184620006ef565b92915050565b7f4e487b7100000000000000000000000000000000000000000000000000000000600052602260045260246000fd5b600060028204905060018216806200076557607f821691505b602082108114156200077c576200077b6200071d565b5b50919050565b61182480620007926000396000f3fe608060405234801561001057600080fd5b50600436106100f55760003560e01c806370a0823111610097578063a457c2d711610066578063a457c2d714610276578063a9059cbb146102a6578063dd62ed3e146102d6578063f2fde38b14610306576100f5565b806370a0823114610200578063715018a6146102305780638da5cb5b1461023a57806395d89b4114610258576100f5565b806323b872dd116100d357806323b872dd14610166578063313ce5671461019657806339509351146101b457806340c10f19146101e4576100f5565b806306fdde03146100fa578063095ea7b31461011857806318160ddd14610148575b600080fd5b610102610322565b60405161010f9190610f4a565b60405180910390f35b610132600480360381019061012d9190611005565b6103b4565b60405161013f9190611060565b60405180910390f35b6101506103d7565b60405161015d919061108a565b60405180910390f35b610180600480360381019061017b91906110a5565b6103e1565b60405161018d9190611060565b60405180910390f35b61019e610410565b6040516101ab9190611114565b60405180910390f35b6101ce60048036038101906101c99190611005565b610419565b6040516101db9190611060565b60405180910390f35b6101fe60048036038101906101f99190611005565b610450565b005b61021a6004803603810190610215919061112f565b610466565b604051610227919061108a565b60405180910390f35b6102386104ae565b005b6102426104c2565b60405161024f919061116b565b60405180910390f35b6102606104ec565b60405161026d9190610f4a565b60405180910390f35b610290600480360381019061028b9190611005565b61057e565b60405161029d9190611060565b60405180910390f35b6102c060048036038101906102bb9190611005565b6105f5565b6040516102cd9190611060565b60405180910390f35b6102f060048036038101906102eb9190611186565b610618565b6040516102fd919061108a565b60405180910390f35b610320600480360381019061031b919061112f565b61069f565b005b606060038054610331906111f5565b80601f016020809104026020016040519081016040528092919081815260200182805461035d906111f5565b80156103aa5780601f1061037f576101008083540402835291602001916103aa565b820191906000526020600020905b81548152906001019060200180831161038d57829003601f168201915b5050505050905090565b6000806103bf610723565b90506103cc81858561072b565b600191505092915050565b6000600254905090565b6000806103ec610723565b90506103f98582856108f6565b610404858585610982565b60019150509392505050565b60006012905090565b600080610424610723565b90506104458185856104368589610618565b6104409190611256565b61072b565b600191505092915050565b610458610c03565b6104628282610c81565b5050565b60008060008373ffffffffffffffffffffffffffffffffffffffff1673ffffffffffffffffffffffffffffffffffffffff168152602001908152602001600020549050919050565b6104b6610c03565b6104c06000610de1565b565b6000600560009054906101000a900473ffffffffffffffffffffffffffffffffffffffff16905090565b6060600480546104fb906111f5565b80601f0160208091040260200160405190810160405280929190818152602001828054610527906111f5565b80156105745780601f1061054957610100808354040283529160200191610574565b820191906000526020600020905b81548152906001019060200180831161055757829003601f168201915b5050505050905090565b600080610589610723565b905060006105978286610618565b9050838110156105dc576040517f08c379a00000000000000000000000000000000000000000000000000000000081526004016105d39061131e565b60405180910390fd5b6105e9828686840361072b565b60019250505092915050565b600080610600610723565b905061060d818585610982565b600191505092915050565b6000600160008473ffffffffffffffffffffffffffffffffffffffff1673ffffffffffffffffffffffffffffffffffffffff16815260200190815260200160002060008373ffffffffffffffffffffffffffffffffffffffff1673ffffffffffffffffffffffffffffffffffffffff16815260200190815260200160002054905092915050565b6106a7610c03565b600073ffffffffffffffffffffffffffffffffffffffff168173ffffffffffffffffffffffffffffffffffffffff161415610717576040517f08c379a000000000000000000000000000000000000000000000000000000000815260040161070e906113b0565b60405180910390fd5b61072081610de1565b50565b600033905090565b600073ffffffffffffffffffffffffffffffffffffffff168373ffffffffffffffffffffffffffffffffffffffff16141561079b576040517f08c379a000000000000000000000000000000000000000000000000000000000815260040161079290611442565b60405180910390fd5b600073ffffffffffffffffffffffffffffffffffffffff168273ffffffffffffffffffffffffffffffffffffffff16141561080b576040517f08c379a0000000000000000000000000000000000000000000000000000000008152600401610802906114d4565b60405180910390fd5b80600160008573ffffffffffffffffffffffffffffffffffffffff1673ffffffffffffffffffffffffffffffffffffffff16815260200190815260200160002060008473ffffffffffffffffffffffffffffffffffffffff1673ffffffffffffffffffffffffffffffffffffffff168152602001908152602001600020819055508173ffffffffffffffffffffffffffffffffffffffff168373ffffffffffffffffffffffffffffffffffffffff167f8c5be1e5ebec7d5bd14f71427d1e84f3dd0314c0f7b2291e5b200ac8c7c3b925836040516108e9919061108a565b60405180910390a3505050565b60006109028484610618565b90507fffffffffffffffffffffffffffffffffffffffffffffffffffffffffffffffff811461097c578181101561096e576040517f08c379a000000000000000000000000000000000000000000000000000000000815260040161096590611540565b60405180910390fd5b61097b848484840361072b565b5b50505050565b600073ffffffffffffffffffffffffffffffffffffffff168373ffffffffffffffffffffffffffffffffffffffff1614156109f2576040517f08c379a00000000000000000000000000000000000000000000000000000000081526004016109e9906115d2565b60405180910390fd5b600073ffffffffffffffffffffffffffffffffffffffff168273ffffffffffffffffffffffffffffffffffffffff161415610a62576040517f08c379a0000000000000000000000000000000000000000000000000000000008152600401610a5990611664565b60405180910390fd5b610a6d838383610ea7565b60008060008573ffffffffffffffffffffffffffffffffffffffff1673ffffffffffffffffffffffffffffffffffffffff16815260200190815260200160002054905081811015610af3576040517f08c379a0000000000000000000000000000000000000000000000000000000008152600401610aea906116f6565b60405180910390fd5b8181036000808673ffffffffffffffffffffffffffffffffffffffff1673ffffffffffffffffffffffffffffffffffffffff16815260200190815260200160002081905550816000808573ffffffffffffffffffffffffffffffffffffffff1673ffffffffffffffffffffffffffffffffffffffff1681526020019081526020016000206000828254610b869190611256565b925050819055508273ffffffffffffffffffffffffffffffffffffffff168473ffffffffffffffffffffffffffffffffffffffff167fddf252ad1be2c89b69c2b068fc378daa952ba7f163c4a11628f55a4df523b3ef84604051610bea919061108a565b60405180910390a3610bfd848484610eac565b50505050565b610c0b610723565b73ffffffffffffffffffffffffffffffffffffffff16610c296104c2565b73ffffffffffffffffffffffffffffffffffffffff1614610c7f576040517f08c379a0000000000000000000000000000000000000000000000000000000008152600401610c7690611762565b60405180910390fd5b565b600073ffffffffffffffffffffffffffffffffffffffff168273ffffffffffffffffffffffffffffffffffffffff161415610cf1576040517f08c379a0000000000000000000000000000000000000000000000000000000008152600401610ce8906117ce565b60405180910390fd5b610cfd60008383610ea7565b8060026000828254610d0f9190611256565b92505081905550806000808473ffffffffffffffffffffffffffffffffffffffff1673ffffffffffffffffffffffffffffffffffffffff1681526020019081526020016000206000828254610d649190611256565b925050819055508173ffffffffffffffffffffffffffffffffffffffff16600073ffffffffffffffffffffffffffffffffffffffff167fddf252ad1be2c89b69c2b068fc378daa952ba7f163c4a11628f55a4df523b3ef83604051610dc9919061108a565b60405180910390a3610ddd60008383610eac565b5050565b6000600560009054906101000a900473ffffffffffffffffffffffffffffffffffffffff16905081600560006101000a81548173ffffffffffffffffffffffffffffffffffffffff021916908373ffffffffffffffffffffffffffffffffffffffff1602179055508173ffffffffffffffffffffffffffffffffffffffff168173ffffffffffffffffffffffffffffffffffffffff167f8be0079c531659141344cd1fd0a4f28419497f9722a3daafe3b4186f6b6457e060405160405180910390a35050565b505050565b505050565b600081519050919050565b600082825260208201905092915050565b60005b83811015610eeb578082015181840152602081019050610ed0565b83811115610efa576000848401525b50505050565b6000601f19601f8301169050919050565b6000610f1c82610eb1565b610f268185610ebc565b9350610f36818560208601610ecd565b610f3f81610f00565b840191505092915050565b60006020820190508181036000830152610f648184610f11565b905092915050565b600080fd5b600073ffffffffffffffffffffffffffffffffffffffff82169050919050565b6000610f9c82610f71565b9050919050565b610fac81610f91565b8114610fb757600080fd5b50565b600081359050610fc981610fa3565b92915050565b6000819050919050565b610fe281610fcf565b8114610fed57600080fd5b50565b600081359050610fff81610fd9565b92915050565b6000806040838503121561101c5761101b610f6c565b5b600061102a85828601610fba565b925050602061103b85828601610ff0565b9150509250929050565b60008115159050919050565b61105a81611045565b82525050565b60006020820190506110756000830184611051565b92915050565b61108481610fcf565b82525050565b600060208201905061109f600083018461107b565b92915050565b6000806000606084860312156110be576110bd610f6c565b5b60006110cc86828701610fba565b93505060206110dd86828701610fba565b92505060406110ee86828701610ff0565b9150509250925092565b600060ff82169050919050565b61110e816110f8565b82525050565b60006020820190506111296000830184611105565b92915050565b60006020828403121561114557611144610f6c565b5b600061115384828501610fba565b91505092915050565b61116581610f91565b82525050565b6000602082019050611180600083018461115c565b92915050565b6000806040838503121561119d5761119c610f6c565b5b60006111ab85828601610fba565b92505060206111bc85828601610fba565b9150509250929050565b7f4e487b7100000000000000000000000000000000000000000000000000000000600052602260045260246000fd5b6000600282049050600182168061120d57607f821691505b60208210811415611221576112206111c6565b5b50919050565b7f4e487b7100000000000000000000000000000000000000000000000000000000600052601160045260246000fd5b600061126182610fcf565b915061126c83610fcf565b9250827fffffffffffffffffffffffffffffffffffffffffffffffffffffffffffffffff038211156112a1576112a0611227565b5b828201905092915050565b7f45524332303a2064656372656173656420616c6c6f77616e63652062656c6f7760008201527f207a65726f000000000000000000000000000000000000000000000000000000602082015250565b6000611308602583610ebc565b9150611313826112ac565b604082019050919050565b60006020820190508181036000830152611337816112fb565b9050919050565b7f4f776e61626c653a206e6577206f776e657220697320746865207a65726f206160008201527f6464726573730000000000000000000000000000000000000000000000000000602082015250565b600061139a602683610ebc565b91506113a58261133e565b604082019050919050565b600060208201905081810360008301526113c98161138d565b9050919050565b7f45524332303a20617070726f76652066726f6d20746865207a65726f2061646460008201527f7265737300000000000000000000000000000000000000000000000000000000602082015250565b600061142c602483610ebc565b9150611437826113d0565b604082019050919050565b6000602082019050818103600083015261145b8161141f565b9050919050565b7f45524332303a20617070726f766520746f20746865207a65726f20616464726560008201527f7373000000000000000000000000000000000000000000000000000000000000602082015250565b60006114be602283610ebc565b91506114c982611462565b604082019050919050565b600060208201905081810360008301526114ed816114b1565b9050919050565b7f45524332303a20696e73756666696369656e7420616c6c6f77616e6365000000600082015250565b600061152a601d83610ebc565b9150611535826114f4565b602082019050919050565b600060208201905081810360008301526115598161151d565b9050919050565b7f45524332303a207472616e736665722066726f6d20746865207a65726f20616460008201527f6472657373000000000000000000000000000000000000000000000000000000602082015250565b60006115bc602583610ebc565b91506115c782611560565b604082019050919050565b600060208201905081810360008301526115eb816115af565b9050919050565b7f45524332303a207472616e7366657220746f20746865207a65726f206164647260008201527f6573730000000000000000000000000000000000000000000000000000000000602082015250565b600061164e602383610ebc565b9150611659826115f2565b604082019050919050565b6000602082019050818103600083015261167d81611641565b9050919050565b7f45524332303a207472616e7366657220616d6f756e742065786365656473206260008201527f616c616e63650000000000000000000000000000000000000000000000000000602082015250565b60006116e0602683610ebc565b91506116eb82611684565b604082019050919050565b6000602082019050818103600083015261170f816116d3565b9050919050565b7f4f776e61626c653a2063616c6c6572206973206e6f7420746865206f776e6572600082015250565b600061174c602083610ebc565b915061175782611716565b602082019050919050565b6000602082019050818103600083015261177b8161173f565b9050919050565b7f45524332303a206d696e7420746f20746865207a65726f206164647265737300600082015250565b60006117b8601f83610ebc565b91506117c382611782565b602082019050919050565b600060208201905081810360008301526117e7816117ab565b905091905056fea26469706673582212200d18ab3463b76ac0807fc58beac5022090e44240729637b424ab9dce42602c1b64736f6c63430008090033a2646970667358221220bf9987ee8efe5c82eacfe356ec005ad17ea17f2e6267e478c9e5629e26ff913564736f6c63430008090033",
  "linkReferences": {},
  "deployedLinkReferences": {}
}