{
  "_format": "hh-sol-artifact-1",
  "contractName": "FundsManager",
  "sourceName": "contracts/FundsManager.sol",
  "abi": [
    {
      "inputs": [
        {
          "internalType": "string",
          "name": "_poolId",
          "type": "string"
        }
      ],
      "name": "contributeFunds",
      "outputs": [],
      "stateMutability": "payable",
      "type": "function"
    },
    {
      "inputs": [
        {
          "internalType": "string",
          "name": "_poolId",
          "type": "string"
        },
        {
          "internalType": "string",
          "name": "_poolName",
          "type": "string"
        },
        {
          "internalType": "uint256",
          "name": "_poolSize",
          "type": "uint256"
        },
        {
          "internalType": "address[]",
          "name": "_owners",
          "type": "address[]"
        },
        {
          "internalType": "uint256",
          "name": "_fundsGoal",
          "type": "uint256"
        },
        {
          "internalType": "uint256",
          "name": "_tokenId",
          "type": "uint256"
        },
        {
          "internalType": "address",
          "name": "_collectionAddress",
          "type": "address"
        }
      ],
      "name": "createPool",
      "outputs": [],
      "stateMutability": "nonpayable",
      "type": "function"
    },
    {
      "inputs": [
        {
          "internalType": "string",
          "name": "_poolId",
          "type": "string"
        }
      ],
      "name": "getPoolOwners",
      "outputs": [
        {
          "internalType": "address[]",
          "name": "",
          "type": "address[]"
        }
      ],
      "stateMutability": "view",
      "type": "function"
    },
    {
      "inputs": [
        {
          "internalType": "string",
          "name": "_poolId",
          "type": "string"
        },
        {
          "internalType": "address",
          "name": "_userAddress",
          "type": "address"
        }
      ],
      "name": "getUserContribution",
      "outputs": [
        {
          "internalType": "uint256",
          "name": "",
          "type": "uint256"
        }
      ],
      "stateMutability": "view",
      "type": "function"
    },
    {
      "inputs": [],
      "name": "getUserPools",
      "outputs": [
        {
          "internalType": "string[]",
          "name": "",
          "type": "string[]"
        }
      ],
      "stateMutability": "view",
      "type": "function"
    },
    {
      "inputs": [
        {
          "internalType": "string",
          "name": "_poolId",
          "type": "string"
        }
      ],
      "name": "isVoted",
      "outputs": [
        {
          "internalType": "bool",
          "name": "",
          "type": "bool"
        }
      ],
      "stateMutability": "view",
      "type": "function"
    },
    {
      "inputs": [
        {
          "internalType": "string",
          "name": "_poolId",
          "type": "string"
        },
        {
          "internalType": "bool",
          "name": "_isAgree",
          "type": "bool"
        }
      ],
      "name": "makeConsensus",
      "outputs": [],
      "stateMutability": "nonpayable",
      "type": "function"
    },
    {
      "inputs": [
        {
          "internalType": "address",
          "name": "",
          "type": "address"
        },
        {
          "internalType": "uint256",
          "name": "",
          "type": "uint256"
        }
      ],
      "name": "poolOwners",
      "outputs": [
        {
          "internalType": "string",
          "name": "",
          "type": "string"
        }
      ],
      "stateMutability": "view",
      "type": "function"
    },
    {
      "inputs": [
        {
          "internalType": "string",
          "name": "",
          "type": "string"
        }
      ],
      "name": "pools",
      "outputs": [
        {
          "internalType": "uint256",
          "name": "funds",
          "type": "uint256"
        },
        {
          "internalType": "string",
          "name": "poolName",
          "type": "string"
        },
        {
          "internalType": "uint256",
          "name": "poolSize",
          "type": "uint256"
        },
        {
          "internalType": "uint256",
          "name": "fundGoal",
          "type": "uint256"
        },
        {
          "internalType": "uint256",
          "name": "positiveCount",
          "type": "uint256"
        },
        {
          "internalType": "uint256",
          "name": "negativeCount",
          "type": "uint256"
        },
        {
          "internalType": "contract OwnerShipTokens",
          "name": "ownerShipTokenAddress",
          "type": "address"
        },
        {
          "internalType": "string",
          "name": "poolId",
          "type": "string"
        },
        {
          "internalType": "contract OwnerShipTokens",
          "name": "OwnerShipTokenContract",
          "type": "address"
        },
        {
          "internalType": "uint256",
          "name": "tokenId",
          "type": "uint256"
        },
        {
          "internalType": "address",
          "name": "collectionAddress",
          "type": "address"
        }
      ],
      "stateMutability": "view",
      "type": "function"
    },
    {
      "stateMutability": "payable",
      "type": "receive"
    }
  ],
  "bytecode": "0x608060405273cf7ed3acca5a467e9e704c703e8d87f634fb0fc96000806101000a81548173ffffffffffffffffffffffffffffffffffffffff021916908373ffffffffffffffffffffffffffffffffffffffff16021790555034801561006457600080fd5b50614275806100746000396000f3fe608060405260043610620000975760003560e01c80634ce6a99d11620000615780634ce6a99d14620001665780636a05e5fe14620001aa5780639d6f17a814620001ee578063dab07f43146200023c578063fe48cace146200026a576200009f565b80630b7fd92814620000a457806326f1024f14620000d25780632fe839dd14620001025780633f40c7331462000122576200009f565b366200009f57005b600080fd5b348015620000b157600080fd5b50620000d06004803603810190620000ca91906200178e565b620002ae565b005b348015620000df57600080fd5b50620000ea62000621565b604051620000f9919062001a01565b60405180910390f35b6200012060048036038101906200011a919062001a25565b62000741565b005b3480156200012f57600080fd5b506200014e600480360381019062000148919062001a25565b620007f9565b6040516200015d919062001a93565b60405180910390f35b3480156200017357600080fd5b506200019260048036038101906200018c919062001a25565b6200091f565b604051620001a1919062001b7e565b60405180910390f35b348015620001b757600080fd5b50620001d66004803603810190620001d0919062001ba2565b620009d2565b604051620001e5919062001c3b565b60405180910390f35b348015620001fb57600080fd5b506200021a600480360381019062000214919062001a25565b62000a94565b604051620002339b9a9998979695949392919062001cec565b60405180910390f35b3480156200024957600080fd5b5062000268600480360381019062000262919062001dec565b62000c84565b005b3480156200027757600080fd5b5062000296600480360381019062000290919062001e52565b62000ebb565b604051620002a5919062001eb8565b60405180910390f35b85600288604051620002c1919062001f17565b90815260200160405180910390206002019080519060200190620002e7929190620013df565b5084600288604051620002fb919062001f17565b90815260200160405180910390206003018190555060005b85811015620004ed576002886040516200032e919062001f17565b908152602001604051809103902060000185828151811062000355576200035462001f30565b5b60200260200101519080600181540180825580915050600190039060005260206000200160009091909190916101000a81548173ffffffffffffffffffffffffffffffffffffffff021916908373ffffffffffffffffffffffffffffffffffffffff16021790555060028089604051620003d0919062001f17565b9081526020016040518091039020600d016000878481518110620003f957620003f862001f30565b5b602002602001015173ffffffffffffffffffffffffffffffffffffffff1673ffffffffffffffffffffffffffffffffffffffff168152602001908152602001600020819055506003600086838151811062000459576200045862001f30565b5b602002602001015173ffffffffffffffffffffffffffffffffffffffff1673ffffffffffffffffffffffffffffffffffffffff16815260200190815260200160002088908060018154018082558091505060019003906000526020600020016000909190919091509080519060200190620004d6929190620013df565b508080620004e49062001f8e565b91505062000313565b508260028860405162000501919062001f17565b90815260200160405180910390206004018190555060048790806001815401808255809150506001900390600052602060002001600090919091909150908051906020019062000553929190620013df565b508660028860405162000567919062001f17565b908152602001604051809103902060080190805190602001906200058d929190620013df565b5081600288604051620005a1919062001f17565b9081526020016040518091039020600b018190555080600288604051620005c9919062001f17565b9081526020016040518091039020600c0160006101000a81548173ffffffffffffffffffffffffffffffffffffffff021916908373ffffffffffffffffffffffffffffffffffffffff16021790555050505050505050565b6060600360003373ffffffffffffffffffffffffffffffffffffffff1673ffffffffffffffffffffffffffffffffffffffff168152602001908152602001600020805480602002602001604051908101604052809291908181526020016000905b8282101562000738578382906000526020600020018054620006a4906200200b565b80601f0160208091040260200160405190810160405280929190818152602001828054620006d2906200200b565b8015620007235780601f10620006f75761010080835404028352916020019162000723565b820191906000526020600020905b8154815290600101906020018083116200070557829003601f168201915b50505050508152602001906001019062000682565b50505050905090565b3460028260405162000754919062001f17565b9081526020016040518091039020600101600082825462000776919062002041565b925050819055503460028260405162000790919062001f17565b908152602001604051809103902060090160003373ffffffffffffffffffffffffffffffffffffffff1673ffffffffffffffffffffffffffffffffffffffff1681526020019081526020016000206000828254620007ef919062002041565b9250508190555050565b6000806002836040516200080e919062001f17565b9081526020016040518091039020600d0160003373ffffffffffffffffffffffffffffffffffffffff1673ffffffffffffffffffffffffffffffffffffffff168152602001908152602001600020541415620008a1576040517f08c379a00000000000000000000000000000000000000000000000000000000081526004016200089890620020ee565b60405180910390fd5b6001600283604051620008b5919062001f17565b9081526020016040518091039020600d0160003373ffffffffffffffffffffffffffffffffffffffff1673ffffffffffffffffffffffffffffffffffffffff1681526020019081526020016000205414156200091557600190506200091a565b600090505b919050565b606060028260405162000933919062001f17565b9081526020016040518091039020600001805480602002602001604051908101604052809291908181526020018280548015620009c657602002820191906000526020600020905b8160009054906101000a900473ffffffffffffffffffffffffffffffffffffffff1673ffffffffffffffffffffffffffffffffffffffff16815260200190600101908083116200097b575b50505050509050919050565b60036020528160005260406000208181548110620009ef57600080fd5b9060005260206000200160009150915050805462000a0d906200200b565b80601f016020809104026020016040519081016040528092919081815260200182805462000a3b906200200b565b801562000a8c5780601f1062000a605761010080835404028352916020019162000a8c565b820191906000526020600020905b81548152906001019060200180831162000a6e57829003601f168201915b505050505081565b60028180516020810182018051848252602083016020850120818352809550505050505060009150905080600101549080600201805462000ad5906200200b565b80601f016020809104026020016040519081016040528092919081815260200182805462000b03906200200b565b801562000b545780601f1062000b285761010080835404028352916020019162000b54565b820191906000526020600020905b81548152906001019060200180831162000b3657829003601f168201915b5050505050908060030154908060040154908060050154908060060154908060070160009054906101000a900473ffffffffffffffffffffffffffffffffffffffff169080600801805462000ba9906200200b565b80601f016020809104026020016040519081016040528092919081815260200182805462000bd7906200200b565b801562000c285780601f1062000bfc5761010080835404028352916020019162000c28565b820191906000526020600020905b81548152906001019060200180831162000c0a57829003601f168201915b50505050509080600a0160009054906101000a900473ffffffffffffffffffffffffffffffffffffffff169080600b01549080600c0160009054906101000a900473ffffffffffffffffffffffffffffffffffffffff1690508b565b6002808360405162000c97919062001f17565b9081526020016040518091039020600d0160003373ffffffffffffffffffffffffffffffffffffffff1673ffffffffffffffffffffffffffffffffffffffff168152602001908152602001600020541462000d29576040517f08c379a000000000000000000000000000000000000000000000000000000000815260040162000d2090620020ee565b60405180910390fd5b801562000df757600160028360405162000d44919062001f17565b90815260200160405180910390206005015462000d62919062002041565b60028360405162000d74919062001f17565b9081526020016040518091039020600501819055506002808360405162000d9c919062001f17565b90815260200160405180910390206003015462000dba91906200213f565b60028360405162000dcc919062001f17565b908152602001604051809103902060050154111562000df15762000df08262000f26565b5b62000e51565b600160028360405162000e0b919062001f17565b90815260200160405180910390206006015462000e29919062002041565b60028360405162000e3b919062001f17565b9081526020016040518091039020600601819055505b600160028360405162000e65919062001f17565b9081526020016040518091039020600d0160003373ffffffffffffffffffffffffffffffffffffffff1673ffffffffffffffffffffffffffffffffffffffff168152602001908152602001600020819055505050565b600060028360405162000ecf919062001f17565b908152602001604051809103902060090160008373ffffffffffffffffffffffffffffffffffffffff1673ffffffffffffffffffffffffffffffffffffffff16815260200190815260200160002054905092915050565b60008054906101000a900473ffffffffffffffffffffffffffffffffffffffff16600160006101000a81548173ffffffffffffffffffffffffffffffffffffffff021916908373ffffffffffffffffffffffffffffffffffffffff160217905550600160009054906101000a900473ffffffffffffffffffffffffffffffffffffffff1673ffffffffffffffffffffffffffffffffffffffff1663d38ea5bf600160028460405162000fd9919062001f17565b9081526020016040518091039020600b015462000ff7919062002041565b6040518263ffffffff1660e01b815260040162001015919062001eb8565b600060405180830381600087803b1580156200103057600080fd5b505af115801562001045573d6000803e3d6000fd5b50505050600081826040516200105b9062001470565b6200106892919062002177565b604051809103906000f08015801562001085573d6000803e3d6000fd5b509050806002836040516200109b919062001f17565b908152602001604051809103902060070160006101000a81548173ffffffffffffffffffffffffffffffffffffffff021916908373ffffffffffffffffffffffffffffffffffffffff16021790555080600283604051620010fd919062001f17565b9081526020016040518091039020600a0160006101000a81548173ffffffffffffffffffffffffffffffffffffffff021916908373ffffffffffffffffffffffffffffffffffffffff16021790555060005b60028360405162001161919062001f17565b908152602001604051809103902060000180549050811015620013da576000670de0b6b3a76400006002856040516200119b919062001f17565b908152602001604051809103902060040154600286604051620011bf919062001f17565b90815260200160405180910390206009016000600288604051620011e4919062001f17565b908152602001604051809103902060000186815481106200120a576200120962001f30565b5b9060005260206000200160009054906101000a900473ffffffffffffffffffffffffffffffffffffffff1673ffffffffffffffffffffffffffffffffffffffff1673ffffffffffffffffffffffffffffffffffffffff168152602001908152602001600020546200127c91906200213f565b620012889190620021b2565b90506002846040516200129c919062001f17565b9081526020016040518091039020600a0160009054906101000a900473ffffffffffffffffffffffffffffffffffffffff1673ffffffffffffffffffffffffffffffffffffffff1663a9059cbb600286604051620012fb919062001f17565b9081526020016040518091039020600001848154811062001321576200132062001f30565b5b9060005260206000200160009054906101000a900473ffffffffffffffffffffffffffffffffffffffff16836040518363ffffffff1660e01b81526004016200136c92919062002213565b602060405180830381600087803b1580156200138757600080fd5b505af11580156200139c573d6000803e3d6000fd5b505050506040513d601f19601f82011682018060405250810190620013c2919062002257565b50508080620013d19062001f8e565b9150506200114f565b505050565b828054620013ed906200200b565b90600052602060002090601f0160209004810192826200141157600085556200145d565b82601f106200142c57805160ff19168380011785556200145d565b828001600101855582156200145d579182015b828111156200145c5782518255916020019190600101906200143f565b5b5090506200146c91906200147e565b5090565b611fb6806200228a83390190565b5b80821115620014995760008160009055506001016200147f565b5090565b6000604051905090565b600080fd5b600080fd5b600080fd5b600080fd5b6000601f19601f8301169050919050565b7f4e487b7100000000000000000000000000000000000000000000000000000000600052604160045260246000fd5b6200150682620014bb565b810181811067ffffffffffffffff82111715620015285762001527620014cc565b5b80604052505050565b60006200153d6200149d565b90506200154b8282620014fb565b919050565b600067ffffffffffffffff8211156200156e576200156d620014cc565b5b6200157982620014bb565b9050602081019050919050565b82818337600083830152505050565b6000620015ac620015a68462001550565b62001531565b905082815260208101848484011115620015cb57620015ca620014b6565b5b620015d884828562001586565b509392505050565b600082601f830112620015f857620015f7620014b1565b5b81356200160a84826020860162001595565b91505092915050565b6000819050919050565b620016288162001613565b81146200163457600080fd5b50565b60008135905062001648816200161d565b92915050565b600067ffffffffffffffff8211156200166c576200166b620014cc565b5b602082029050602081019050919050565b600080fd5b600073ffffffffffffffffffffffffffffffffffffffff82169050919050565b6000620016af8262001682565b9050919050565b620016c181620016a2565b8114620016cd57600080fd5b50565b600081359050620016e181620016b6565b92915050565b6000620016fe620016f8846200164e565b62001531565b905080838252602082019050602084028301858111156200172457620017236200167d565b5b835b818110156200175157806200173c8882620016d0565b84526020840193505060208101905062001726565b5050509392505050565b600082601f830112620017735762001772620014b1565b5b813562001785848260208601620016e7565b91505092915050565b600080600080600080600060e0888a031215620017b057620017af620014a7565b5b600088013567ffffffffffffffff811115620017d157620017d0620014ac565b5b620017df8a828b01620015e0565b975050602088013567ffffffffffffffff811115620018035762001802620014ac565b5b620018118a828b01620015e0565b9650506040620018248a828b0162001637565b955050606088013567ffffffffffffffff811115620018485762001847620014ac565b5b620018568a828b016200175b565b9450506080620018698a828b0162001637565b93505060a06200187c8a828b0162001637565b92505060c06200188f8a828b01620016d0565b91505092959891949750929550565b600081519050919050565b600082825260208201905092915050565b6000819050602082019050919050565b600081519050919050565b600082825260208201905092915050565b60005b8381101562001906578082015181840152602081019050620018e9565b8381111562001916576000848401525b50505050565b60006200192982620018ca565b620019358185620018d5565b935062001947818560208601620018e6565b6200195281620014bb565b840191505092915050565b60006200196b83836200191c565b905092915050565b6000602082019050919050565b60006200198d826200189e565b620019998185620018a9565b935083602082028501620019ad85620018ba565b8060005b85811015620019ef5784840389528151620019cd85826200195d565b9450620019da8362001973565b925060208a01995050600181019050620019b1565b50829750879550505050505092915050565b6000602082019050818103600083015262001a1d818462001980565b905092915050565b60006020828403121562001a3e5762001a3d620014a7565b5b600082013567ffffffffffffffff81111562001a5f5762001a5e620014ac565b5b62001a6d84828501620015e0565b91505092915050565b60008115159050919050565b62001a8d8162001a76565b82525050565b600060208201905062001aaa600083018462001a82565b92915050565b600081519050919050565b600082825260208201905092915050565b6000819050602082019050919050565b62001ae781620016a2565b82525050565b600062001afb838362001adc565b60208301905092915050565b6000602082019050919050565b600062001b218262001ab0565b62001b2d818562001abb565b935062001b3a8362001acc565b8060005b8381101562001b7157815162001b55888262001aed565b975062001b628362001b07565b92505060018101905062001b3e565b5085935050505092915050565b6000602082019050818103600083015262001b9a818462001b14565b905092915050565b6000806040838503121562001bbc5762001bbb620014a7565b5b600062001bcc85828601620016d0565b925050602062001bdf8582860162001637565b9150509250929050565b600082825260208201905092915050565b600062001c0782620018ca565b62001c13818562001be9565b935062001c25818560208601620018e6565b62001c3081620014bb565b840191505092915050565b6000602082019050818103600083015262001c57818462001bfa565b905092915050565b62001c6a8162001613565b82525050565b6000819050919050565b600062001c9b62001c9562001c8f8462001682565b62001c70565b62001682565b9050919050565b600062001caf8262001c7a565b9050919050565b600062001cc38262001ca2565b9050919050565b62001cd58162001cb6565b82525050565b62001ce681620016a2565b82525050565b60006101608201905062001d04600083018e62001c5f565b818103602083015262001d18818d62001bfa565b905062001d29604083018c62001c5f565b62001d38606083018b62001c5f565b62001d47608083018a62001c5f565b62001d5660a083018962001c5f565b62001d6560c083018862001cca565b81810360e083015262001d79818762001bfa565b905062001d8b61010083018662001cca565b62001d9b61012083018562001c5f565b62001dab61014083018462001cdb565b9c9b505050505050505050505050565b62001dc68162001a76565b811462001dd257600080fd5b50565b60008135905062001de68162001dbb565b92915050565b6000806040838503121562001e065762001e05620014a7565b5b600083013567ffffffffffffffff81111562001e275762001e26620014ac565b5b62001e3585828601620015e0565b925050602062001e488582860162001dd5565b9150509250929050565b6000806040838503121562001e6c5762001e6b620014a7565b5b600083013567ffffffffffffffff81111562001e8d5762001e8c620014ac565b5b62001e9b85828601620015e0565b925050602062001eae85828601620016d0565b9150509250929050565b600060208201905062001ecf600083018462001c5f565b92915050565b600081905092915050565b600062001eed82620018ca565b62001ef9818562001ed5565b935062001f0b818560208601620018e6565b80840191505092915050565b600062001f25828462001ee0565b915081905092915050565b7f4e487b7100000000000000000000000000000000000000000000000000000000600052603260045260246000fd5b7f4e487b7100000000000000000000000000000000000000000000000000000000600052601160045260246000fd5b600062001f9b8262001613565b91507fffffffffffffffffffffffffffffffffffffffffffffffffffffffffffffffff82141562001fd15762001fd062001f5f565b5b600182019050919050565b7f4e487b7100000000000000000000000000000000000000000000000000000000600052602260045260246000fd5b600060028204905060018216806200202457607f821691505b602082108114156200203b576200203a62001fdc565b5b50919050565b60006200204e8262001613565b91506200205b8362001613565b9250827fffffffffffffffffffffffffffffffffffffffffffffffffffffffffffffffff0382111562002093576200209262001f5f565b5b828201905092915050565b7f596f7520617265206e6f7420617574686f72697a656420746f20766f74650000600082015250565b6000620020d6601e8362001be9565b9150620020e3826200209e565b602082019050919050565b600060208201905081810360008301526200210981620020c7565b9050919050565b7f4e487b7100000000000000000000000000000000000000000000000000000000600052601260045260246000fd5b60006200214c8262001613565b9150620021598362001613565b9250826200216c576200216b62002110565b5b828204905092915050565b6000604082019050818103600083015262002193818562001bfa565b90508181036020830152620021a9818462001bfa565b90509392505050565b6000620021bf8262001613565b9150620021cc8362001613565b9250817fffffffffffffffffffffffffffffffffffffffffffffffffffffffffffffffff048311821515161562002208576200220762001f5f565b5b828202905092915050565b60006040820190506200222a600083018562001cdb565b62002239602083018462001c5f565b9392505050565b600081519050620022518162001dbb565b92915050565b60006020828403121562002270576200226f620014a7565b5b6000620022808482850162002240565b9150509291505056fe60806040523480156200001157600080fd5b5060405162001fb638038062001fb6833981810160405281019062000037919062000551565b818181600390805190602001906200005192919062000304565b5080600490805190602001906200006a92919062000304565b5050506200008d62000081620000b360201b60201c565b620000bb60201b60201c565b620000ab336b033b2e3c9fd0803ce80000006200018160201b60201c565b505062000782565b600033905090565b6000600560009054906101000a900473ffffffffffffffffffffffffffffffffffffffff16905081600560006101000a81548173ffffffffffffffffffffffffffffffffffffffff021916908373ffffffffffffffffffffffffffffffffffffffff1602179055508173ffffffffffffffffffffffffffffffffffffffff168173ffffffffffffffffffffffffffffffffffffffff167f8be0079c531659141344cd1fd0a4f28419497f9722a3daafe3b4186f6b6457e060405160405180910390a35050565b600073ffffffffffffffffffffffffffffffffffffffff168273ffffffffffffffffffffffffffffffffffffffff161415620001f4576040517f08c379a0000000000000000000000000000000000000000000000000000000008152600401620001eb9062000637565b60405180910390fd5b6200020860008383620002fa60201b60201c565b80600260008282546200021c919062000692565b92505081905550806000808473ffffffffffffffffffffffffffffffffffffffff1673ffffffffffffffffffffffffffffffffffffffff168152602001908152602001600020600082825462000273919062000692565b925050819055508173ffffffffffffffffffffffffffffffffffffffff16600073ffffffffffffffffffffffffffffffffffffffff167fddf252ad1be2c89b69c2b068fc378daa952ba7f163c4a11628f55a4df523b3ef83604051620002da919062000700565b60405180910390a3620002f660008383620002ff60201b60201c565b5050565b505050565b505050565b82805462000312906200074c565b90600052602060002090601f01602090048101928262000336576000855562000382565b82601f106200035157805160ff191683800117855562000382565b8280016001018555821562000382579182015b828111156200038157825182559160200191906001019062000364565b5b50905062000391919062000395565b5090565b5b80821115620003b057600081600090555060010162000396565b5090565b6000604051905090565b600080fd5b600080fd5b600080fd5b600080fd5b6000601f19601f8301169050919050565b7f4e487b7100000000000000000000000000000000000000000000000000000000600052604160045260246000fd5b6200041d82620003d2565b810181811067ffffffffffffffff821117156200043f576200043e620003e3565b5b80604052505050565b600062000454620003b4565b905062000462828262000412565b919050565b600067ffffffffffffffff821115620004855762000484620003e3565b5b6200049082620003d2565b9050602081019050919050565b60005b83811015620004bd578082015181840152602081019050620004a0565b83811115620004cd576000848401525b50505050565b6000620004ea620004e48462000467565b62000448565b905082815260208101848484011115620005095762000508620003cd565b5b620005168482856200049d565b509392505050565b600082601f830112620005365762000535620003c8565b5b815162000548848260208601620004d3565b91505092915050565b600080604083850312156200056b576200056a620003be565b5b600083015167ffffffffffffffff8111156200058c576200058b620003c3565b5b6200059a858286016200051e565b925050602083015167ffffffffffffffff811115620005be57620005bd620003c3565b5b620005cc858286016200051e565b9150509250929050565b600082825260208201905092915050565b7f45524332303a206d696e7420746f20746865207a65726f206164647265737300600082015250565b60006200061f601f83620005d6565b91506200062c82620005e7565b602082019050919050565b60006020820190508181036000830152620006528162000610565b9050919050565b6000819050919050565b7f4e487b7100000000000000000000000000000000000000000000000000000000600052601160045260246000fd5b60006200069f8262000659565b9150620006ac8362000659565b9250827fffffffffffffffffffffffffffffffffffffffffffffffffffffffffffffffff03821115620006e457620006e362000663565b5b828201905092915050565b620006fa8162000659565b82525050565b6000602082019050620007176000830184620006ef565b92915050565b7f4e487b7100000000000000000000000000000000000000000000000000000000600052602260045260246000fd5b600060028204905060018216806200076557607f821691505b602082108114156200077c576200077b6200071d565b5b50919050565b61182480620007926000396000f3fe608060405234801561001057600080fd5b50600436106100f55760003560e01c806370a0823111610097578063a457c2d711610066578063a457c2d714610276578063a9059cbb146102a6578063dd62ed3e146102d6578063f2fde38b14610306576100f5565b806370a0823114610200578063715018a6146102305780638da5cb5b1461023a57806395d89b4114610258576100f5565b806323b872dd116100d357806323b872dd14610166578063313ce5671461019657806339509351146101b457806340c10f19146101e4576100f5565b806306fdde03146100fa578063095ea7b31461011857806318160ddd14610148575b600080fd5b610102610322565b60405161010f9190610f4a565b60405180910390f35b610132600480360381019061012d9190611005565b6103b4565b60405161013f9190611060565b60405180910390f35b6101506103d7565b60405161015d919061108a565b60405180910390f35b610180600480360381019061017b91906110a5565b6103e1565b60405161018d9190611060565b60405180910390f35b61019e610410565b6040516101ab9190611114565b60405180910390f35b6101ce60048036038101906101c99190611005565b610419565b6040516101db9190611060565b60405180910390f35b6101fe60048036038101906101f99190611005565b610450565b005b61021a6004803603810190610215919061112f565b610466565b604051610227919061108a565b60405180910390f35b6102386104ae565b005b6102426104c2565b60405161024f919061116b565b60405180910390f35b6102606104ec565b60405161026d9190610f4a565b60405180910390f35b610290600480360381019061028b9190611005565b61057e565b60405161029d9190611060565b60405180910390f35b6102c060048036038101906102bb9190611005565b6105f5565b6040516102cd9190611060565b60405180910390f35b6102f060048036038101906102eb9190611186565b610618565b6040516102fd919061108a565b60405180910390f35b610320600480360381019061031b919061112f565b61069f565b005b606060038054610331906111f5565b80601f016020809104026020016040519081016040528092919081815260200182805461035d906111f5565b80156103aa5780601f1061037f576101008083540402835291602001916103aa565b820191906000526020600020905b81548152906001019060200180831161038d57829003601f168201915b5050505050905090565b6000806103bf610723565b90506103cc81858561072b565b600191505092915050565b6000600254905090565b6000806103ec610723565b90506103f98582856108f6565b610404858585610982565b60019150509392505050565b60006012905090565b600080610424610723565b90506104458185856104368589610618565b6104409190611256565b61072b565b600191505092915050565b610458610c03565b6104628282610c81565b5050565b60008060008373ffffffffffffffffffffffffffffffffffffffff1673ffffffffffffffffffffffffffffffffffffffff168152602001908152602001600020549050919050565b6104b6610c03565b6104c06000610de1565b565b6000600560009054906101000a900473ffffffffffffffffffffffffffffffffffffffff16905090565b6060600480546104fb906111f5565b80601f0160208091040260200160405190810160405280929190818152602001828054610527906111f5565b80156105745780601f1061054957610100808354040283529160200191610574565b820191906000526020600020905b81548152906001019060200180831161055757829003601f168201915b5050505050905090565b600080610589610723565b905060006105978286610618565b9050838110156105dc576040517f08c379a00000000000000000000000000000000000000000000000000000000081526004016105d39061131e565b60405180910390fd5b6105e9828686840361072b565b60019250505092915050565b600080610600610723565b905061060d818585610982565b600191505092915050565b6000600160008473ffffffffffffffffffffffffffffffffffffffff1673ffffffffffffffffffffffffffffffffffffffff16815260200190815260200160002060008373ffffffffffffffffffffffffffffffffffffffff1673ffffffffffffffffffffffffffffffffffffffff16815260200190815260200160002054905092915050565b6106a7610c03565b600073ffffffffffffffffffffffffffffffffffffffff168173ffffffffffffffffffffffffffffffffffffffff161415610717576040517f08c379a000000000000000000000000000000000000000000000000000000000815260040161070e906113b0565b60405180910390fd5b61072081610de1565b50565b600033905090565b600073ffffffffffffffffffffffffffffffffffffffff168373ffffffffffffffffffffffffffffffffffffffff16141561079b576040517f08c379a000000000000000000000000000000000000000000000000000000000815260040161079290611442565b60405180910390fd5b600073ffffffffffffffffffffffffffffffffffffffff168273ffffffffffffffffffffffffffffffffffffffff16141561080b576040517f08c379a0000000000000000000000000000000000000000000000000000000008152600401610802906114d4565b60405180910390fd5b80600160008573ffffffffffffffffffffffffffffffffffffffff1673ffffffffffffffffffffffffffffffffffffffff16815260200190815260200160002060008473ffffffffffffffffffffffffffffffffffffffff1673ffffffffffffffffffffffffffffffffffffffff168152602001908152602001600020819055508173ffffffffffffffffffffffffffffffffffffffff168373ffffffffffffffffffffffffffffffffffffffff167f8c5be1e5ebec7d5bd14f71427d1e84f3dd0314c0f7b2291e5b200ac8c7c3b925836040516108e9919061108a565b60405180910390a3505050565b60006109028484610618565b90507fffffffffffffffffffffffffffffffffffffffffffffffffffffffffffffffff811461097c578181101561096e576040517f08c379a000000000000000000000000000000000000000000000000000000000815260040161096590611540565b60405180910390fd5b61097b848484840361072b565b5b50505050565b600073ffffffffffffffffffffffffffffffffffffffff168373ffffffffffffffffffffffffffffffffffffffff1614156109f2576040517f08c379a00000000000000000000000000000000000000000000000000000000081526004016109e9906115d2565b60405180910390fd5b600073ffffffffffffffffffffffffffffffffffffffff168273ffffffffffffffffffffffffffffffffffffffff161415610a62576040517f08c379a0000000000000000000000000000000000000000000000000000000008152600401610a5990611664565b60405180910390fd5b610a6d838383610ea7565b60008060008573ffffffffffffffffffffffffffffffffffffffff1673ffffffffffffffffffffffffffffffffffffffff16815260200190815260200160002054905081811015610af3576040517f08c379a0000000000000000000000000000000000000000000000000000000008152600401610aea906116f6565b60405180910390fd5b8181036000808673ffffffffffffffffffffffffffffffffffffffff1673ffffffffffffffffffffffffffffffffffffffff16815260200190815260200160002081905550816000808573ffffffffffffffffffffffffffffffffffffffff1673ffffffffffffffffffffffffffffffffffffffff1681526020019081526020016000206000828254610b869190611256565b925050819055508273ffffffffffffffffffffffffffffffffffffffff168473ffffffffffffffffffffffffffffffffffffffff167fddf252ad1be2c89b69c2b068fc378daa952ba7f163c4a11628f55a4df523b3ef84604051610bea919061108a565b60405180910390a3610bfd848484610eac565b50505050565b610c0b610723565b73ffffffffffffffffffffffffffffffffffffffff16610c296104c2565b73ffffffffffffffffffffffffffffffffffffffff1614610c7f576040517f08c379a0000000000000000000000000000000000000000000000000000000008152600401610c7690611762565b60405180910390fd5b565b600073ffffffffffffffffffffffffffffffffffffffff168273ffffffffffffffffffffffffffffffffffffffff161415610cf1576040517f08c379a0000000000000000000000000000000000000000000000000000000008152600401610ce8906117ce565b60405180910390fd5b610cfd60008383610ea7565b8060026000828254610d0f9190611256565b92505081905550806000808473ffffffffffffffffffffffffffffffffffffffff1673ffffffffffffffffffffffffffffffffffffffff1681526020019081526020016000206000828254610d649190611256565b925050819055508173ffffffffffffffffffffffffffffffffffffffff16600073ffffffffffffffffffffffffffffffffffffffff167fddf252ad1be2c89b69c2b068fc378daa952ba7f163c4a11628f55a4df523b3ef83604051610dc9919061108a565b60405180910390a3610ddd60008383610eac565b5050565b6000600560009054906101000a900473ffffffffffffffffffffffffffffffffffffffff16905081600560006101000a81548173ffffffffffffffffffffffffffffffffffffffff021916908373ffffffffffffffffffffffffffffffffffffffff1602179055508173ffffffffffffffffffffffffffffffffffffffff168173ffffffffffffffffffffffffffffffffffffffff167f8be0079c531659141344cd1fd0a4f28419497f9722a3daafe3b4186f6b6457e060405160405180910390a35050565b505050565b505050565b600081519050919050565b600082825260208201905092915050565b60005b83811015610eeb578082015181840152602081019050610ed0565b83811115610efa576000848401525b50505050565b6000601f19601f8301169050919050565b6000610f1c82610eb1565b610f268185610ebc565b9350610f36818560208601610ecd565b610f3f81610f00565b840191505092915050565b60006020820190508181036000830152610f648184610f11565b905092915050565b600080fd5b600073ffffffffffffffffffffffffffffffffffffffff82169050919050565b6000610f9c82610f71565b9050919050565b610fac81610f91565b8114610fb757600080fd5b50565b600081359050610fc981610fa3565b92915050565b6000819050919050565b610fe281610fcf565b8114610fed57600080fd5b50565b600081359050610fff81610fd9565b92915050565b6000806040838503121561101c5761101b610f6c565b5b600061102a85828601610fba565b925050602061103b85828601610ff0565b9150509250929050565b60008115159050919050565b61105a81611045565b82525050565b60006020820190506110756000830184611051565b92915050565b61108481610fcf565b82525050565b600060208201905061109f600083018461107b565b92915050565b6000806000606084860312156110be576110bd610f6c565b5b60006110cc86828701610fba565b93505060206110dd86828701610fba565b92505060406110ee86828701610ff0565b9150509250925092565b600060ff82169050919050565b61110e816110f8565b82525050565b60006020820190506111296000830184611105565b92915050565b60006020828403121561114557611144610f6c565b5b600061115384828501610fba565b91505092915050565b61116581610f91565b82525050565b6000602082019050611180600083018461115c565b92915050565b6000806040838503121561119d5761119c610f6c565b5b60006111ab85828601610fba565b92505060206111bc85828601610fba565b9150509250929050565b7f4e487b7100000000000000000000000000000000000000000000000000000000600052602260045260246000fd5b6000600282049050600182168061120d57607f821691505b60208210811415611221576112206111c6565b5b50919050565b7f4e487b7100000000000000000000000000000000000000000000000000000000600052601160045260246000fd5b600061126182610fcf565b915061126c83610fcf565b9250827fffffffffffffffffffffffffffffffffffffffffffffffffffffffffffffffff038211156112a1576112a0611227565b5b828201905092915050565b7f45524332303a2064656372656173656420616c6c6f77616e63652062656c6f7760008201527f207a65726f000000000000000000000000000000000000000000000000000000602082015250565b6000611308602583610ebc565b9150611313826112ac565b604082019050919050565b60006020820190508181036000830152611337816112fb565b9050919050565b7f4f776e61626c653a206e6577206f776e657220697320746865207a65726f206160008201527f6464726573730000000000000000000000000000000000000000000000000000602082015250565b600061139a602683610ebc565b91506113a58261133e565b604082019050919050565b600060208201905081810360008301526113c98161138d565b9050919050565b7f45524332303a20617070726f76652066726f6d20746865207a65726f2061646460008201527f7265737300000000000000000000000000000000000000000000000000000000602082015250565b600061142c602483610ebc565b9150611437826113d0565b604082019050919050565b6000602082019050818103600083015261145b8161141f565b9050919050565b7f45524332303a20617070726f766520746f20746865207a65726f20616464726560008201527f7373000000000000000000000000000000000000000000000000000000000000602082015250565b60006114be602283610ebc565b91506114c982611462565b604082019050919050565b600060208201905081810360008301526114ed816114b1565b9050919050565b7f45524332303a20696e73756666696369656e7420616c6c6f77616e6365000000600082015250565b600061152a601d83610ebc565b9150611535826114f4565b602082019050919050565b600060208201905081810360008301526115598161151d565b9050919050565b7f45524332303a207472616e736665722066726f6d20746865207a65726f20616460008201527f6472657373000000000000000000000000000000000000000000000000000000602082015250565b60006115bc602583610ebc565b91506115c782611560565b604082019050919050565b600060208201905081810360008301526115eb816115af565b9050919050565b7f45524332303a207472616e7366657220746f20746865207a65726f206164647260008201527f6573730000000000000000000000000000000000000000000000000000000000602082015250565b600061164e602383610ebc565b9150611659826115f2565b604082019050919050565b6000602082019050818103600083015261167d81611641565b9050919050565b7f45524332303a207472616e7366657220616d6f756e742065786365656473206260008201527f616c616e63650000000000000000000000000000000000000000000000000000602082015250565b60006116e0602683610ebc565b91506116eb82611684565b604082019050919050565b6000602082019050818103600083015261170f816116d3565b9050919050565b7f4f776e61626c653a2063616c6c6572206973206e6f7420746865206f776e6572600082015250565b600061174c602083610ebc565b915061175782611716565b602082019050919050565b6000602082019050818103600083015261177b8161173f565b9050919050565b7f45524332303a206d696e7420746f20746865207a65726f206164647265737300600082015250565b60006117b8601f83610ebc565b91506117c382611782565b602082019050919050565b600060208201905081810360008301526117e7816117ab565b905091905056fea26469706673582212200d18ab3463b76ac0807fc58beac5022090e44240729637b424ab9dce42602c1b64736f6c63430008090033a2646970667358221220b30bd3a130e2dcd131113ee16f1cd2491fb2c5bf56b9f278f4736417023b4e2b64736f6c63430008090033",
  "linkReferences": {},
  "deployedLinkReferences": {}
}