{
  "_format": "hh-sol-artifact-1",
  "contractName": "FundsManager",
  "sourceName": "contracts/FundsManager.sol",
  "abi": [
    {
      "inputs": [
        {
          "internalType": "string",
          "name": "_poolId",
          "type": "string"
        }
      ],
      "name": "contributeFunds",
      "outputs": [],
      "stateMutability": "payable",
      "type": "function"
    },
    {
      "inputs": [
        {
          "internalType": "string",
          "name": "_poolId",
          "type": "string"
        },
        {
          "internalType": "string",
          "name": "_poolName",
          "type": "string"
        },
        {
          "internalType": "uint256",
          "name": "_poolSize",
          "type": "uint256"
        },
        {
          "internalType": "address[]",
          "name": "_owners",
          "type": "address[]"
        },
        {
          "internalType": "uint256",
          "name": "_fundsGoal",
          "type": "uint256"
        }
      ],
      "name": "createPool",
      "outputs": [],
      "stateMutability": "nonpayable",
      "type": "function"
    },
    {
      "inputs": [
        {
          "internalType": "string",
          "name": "_poolId",
          "type": "string"
        }
      ],
      "name": "getPoolOwners",
      "outputs": [
        {
          "internalType": "address[]",
          "name": "",
          "type": "address[]"
        }
      ],
      "stateMutability": "view",
      "type": "function"
    },
    {
      "inputs": [],
      "name": "getUserPools",
      "outputs": [
        {
          "internalType": "string[]",
          "name": "",
          "type": "string[]"
        }
      ],
      "stateMutability": "view",
      "type": "function"
    },
    {
      "inputs": [
        {
          "internalType": "string",
          "name": "_poolId",
          "type": "string"
        },
        {
          "internalType": "bool",
          "name": "_isAgree",
          "type": "bool"
        }
      ],
      "name": "makeConsensus",
      "outputs": [],
      "stateMutability": "nonpayable",
      "type": "function"
    },
    {
      "inputs": [
        {
          "internalType": "address",
          "name": "",
          "type": "address"
        },
        {
          "internalType": "uint256",
          "name": "",
          "type": "uint256"
        }
      ],
      "name": "poolOwners",
      "outputs": [
        {
          "internalType": "string",
          "name": "",
          "type": "string"
        }
      ],
      "stateMutability": "view",
      "type": "function"
    },
    {
      "inputs": [
        {
          "internalType": "string",
          "name": "",
          "type": "string"
        }
      ],
      "name": "pools",
      "outputs": [
        {
          "internalType": "uint256",
          "name": "funds",
          "type": "uint256"
        },
        {
          "internalType": "string",
          "name": "poolName",
          "type": "string"
        },
        {
          "internalType": "uint256",
          "name": "poolSize",
          "type": "uint256"
        },
        {
          "internalType": "uint256",
          "name": "fundGoal",
          "type": "uint256"
        },
        {
          "internalType": "uint256",
          "name": "positiveCount",
          "type": "uint256"
        },
        {
          "internalType": "uint256",
          "name": "negativeCount",
          "type": "uint256"
        },
        {
          "internalType": "contract OwnerShipTokens",
          "name": "ownerShipTokenAddress",
          "type": "address"
        },
        {
          "internalType": "string",
          "name": "poolId",
          "type": "string"
        }
      ],
      "stateMutability": "view",
      "type": "function"
    },
    {
      "stateMutability": "payable",
      "type": "receive"
    }
  ],
  "bytecode": "0x608060405273ffe9330a68e7f43b8146ac235ee3c809a5298b436000806101000a81548173ffffffffffffffffffffffffffffffffffffffff021916908373ffffffffffffffffffffffffffffffffffffffff16021790555034801561006457600080fd5b506134b6806100746000396000f3fe6080604052600436106200007f5760003560e01c80634ce6a99d11620000555780634ce6a99d146200010a5780636a05e5fe146200014e5780639d6f17a81462000192578063dab07f4314620001dd5762000087565b806326f1024f146200008c5780632a640a8114620000bc5780632fe839dd14620000ea5762000087565b366200008757005b600080fd5b3480156200009957600080fd5b50620000a46200020b565b604051620000b3919062000da3565b60405180910390f35b348015620000c957600080fd5b50620000e86004803603810190620000e29190620010a7565b6200032b565b005b6200010860048036038101906200010291906200118c565b62000573565b005b3480156200011757600080fd5b506200013660048036038101906200013091906200118c565b620005b2565b604051620001459190620012ab565b60405180910390f35b3480156200015b57600080fd5b506200017a6004803603810190620001749190620012cf565b62000665565b60405162000189919062001368565b60405180910390f35b3480156200019f57600080fd5b50620001be6004803603810190620001b891906200118c565b62000727565b604051620001d498979695949392919062001408565b60405180910390f35b348015620001ea57600080fd5b50620002096004803603810190620002039190620014e1565b620008c5565b005b6060600460003373ffffffffffffffffffffffffffffffffffffffff1673ffffffffffffffffffffffffffffffffffffffff168152602001908152602001600020805480602002602001604051908101604052809291908181526020016000905b82821015620003225783829060005260206000200180546200028e9062001576565b80601f0160208091040260200160405190810160405280929190818152602001828054620002bc9062001576565b80156200030d5780601f10620002e1576101008083540402835291602001916200030d565b820191906000526020600020905b815481529060010190602001808311620002ef57829003601f168201915b5050505050815260200190600101906200026c565b50505050905090565b836003866040516200033e9190620015ee565b908152602001604051809103902060020190805190602001906200036492919062000b71565b5082600386604051620003789190620015ee565b90815260200160405180910390206003018190555060005b838110156200045057600386604051620003ab9190620015ee565b9081526020016040518091039020600001838281518110620003d257620003d162001607565b5b60200260200101519080600181540180825580915050600190039060005260206000200160009091909190916101000a81548173ffffffffffffffffffffffffffffffffffffffff021916908373ffffffffffffffffffffffffffffffffffffffff1602179055508080620004479062001665565b91505062000390565b5080600386604051620004649190620015ee565b908152602001604051809103902060040181905550600460003373ffffffffffffffffffffffffffffffffffffffff1673ffffffffffffffffffffffffffffffffffffffff16815260200190815260200160002085908060018154018082558091505060019003906000526020600020016000909190919091509080519060200190620004f392919062000b71565b506005859080600181540180825580915050600190039060005260206000200160009091909190915090805190602001906200053192919062000b71565b5084600386604051620005459190620015ee565b908152602001604051809103902060080190805190602001906200056b92919062000b71565b505050505050565b34600382604051620005869190620015ee565b90815260200160405180910390206001016000828254620005a89190620016b3565b9250508190555050565b6060600382604051620005c69190620015ee565b90815260200160405180910390206000018054806020026020016040519081016040528092919081815260200182805480156200065957602002820191906000526020600020905b8160009054906101000a900473ffffffffffffffffffffffffffffffffffffffff1673ffffffffffffffffffffffffffffffffffffffff16815260200190600101908083116200060e575b50505050509050919050565b600460205281600052604060002081815481106200068257600080fd5b90600052602060002001600091509150508054620006a09062001576565b80601f0160208091040260200160405190810160405280929190818152602001828054620006ce9062001576565b80156200071f5780601f10620006f3576101008083540402835291602001916200071f565b820191906000526020600020905b8154815290600101906020018083116200070157829003601f168201915b505050505081565b600381805160208101820180518482526020830160208501208183528095505050505050600091509050806001015490806002018054620007689062001576565b80601f0160208091040260200160405190810160405280929190818152602001828054620007969062001576565b8015620007e75780601f10620007bb57610100808354040283529160200191620007e7565b820191906000526020600020905b815481529060010190602001808311620007c957829003601f168201915b5050505050908060030154908060040154908060050154908060060154908060070160009054906101000a900473ffffffffffffffffffffffffffffffffffffffff16908060080180546200083c9062001576565b80601f01602080910402602001604051908101604052809291908181526020018280546200086a9062001576565b8015620008bb5780601f106200088f57610100808354040283529160200191620008bb565b820191906000526020600020905b8154815290600101906020018083116200089d57829003601f168201915b5050505050905088565b80156200097657600382604051620008de9190620015ee565b90815260200160405180910390206005016000815480929190620009029062001665565b919050555060026003836040516200091b9190620015ee565b9081526020016040518091039020600301546200093991906200173f565b6003836040516200094b9190620015ee565b908152602001604051809103902060050154111562000970576200096f82620009b6565b5b620009b2565b600382604051620009889190620015ee565b90815260200160405180910390206006016000815480929190620009ac9062001665565b91905055505b5050565b60005b600382604051620009cb9190620015ee565b90815260200160405180910390206000018054905081101562000b6d5760608260008151811062000a015762000a0062001607565b5b602001015160f81c60f81b8160008151811062000a235762000a2262001607565b5b60200101907effffffffffffffffffffffffffffffffffffffffffffffffffffffffffffff1916908160001a9053508260018151811062000a695762000a6862001607565b5b602001015160f81c60f81b8160018151811062000a8b5762000a8a62001607565b5b60200101907effffffffffffffffffffffffffffffffffffffffffffffffffffffffffffff1916908160001a905350828160405162000aca9062000c02565b62000ad792919062001777565b604051809103906000f08015801562000af4573d6000803e3d6000fd5b5060038460405162000b079190620015ee565b908152602001604051809103902060070160006101000a81548173ffffffffffffffffffffffffffffffffffffffff021916908373ffffffffffffffffffffffffffffffffffffffff16021790555050808062000b649062001665565b915050620009b9565b5050565b82805462000b7f9062001576565b90600052602060002090601f01602090048101928262000ba3576000855562000bef565b82601f1062000bbe57805160ff191683800117855562000bef565b8280016001018555821562000bef579182015b8281111562000bee57825182559160200191906001019062000bd1565b5b50905062000bfe919062000c10565b5090565b611cce80620017b383390190565b5b8082111562000c2b57600081600090555060010162000c11565b5090565b600081519050919050565b600082825260208201905092915050565b6000819050602082019050919050565b600081519050919050565b600082825260208201905092915050565b60005b8381101562000c9757808201518184015260208101905062000c7a565b8381111562000ca7576000848401525b50505050565b6000601f19601f8301169050919050565b600062000ccb8262000c5b565b62000cd7818562000c66565b935062000ce981856020860162000c77565b62000cf48162000cad565b840191505092915050565b600062000d0d838362000cbe565b905092915050565b6000602082019050919050565b600062000d2f8262000c2f565b62000d3b818562000c3a565b93508360208202850162000d4f8562000c4b565b8060005b8581101562000d91578484038952815162000d6f858262000cff565b945062000d7c8362000d15565b925060208a0199505060018101905062000d53565b50829750879550505050505092915050565b6000602082019050818103600083015262000dbf818462000d22565b905092915050565b6000604051905090565b600080fd5b600080fd5b600080fd5b600080fd5b7f4e487b7100000000000000000000000000000000000000000000000000000000600052604160045260246000fd5b62000e1f8262000cad565b810181811067ffffffffffffffff8211171562000e415762000e4062000de5565b5b80604052505050565b600062000e5662000dc7565b905062000e64828262000e14565b919050565b600067ffffffffffffffff82111562000e875762000e8662000de5565b5b62000e928262000cad565b9050602081019050919050565b82818337600083830152505050565b600062000ec562000ebf8462000e69565b62000e4a565b90508281526020810184848401111562000ee45762000ee362000de0565b5b62000ef184828562000e9f565b509392505050565b600082601f83011262000f115762000f1062000ddb565b5b813562000f2384826020860162000eae565b91505092915050565b6000819050919050565b62000f418162000f2c565b811462000f4d57600080fd5b50565b60008135905062000f618162000f36565b92915050565b600067ffffffffffffffff82111562000f855762000f8462000de5565b5b602082029050602081019050919050565b600080fd5b600073ffffffffffffffffffffffffffffffffffffffff82169050919050565b600062000fc88262000f9b565b9050919050565b62000fda8162000fbb565b811462000fe657600080fd5b50565b60008135905062000ffa8162000fcf565b92915050565b600062001017620010118462000f67565b62000e4a565b905080838252602082019050602084028301858111156200103d576200103c62000f96565b5b835b818110156200106a578062001055888262000fe9565b8452602084019350506020810190506200103f565b5050509392505050565b600082601f8301126200108c576200108b62000ddb565b5b81356200109e84826020860162001000565b91505092915050565b600080600080600060a08688031215620010c657620010c562000dd1565b5b600086013567ffffffffffffffff811115620010e757620010e662000dd6565b5b620010f58882890162000ef9565b955050602086013567ffffffffffffffff81111562001119576200111862000dd6565b5b620011278882890162000ef9565b94505060406200113a8882890162000f50565b935050606086013567ffffffffffffffff8111156200115e576200115d62000dd6565b5b6200116c8882890162001074565b92505060806200117f8882890162000f50565b9150509295509295909350565b600060208284031215620011a557620011a462000dd1565b5b600082013567ffffffffffffffff811115620011c657620011c562000dd6565b5b620011d48482850162000ef9565b91505092915050565b600081519050919050565b600082825260208201905092915050565b6000819050602082019050919050565b620012148162000fbb565b82525050565b600062001228838362001209565b60208301905092915050565b6000602082019050919050565b60006200124e82620011dd565b6200125a8185620011e8565b93506200126783620011f9565b8060005b838110156200129e5781516200128288826200121a565b97506200128f8362001234565b9250506001810190506200126b565b5085935050505092915050565b60006020820190508181036000830152620012c7818462001241565b905092915050565b60008060408385031215620012e957620012e862000dd1565b5b6000620012f98582860162000fe9565b92505060206200130c8582860162000f50565b9150509250929050565b600082825260208201905092915050565b6000620013348262000c5b565b62001340818562001316565b93506200135281856020860162000c77565b6200135d8162000cad565b840191505092915050565b6000602082019050818103600083015262001384818462001327565b905092915050565b620013978162000f2c565b82525050565b6000819050919050565b6000620013c8620013c2620013bc8462000f9b565b6200139d565b62000f9b565b9050919050565b6000620013dc82620013a7565b9050919050565b6000620013f082620013cf565b9050919050565b6200140281620013e3565b82525050565b60006101008201905062001420600083018b6200138c565b818103602083015262001434818a62001327565b90506200144560408301896200138c565b6200145460608301886200138c565b6200146360808301876200138c565b6200147260a08301866200138c565b6200148160c0830185620013f7565b81810360e083015262001495818462001327565b90509998505050505050505050565b60008115159050919050565b620014bb81620014a4565b8114620014c757600080fd5b50565b600081359050620014db81620014b0565b92915050565b60008060408385031215620014fb57620014fa62000dd1565b5b600083013567ffffffffffffffff8111156200151c576200151b62000dd6565b5b6200152a8582860162000ef9565b92505060206200153d85828601620014ca565b9150509250929050565b7f4e487b7100000000000000000000000000000000000000000000000000000000600052602260045260246000fd5b600060028204905060018216806200158f57607f821691505b60208210811415620015a657620015a562001547565b5b50919050565b600081905092915050565b6000620015c48262000c5b565b620015d08185620015ac565b9350620015e281856020860162000c77565b80840191505092915050565b6000620015fc8284620015b7565b915081905092915050565b7f4e487b7100000000000000000000000000000000000000000000000000000000600052603260045260246000fd5b7f4e487b7100000000000000000000000000000000000000000000000000000000600052601160045260246000fd5b6000620016728262000f2c565b91507fffffffffffffffffffffffffffffffffffffffffffffffffffffffffffffffff821415620016a857620016a762001636565b5b600182019050919050565b6000620016c08262000f2c565b9150620016cd8362000f2c565b9250827fffffffffffffffffffffffffffffffffffffffffffffffffffffffffffffffff0382111562001705576200170462001636565b5b828201905092915050565b7f4e487b7100000000000000000000000000000000000000000000000000000000600052601260045260246000fd5b60006200174c8262000f2c565b9150620017598362000f2c565b9250826200176c576200176b62001710565b5b828204905092915050565b6000604082019050818103600083015262001793818562001327565b90508181036020830152620017a9818462001327565b9050939250505056fe60806040523480156200001157600080fd5b5060405162001cce38038062001cce8339818101604052810190620000379190620003b0565b818181600390805190602001906200005192919062000163565b5080600490805190602001906200006a92919062000163565b5050506200008d620000816200009560201b60201c565b6200009d60201b60201c565b50506200049a565b600033905090565b6000600560009054906101000a900473ffffffffffffffffffffffffffffffffffffffff16905081600560006101000a81548173ffffffffffffffffffffffffffffffffffffffff021916908373ffffffffffffffffffffffffffffffffffffffff1602179055508173ffffffffffffffffffffffffffffffffffffffff168173ffffffffffffffffffffffffffffffffffffffff167f8be0079c531659141344cd1fd0a4f28419497f9722a3daafe3b4186f6b6457e060405160405180910390a35050565b828054620001719062000464565b90600052602060002090601f016020900481019282620001955760008555620001e1565b82601f10620001b057805160ff1916838001178555620001e1565b82800160010185558215620001e1579182015b82811115620001e0578251825591602001919060010190620001c3565b5b509050620001f09190620001f4565b5090565b5b808211156200020f576000816000905550600101620001f5565b5090565b6000604051905090565b600080fd5b600080fd5b600080fd5b600080fd5b6000601f19601f8301169050919050565b7f4e487b7100000000000000000000000000000000000000000000000000000000600052604160045260246000fd5b6200027c8262000231565b810181811067ffffffffffffffff821117156200029e576200029d62000242565b5b80604052505050565b6000620002b362000213565b9050620002c1828262000271565b919050565b600067ffffffffffffffff821115620002e457620002e362000242565b5b620002ef8262000231565b9050602081019050919050565b60005b838110156200031c578082015181840152602081019050620002ff565b838111156200032c576000848401525b50505050565b6000620003496200034384620002c6565b620002a7565b9050828152602081018484840111156200036857620003676200022c565b5b62000375848285620002fc565b509392505050565b600082601f83011262000395576200039462000227565b5b8151620003a784826020860162000332565b91505092915050565b60008060408385031215620003ca57620003c96200021d565b5b600083015167ffffffffffffffff811115620003eb57620003ea62000222565b5b620003f9858286016200037d565b925050602083015167ffffffffffffffff8111156200041d576200041c62000222565b5b6200042b858286016200037d565b9150509250929050565b7f4e487b7100000000000000000000000000000000000000000000000000000000600052602260045260246000fd5b600060028204905060018216806200047d57607f821691505b6020821081141562000494576200049362000435565b5b50919050565b61182480620004aa6000396000f3fe608060405234801561001057600080fd5b50600436106100f55760003560e01c806370a0823111610097578063a457c2d711610066578063a457c2d714610276578063a9059cbb146102a6578063dd62ed3e146102d6578063f2fde38b14610306576100f5565b806370a0823114610200578063715018a6146102305780638da5cb5b1461023a57806395d89b4114610258576100f5565b806323b872dd116100d357806323b872dd14610166578063313ce5671461019657806339509351146101b457806340c10f19146101e4576100f5565b806306fdde03146100fa578063095ea7b31461011857806318160ddd14610148575b600080fd5b610102610322565b60405161010f9190610f4a565b60405180910390f35b610132600480360381019061012d9190611005565b6103b4565b60405161013f9190611060565b60405180910390f35b6101506103d7565b60405161015d919061108a565b60405180910390f35b610180600480360381019061017b91906110a5565b6103e1565b60405161018d9190611060565b60405180910390f35b61019e610410565b6040516101ab9190611114565b60405180910390f35b6101ce60048036038101906101c99190611005565b610419565b6040516101db9190611060565b60405180910390f35b6101fe60048036038101906101f99190611005565b610450565b005b61021a6004803603810190610215919061112f565b610466565b604051610227919061108a565b60405180910390f35b6102386104ae565b005b6102426104c2565b60405161024f919061116b565b60405180910390f35b6102606104ec565b60405161026d9190610f4a565b60405180910390f35b610290600480360381019061028b9190611005565b61057e565b60405161029d9190611060565b60405180910390f35b6102c060048036038101906102bb9190611005565b6105f5565b6040516102cd9190611060565b60405180910390f35b6102f060048036038101906102eb9190611186565b610618565b6040516102fd919061108a565b60405180910390f35b610320600480360381019061031b919061112f565b61069f565b005b606060038054610331906111f5565b80601f016020809104026020016040519081016040528092919081815260200182805461035d906111f5565b80156103aa5780601f1061037f576101008083540402835291602001916103aa565b820191906000526020600020905b81548152906001019060200180831161038d57829003601f168201915b5050505050905090565b6000806103bf610723565b90506103cc81858561072b565b600191505092915050565b6000600254905090565b6000806103ec610723565b90506103f98582856108f6565b610404858585610982565b60019150509392505050565b60006012905090565b600080610424610723565b90506104458185856104368589610618565b6104409190611256565b61072b565b600191505092915050565b610458610c03565b6104628282610c81565b5050565b60008060008373ffffffffffffffffffffffffffffffffffffffff1673ffffffffffffffffffffffffffffffffffffffff168152602001908152602001600020549050919050565b6104b6610c03565b6104c06000610de1565b565b6000600560009054906101000a900473ffffffffffffffffffffffffffffffffffffffff16905090565b6060600480546104fb906111f5565b80601f0160208091040260200160405190810160405280929190818152602001828054610527906111f5565b80156105745780601f1061054957610100808354040283529160200191610574565b820191906000526020600020905b81548152906001019060200180831161055757829003601f168201915b5050505050905090565b600080610589610723565b905060006105978286610618565b9050838110156105dc576040517f08c379a00000000000000000000000000000000000000000000000000000000081526004016105d39061131e565b60405180910390fd5b6105e9828686840361072b565b60019250505092915050565b600080610600610723565b905061060d818585610982565b600191505092915050565b6000600160008473ffffffffffffffffffffffffffffffffffffffff1673ffffffffffffffffffffffffffffffffffffffff16815260200190815260200160002060008373ffffffffffffffffffffffffffffffffffffffff1673ffffffffffffffffffffffffffffffffffffffff16815260200190815260200160002054905092915050565b6106a7610c03565b600073ffffffffffffffffffffffffffffffffffffffff168173ffffffffffffffffffffffffffffffffffffffff161415610717576040517f08c379a000000000000000000000000000000000000000000000000000000000815260040161070e906113b0565b60405180910390fd5b61072081610de1565b50565b600033905090565b600073ffffffffffffffffffffffffffffffffffffffff168373ffffffffffffffffffffffffffffffffffffffff16141561079b576040517f08c379a000000000000000000000000000000000000000000000000000000000815260040161079290611442565b60405180910390fd5b600073ffffffffffffffffffffffffffffffffffffffff168273ffffffffffffffffffffffffffffffffffffffff16141561080b576040517f08c379a0000000000000000000000000000000000000000000000000000000008152600401610802906114d4565b60405180910390fd5b80600160008573ffffffffffffffffffffffffffffffffffffffff1673ffffffffffffffffffffffffffffffffffffffff16815260200190815260200160002060008473ffffffffffffffffffffffffffffffffffffffff1673ffffffffffffffffffffffffffffffffffffffff168152602001908152602001600020819055508173ffffffffffffffffffffffffffffffffffffffff168373ffffffffffffffffffffffffffffffffffffffff167f8c5be1e5ebec7d5bd14f71427d1e84f3dd0314c0f7b2291e5b200ac8c7c3b925836040516108e9919061108a565b60405180910390a3505050565b60006109028484610618565b90507fffffffffffffffffffffffffffffffffffffffffffffffffffffffffffffffff811461097c578181101561096e576040517f08c379a000000000000000000000000000000000000000000000000000000000815260040161096590611540565b60405180910390fd5b61097b848484840361072b565b5b50505050565b600073ffffffffffffffffffffffffffffffffffffffff168373ffffffffffffffffffffffffffffffffffffffff1614156109f2576040517f08c379a00000000000000000000000000000000000000000000000000000000081526004016109e9906115d2565b60405180910390fd5b600073ffffffffffffffffffffffffffffffffffffffff168273ffffffffffffffffffffffffffffffffffffffff161415610a62576040517f08c379a0000000000000000000000000000000000000000000000000000000008152600401610a5990611664565b60405180910390fd5b610a6d838383610ea7565b60008060008573ffffffffffffffffffffffffffffffffffffffff1673ffffffffffffffffffffffffffffffffffffffff16815260200190815260200160002054905081811015610af3576040517f08c379a0000000000000000000000000000000000000000000000000000000008152600401610aea906116f6565b60405180910390fd5b8181036000808673ffffffffffffffffffffffffffffffffffffffff1673ffffffffffffffffffffffffffffffffffffffff16815260200190815260200160002081905550816000808573ffffffffffffffffffffffffffffffffffffffff1673ffffffffffffffffffffffffffffffffffffffff1681526020019081526020016000206000828254610b869190611256565b925050819055508273ffffffffffffffffffffffffffffffffffffffff168473ffffffffffffffffffffffffffffffffffffffff167fddf252ad1be2c89b69c2b068fc378daa952ba7f163c4a11628f55a4df523b3ef84604051610bea919061108a565b60405180910390a3610bfd848484610eac565b50505050565b610c0b610723565b73ffffffffffffffffffffffffffffffffffffffff16610c296104c2565b73ffffffffffffffffffffffffffffffffffffffff1614610c7f576040517f08c379a0000000000000000000000000000000000000000000000000000000008152600401610c7690611762565b60405180910390fd5b565b600073ffffffffffffffffffffffffffffffffffffffff168273ffffffffffffffffffffffffffffffffffffffff161415610cf1576040517f08c379a0000000000000000000000000000000000000000000000000000000008152600401610ce8906117ce565b60405180910390fd5b610cfd60008383610ea7565b8060026000828254610d0f9190611256565b92505081905550806000808473ffffffffffffffffffffffffffffffffffffffff1673ffffffffffffffffffffffffffffffffffffffff1681526020019081526020016000206000828254610d649190611256565b925050819055508173ffffffffffffffffffffffffffffffffffffffff16600073ffffffffffffffffffffffffffffffffffffffff167fddf252ad1be2c89b69c2b068fc378daa952ba7f163c4a11628f55a4df523b3ef83604051610dc9919061108a565b60405180910390a3610ddd60008383610eac565b5050565b6000600560009054906101000a900473ffffffffffffffffffffffffffffffffffffffff16905081600560006101000a81548173ffffffffffffffffffffffffffffffffffffffff021916908373ffffffffffffffffffffffffffffffffffffffff1602179055508173ffffffffffffffffffffffffffffffffffffffff168173ffffffffffffffffffffffffffffffffffffffff167f8be0079c531659141344cd1fd0a4f28419497f9722a3daafe3b4186f6b6457e060405160405180910390a35050565b505050565b505050565b600081519050919050565b600082825260208201905092915050565b60005b83811015610eeb578082015181840152602081019050610ed0565b83811115610efa576000848401525b50505050565b6000601f19601f8301169050919050565b6000610f1c82610eb1565b610f268185610ebc565b9350610f36818560208601610ecd565b610f3f81610f00565b840191505092915050565b60006020820190508181036000830152610f648184610f11565b905092915050565b600080fd5b600073ffffffffffffffffffffffffffffffffffffffff82169050919050565b6000610f9c82610f71565b9050919050565b610fac81610f91565b8114610fb757600080fd5b50565b600081359050610fc981610fa3565b92915050565b6000819050919050565b610fe281610fcf565b8114610fed57600080fd5b50565b600081359050610fff81610fd9565b92915050565b6000806040838503121561101c5761101b610f6c565b5b600061102a85828601610fba565b925050602061103b85828601610ff0565b9150509250929050565b60008115159050919050565b61105a81611045565b82525050565b60006020820190506110756000830184611051565b92915050565b61108481610fcf565b82525050565b600060208201905061109f600083018461107b565b92915050565b6000806000606084860312156110be576110bd610f6c565b5b60006110cc86828701610fba565b93505060206110dd86828701610fba565b92505060406110ee86828701610ff0565b9150509250925092565b600060ff82169050919050565b61110e816110f8565b82525050565b60006020820190506111296000830184611105565b92915050565b60006020828403121561114557611144610f6c565b5b600061115384828501610fba565b91505092915050565b61116581610f91565b82525050565b6000602082019050611180600083018461115c565b92915050565b6000806040838503121561119d5761119c610f6c565b5b60006111ab85828601610fba565b92505060206111bc85828601610fba565b9150509250929050565b7f4e487b7100000000000000000000000000000000000000000000000000000000600052602260045260246000fd5b6000600282049050600182168061120d57607f821691505b60208210811415611221576112206111c6565b5b50919050565b7f4e487b7100000000000000000000000000000000000000000000000000000000600052601160045260246000fd5b600061126182610fcf565b915061126c83610fcf565b9250827fffffffffffffffffffffffffffffffffffffffffffffffffffffffffffffffff038211156112a1576112a0611227565b5b828201905092915050565b7f45524332303a2064656372656173656420616c6c6f77616e63652062656c6f7760008201527f207a65726f000000000000000000000000000000000000000000000000000000602082015250565b6000611308602583610ebc565b9150611313826112ac565b604082019050919050565b60006020820190508181036000830152611337816112fb565b9050919050565b7f4f776e61626c653a206e6577206f776e657220697320746865207a65726f206160008201527f6464726573730000000000000000000000000000000000000000000000000000602082015250565b600061139a602683610ebc565b91506113a58261133e565b604082019050919050565b600060208201905081810360008301526113c98161138d565b9050919050565b7f45524332303a20617070726f76652066726f6d20746865207a65726f2061646460008201527f7265737300000000000000000000000000000000000000000000000000000000602082015250565b600061142c602483610ebc565b9150611437826113d0565b604082019050919050565b6000602082019050818103600083015261145b8161141f565b9050919050565b7f45524332303a20617070726f766520746f20746865207a65726f20616464726560008201527f7373000000000000000000000000000000000000000000000000000000000000602082015250565b60006114be602283610ebc565b91506114c982611462565b604082019050919050565b600060208201905081810360008301526114ed816114b1565b9050919050565b7f45524332303a20696e73756666696369656e7420616c6c6f77616e6365000000600082015250565b600061152a601d83610ebc565b9150611535826114f4565b602082019050919050565b600060208201905081810360008301526115598161151d565b9050919050565b7f45524332303a207472616e736665722066726f6d20746865207a65726f20616460008201527f6472657373000000000000000000000000000000000000000000000000000000602082015250565b60006115bc602583610ebc565b91506115c782611560565b604082019050919050565b600060208201905081810360008301526115eb816115af565b9050919050565b7f45524332303a207472616e7366657220746f20746865207a65726f206164647260008201527f6573730000000000000000000000000000000000000000000000000000000000602082015250565b600061164e602383610ebc565b9150611659826115f2565b604082019050919050565b6000602082019050818103600083015261167d81611641565b9050919050565b7f45524332303a207472616e7366657220616d6f756e742065786365656473206260008201527f616c616e63650000000000000000000000000000000000000000000000000000602082015250565b60006116e0602683610ebc565b91506116eb82611684565b604082019050919050565b6000602082019050818103600083015261170f816116d3565b9050919050565b7f4f776e61626c653a2063616c6c6572206973206e6f7420746865206f776e6572600082015250565b600061174c602083610ebc565b915061175782611716565b602082019050919050565b6000602082019050818103600083015261177b8161173f565b9050919050565b7f45524332303a206d696e7420746f20746865207a65726f206164647265737300600082015250565b60006117b8601f83610ebc565b91506117c382611782565b602082019050919050565b600060208201905081810360008301526117e7816117ab565b905091905056fea26469706673582212200eeaa7dc7a7deba9a7de25fd00f8ef67fe6969fcdb9a9cfb98a0349487e10a1c64736f6c63430008090033a26469706673582212208b1230393448722cec1ac463382ba1431a4441e82dd7b0fdab49677a7770bc8364736f6c63430008090033",
  "linkReferences": {},
  "deployedLinkReferences": {}
}