{
  "_format": "hh-sol-artifact-1",
  "contractName": "FundsManager",
  "sourceName": "contracts/FundsManager.sol",
  "abi": [
    {
      "inputs": [
        {
          "internalType": "string",
          "name": "_poolId",
          "type": "string"
        }
      ],
      "name": "contributeFunds",
      "outputs": [],
      "stateMutability": "payable",
      "type": "function"
    },
    {
      "inputs": [
        {
          "internalType": "string",
          "name": "_poolId",
          "type": "string"
        },
        {
          "internalType": "string",
          "name": "_poolName",
          "type": "string"
        },
        {
          "internalType": "uint256",
          "name": "_poolSize",
          "type": "uint256"
        },
        {
          "internalType": "address[]",
          "name": "_owners",
          "type": "address[]"
        },
        {
          "internalType": "uint256",
          "name": "_fundsGoal",
          "type": "uint256"
        },
        {
          "internalType": "uint256",
          "name": "_tokenId",
          "type": "uint256"
        }
      ],
      "name": "createPool",
      "outputs": [],
      "stateMutability": "nonpayable",
      "type": "function"
    },
    {
      "inputs": [
        {
          "internalType": "string",
          "name": "_poolId",
          "type": "string"
        }
      ],
      "name": "getPoolOwners",
      "outputs": [
        {
          "internalType": "address[]",
          "name": "",
          "type": "address[]"
        }
      ],
      "stateMutability": "view",
      "type": "function"
    },
    {
      "inputs": [],
      "name": "getUserPools",
      "outputs": [
        {
          "internalType": "string[]",
          "name": "",
          "type": "string[]"
        }
      ],
      "stateMutability": "view",
      "type": "function"
    },
    {
      "inputs": [
        {
          "internalType": "string",
          "name": "_poolId",
          "type": "string"
        },
        {
          "internalType": "bool",
          "name": "_isAgree",
          "type": "bool"
        }
      ],
      "name": "makeConsensus",
      "outputs": [],
      "stateMutability": "nonpayable",
      "type": "function"
    },
    {
      "inputs": [
        {
          "internalType": "address",
          "name": "",
          "type": "address"
        },
        {
          "internalType": "uint256",
          "name": "",
          "type": "uint256"
        }
      ],
      "name": "poolOwners",
      "outputs": [
        {
          "internalType": "string",
          "name": "",
          "type": "string"
        }
      ],
      "stateMutability": "view",
      "type": "function"
    },
    {
      "inputs": [
        {
          "internalType": "string",
          "name": "",
          "type": "string"
        }
      ],
      "name": "pools",
      "outputs": [
        {
          "internalType": "uint256",
          "name": "funds",
          "type": "uint256"
        },
        {
          "internalType": "string",
          "name": "poolName",
          "type": "string"
        },
        {
          "internalType": "uint256",
          "name": "poolSize",
          "type": "uint256"
        },
        {
          "internalType": "uint256",
          "name": "fundGoal",
          "type": "uint256"
        },
        {
          "internalType": "uint256",
          "name": "positiveCount",
          "type": "uint256"
        },
        {
          "internalType": "uint256",
          "name": "negativeCount",
          "type": "uint256"
        },
        {
          "internalType": "contract OwnerShipTokens",
          "name": "ownerShipTokenAddress",
          "type": "address"
        },
        {
          "internalType": "string",
          "name": "poolId",
          "type": "string"
        },
        {
          "internalType": "contract OwnerShipTokens",
          "name": "OwnerShipTokenContract",
          "type": "address"
        },
        {
          "internalType": "uint256",
          "name": "tokenId",
          "type": "uint256"
        }
      ],
      "stateMutability": "view",
      "type": "function"
    },
    {
      "stateMutability": "payable",
      "type": "receive"
    }
  ],
  "bytecode": "0x608060405273ffe9330a68e7f43b8146ac235ee3c809a5298b436000806101000a81548173ffffffffffffffffffffffffffffffffffffffff021916908373ffffffffffffffffffffffffffffffffffffffff16021790555034801561006457600080fd5b50613c8a806100746000396000f3fe6080604052600436106200007f5760003560e01c80636a05e5fe11620000555780636a05e5fe14620001205780639d6f17a81462000164578063dab07f4314620001b1578063efc64e3014620001df5762000087565b806326f1024f146200008c5780632fe839dd14620000bc5780634ce6a99d14620000dc5762000087565b366200008757005b600080fd5b3480156200009957600080fd5b50620000a46200020d565b604051620000b3919062001111565b60405180910390f35b620000da6004803603810190620000d491906200129a565b6200032d565b005b348015620000e957600080fd5b506200010860048036038101906200010291906200129a565b620003e5565b604051620001179190620013ed565b60405180910390f35b3480156200012d57600080fd5b506200014c60048036038101906200014691906200147d565b62000498565b6040516200015b919062001516565b60405180910390f35b3480156200017157600080fd5b506200019060048036038101906200018a91906200129a565b6200055a565b604051620001a89a99989796959493929190620015b6565b60405180910390f35b348015620001be57600080fd5b50620001dd6004803603810190620001d79190620016b1565b62000724565b005b348015620001ec57600080fd5b506200020b6004803603810190620002059190620017f2565b62000814565b005b6060600360003373ffffffffffffffffffffffffffffffffffffffff1673ffffffffffffffffffffffffffffffffffffffff168152602001908152602001600020805480602002602001604051908101604052809291908181526020016000905b828210156200032457838290600052602060002001805462000290906200191a565b80601f0160208091040260200160405190810160405280929190818152602001828054620002be906200191a565b80156200030f5780601f10620002e3576101008083540402835291602001916200030f565b820191906000526020600020905b815481529060010190602001808311620002f157829003601f168201915b5050505050815260200190600101906200026e565b50505050905090565b3460028260405162000340919062001992565b90815260200160405180910390206001016000828254620003629190620019da565b92505081905550346002826040516200037c919062001992565b908152602001604051809103902060090160003373ffffffffffffffffffffffffffffffffffffffff1673ffffffffffffffffffffffffffffffffffffffff1681526020019081526020016000206000828254620003db9190620019da565b9250508190555050565b6060600282604051620003f9919062001992565b90815260200160405180910390206000018054806020026020016040519081016040528092919081815260200182805480156200048c57602002820191906000526020600020905b8160009054906101000a900473ffffffffffffffffffffffffffffffffffffffff1673ffffffffffffffffffffffffffffffffffffffff168152602001906001019080831162000441575b50505050509050919050565b60036020528160005260406000208181548110620004b557600080fd5b90600052602060002001600091509150508054620004d3906200191a565b80601f016020809104026020016040519081016040528092919081815260200182805462000501906200191a565b8015620005525780601f10620005265761010080835404028352916020019162000552565b820191906000526020600020905b8154815290600101906020018083116200053457829003601f168201915b505050505081565b6002818051602081018201805184825260208301602085012081835280955050505050506000915090508060010154908060020180546200059b906200191a565b80601f0160208091040260200160405190810160405280929190818152602001828054620005c9906200191a565b80156200061a5780601f10620005ee576101008083540402835291602001916200061a565b820191906000526020600020905b815481529060010190602001808311620005fc57829003601f168201915b5050505050908060030154908060040154908060050154908060060154908060070160009054906101000a900473ffffffffffffffffffffffffffffffffffffffff16908060080180546200066f906200191a565b80601f01602080910402602001604051908101604052809291908181526020018280546200069d906200191a565b8015620006ee5780601f10620006c257610100808354040283529160200191620006ee565b820191906000526020600020905b815481529060010190602001808311620006d057829003601f168201915b50505050509080600a0160009054906101000a900473ffffffffffffffffffffffffffffffffffffffff169080600b015490508a565b8015620007d4576002826040516200073d919062001992565b90815260200160405180910390206005016000815480929190620007619062001a37565b91905055506002808360405162000779919062001992565b90815260200160405180910390206003015462000797919062001ab4565b600283604051620007a9919062001992565b9081526020016040518091039020600501541115620007ce57620007cd8262000a85565b5b62000810565b600282604051620007e6919062001992565b908152602001604051809103902060060160008154809291906200080a9062001a37565b91905055505b5050565b8460028760405162000827919062001992565b908152602001604051809103902060020190805190602001906200084d92919062000edf565b508360028760405162000861919062001992565b90815260200160405180910390206003018190555060005b84811015620009395760028760405162000894919062001992565b9081526020016040518091039020600001848281518110620008bb57620008ba62001aec565b5b60200260200101519080600181540180825580915050600190039060005260206000200160009091909190916101000a81548173ffffffffffffffffffffffffffffffffffffffff021916908373ffffffffffffffffffffffffffffffffffffffff1602179055508080620009309062001a37565b91505062000879565b50816002876040516200094d919062001992565b908152602001604051809103902060040181905550600360003373ffffffffffffffffffffffffffffffffffffffff1673ffffffffffffffffffffffffffffffffffffffff16815260200190815260200160002086908060018154018082558091505060019003906000526020600020016000909190919091509080519060200190620009dc92919062000edf565b5060048690806001815401808255809150506001900390600052602060002001600090919091909150908051906020019062000a1a92919062000edf565b508560028760405162000a2e919062001992565b9081526020016040518091039020600801908051906020019062000a5492919062000edf565b508060028760405162000a68919062001992565b9081526020016040518091039020600b0181905550505050505050565b60008054906101000a900473ffffffffffffffffffffffffffffffffffffffff16600160006101000a81548173ffffffffffffffffffffffffffffffffffffffff021916908373ffffffffffffffffffffffffffffffffffffffff160217905550600160009054906101000a900473ffffffffffffffffffffffffffffffffffffffff1673ffffffffffffffffffffffffffffffffffffffff1663d38ea5bf670de0b6b3a764000060028460405162000b3f919062001992565b9081526020016040518091039020600b01546040518363ffffffff1660e01b815260040162000b6f919062001b1b565b6000604051808303818588803b15801562000b8957600080fd5b505af115801562000b9e573d6000803e3d6000fd5b50505050506000818260405162000bb59062000f70565b62000bc292919062001b38565b604051809103906000f08015801562000bdf573d6000803e3d6000fd5b5090508060028360405162000bf5919062001992565b908152602001604051809103902060070160006101000a81548173ffffffffffffffffffffffffffffffffffffffff021916908373ffffffffffffffffffffffffffffffffffffffff1602179055508060028360405162000c57919062001992565b9081526020016040518091039020600a0160006101000a81548173ffffffffffffffffffffffffffffffffffffffff021916908373ffffffffffffffffffffffffffffffffffffffff16021790555060005b60028360405162000cbb919062001992565b90815260200160405180910390206000018054905081101562000eda576000670de0b6b3a764000060028560405162000cf5919062001992565b90815260200160405180910390206004015460028660405162000d19919062001992565b908152602001604051809103902060090160003373ffffffffffffffffffffffffffffffffffffffff1673ffffffffffffffffffffffffffffffffffffffff1681526020019081526020016000205462000d74919062001ab4565b62000d80919062001b73565b905060028460405162000d94919062001992565b9081526020016040518091039020600a0160009054906101000a900473ffffffffffffffffffffffffffffffffffffffff1673ffffffffffffffffffffffffffffffffffffffff1663a9059cbb60028660405162000df3919062001992565b9081526020016040518091039020600001848154811062000e195762000e1862001aec565b5b9060005260206000200160009054906101000a900473ffffffffffffffffffffffffffffffffffffffff16670de0b6b3a76400006040518363ffffffff1660e01b815260040162000e6c92919062001c28565b602060405180830381600087803b15801562000e8757600080fd5b505af115801562000e9c573d6000803e3d6000fd5b505050506040513d601f19601f8201168201806040525081019062000ec2919062001c6c565b5050808062000ed19062001a37565b91505062000ca9565b505050565b82805462000eed906200191a565b90600052602060002090601f01602090048101928262000f11576000855562000f5d565b82601f1062000f2c57805160ff191683800117855562000f5d565b8280016001018555821562000f5d579182015b8281111562000f5c57825182559160200191906001019062000f3f565b5b50905062000f6c919062000f7e565b5090565b611fb68062001c9f83390190565b5b8082111562000f9957600081600090555060010162000f7f565b5090565b600081519050919050565b600082825260208201905092915050565b6000819050602082019050919050565b600081519050919050565b600082825260208201905092915050565b60005b838110156200100557808201518184015260208101905062000fe8565b8381111562001015576000848401525b50505050565b6000601f19601f8301169050919050565b6000620010398262000fc9565b62001045818562000fd4565b93506200105781856020860162000fe5565b62001062816200101b565b840191505092915050565b60006200107b83836200102c565b905092915050565b6000602082019050919050565b60006200109d8262000f9d565b620010a9818562000fa8565b935083602082028501620010bd8562000fb9565b8060005b85811015620010ff5784840389528151620010dd85826200106d565b9450620010ea8362001083565b925060208a01995050600181019050620010c1565b50829750879550505050505092915050565b600060208201905081810360008301526200112d818462001090565b905092915050565b6000604051905090565b600080fd5b600080fd5b600080fd5b600080fd5b7f4e487b7100000000000000000000000000000000000000000000000000000000600052604160045260246000fd5b6200118d826200101b565b810181811067ffffffffffffffff82111715620011af57620011ae62001153565b5b80604052505050565b6000620011c462001135565b9050620011d2828262001182565b919050565b600067ffffffffffffffff821115620011f557620011f462001153565b5b62001200826200101b565b9050602081019050919050565b82818337600083830152505050565b6000620012336200122d84620011d7565b620011b8565b9050828152602081018484840111156200125257620012516200114e565b5b6200125f8482856200120d565b509392505050565b600082601f8301126200127f576200127e62001149565b5b8135620012918482602086016200121c565b91505092915050565b600060208284031215620012b357620012b26200113f565b5b600082013567ffffffffffffffff811115620012d457620012d362001144565b5b620012e28482850162001267565b91505092915050565b600081519050919050565b600082825260208201905092915050565b6000819050602082019050919050565b600073ffffffffffffffffffffffffffffffffffffffff82169050919050565b6000620013448262001317565b9050919050565b620013568162001337565b82525050565b60006200136a83836200134b565b60208301905092915050565b6000602082019050919050565b60006200139082620012eb565b6200139c8185620012f6565b9350620013a98362001307565b8060005b83811015620013e0578151620013c488826200135c565b9750620013d18362001376565b925050600181019050620013ad565b5085935050505092915050565b6000602082019050818103600083015262001409818462001383565b905092915050565b6200141c8162001337565b81146200142857600080fd5b50565b6000813590506200143c8162001411565b92915050565b6000819050919050565b620014578162001442565b81146200146357600080fd5b50565b60008135905062001477816200144c565b92915050565b600080604083850312156200149757620014966200113f565b5b6000620014a7858286016200142b565b9250506020620014ba8582860162001466565b9150509250929050565b600082825260208201905092915050565b6000620014e28262000fc9565b620014ee8185620014c4565b93506200150081856020860162000fe5565b6200150b816200101b565b840191505092915050565b60006020820190508181036000830152620015328184620014d5565b905092915050565b620015458162001442565b82525050565b6000819050919050565b600062001576620015706200156a8462001317565b6200154b565b62001317565b9050919050565b60006200158a8262001555565b9050919050565b60006200159e826200157d565b9050919050565b620015b08162001591565b82525050565b600061014082019050620015ce600083018d6200153a565b8181036020830152620015e2818c620014d5565b9050620015f3604083018b6200153a565b62001602606083018a6200153a565b6200161160808301896200153a565b6200162060a08301886200153a565b6200162f60c0830187620015a5565b81810360e0830152620016438186620014d5565b905062001655610100830185620015a5565b620016656101208301846200153a565b9b9a5050505050505050505050565b60008115159050919050565b6200168b8162001674565b81146200169757600080fd5b50565b600081359050620016ab8162001680565b92915050565b60008060408385031215620016cb57620016ca6200113f565b5b600083013567ffffffffffffffff811115620016ec57620016eb62001144565b5b620016fa8582860162001267565b92505060206200170d858286016200169a565b9150509250929050565b600067ffffffffffffffff82111562001735576200173462001153565b5b602082029050602081019050919050565b600080fd5b6000620017626200175c8462001717565b620011b8565b9050808382526020820190506020840283018581111562001788576200178762001746565b5b835b81811015620017b55780620017a088826200142b565b8452602084019350506020810190506200178a565b5050509392505050565b600082601f830112620017d757620017d662001149565b5b8135620017e98482602086016200174b565b91505092915050565b60008060008060008060c087890312156200181257620018116200113f565b5b600087013567ffffffffffffffff81111562001833576200183262001144565b5b6200184189828a0162001267565b965050602087013567ffffffffffffffff81111562001865576200186462001144565b5b6200187389828a0162001267565b95505060406200188689828a0162001466565b945050606087013567ffffffffffffffff811115620018aa57620018a962001144565b5b620018b889828a01620017bf565b9350506080620018cb89828a0162001466565b92505060a0620018de89828a0162001466565b9150509295509295509295565b7f4e487b7100000000000000000000000000000000000000000000000000000000600052602260045260246000fd5b600060028204905060018216806200193357607f821691505b602082108114156200194a5762001949620018eb565b5b50919050565b600081905092915050565b6000620019688262000fc9565b62001974818562001950565b93506200198681856020860162000fe5565b80840191505092915050565b6000620019a082846200195b565b915081905092915050565b7f4e487b7100000000000000000000000000000000000000000000000000000000600052601160045260246000fd5b6000620019e78262001442565b9150620019f48362001442565b9250827fffffffffffffffffffffffffffffffffffffffffffffffffffffffffffffffff0382111562001a2c5762001a2b620019ab565b5b828201905092915050565b600062001a448262001442565b91507fffffffffffffffffffffffffffffffffffffffffffffffffffffffffffffffff82141562001a7a5762001a79620019ab565b5b600182019050919050565b7f4e487b7100000000000000000000000000000000000000000000000000000000600052601260045260246000fd5b600062001ac18262001442565b915062001ace8362001442565b92508262001ae15762001ae062001a85565b5b828204905092915050565b7f4e487b7100000000000000000000000000000000000000000000000000000000600052603260045260246000fd5b600060208201905062001b3260008301846200153a565b92915050565b6000604082019050818103600083015262001b548185620014d5565b9050818103602083015262001b6a8184620014d5565b90509392505050565b600062001b808262001442565b915062001b8d8362001442565b9250817fffffffffffffffffffffffffffffffffffffffffffffffffffffffffffffffff048311821515161562001bc95762001bc8620019ab565b5b828202905092915050565b62001bdf8162001337565b82525050565b6000819050919050565b600062001c1062001c0a62001c048462001be5565b6200154b565b62001442565b9050919050565b62001c228162001bef565b82525050565b600060408201905062001c3f600083018562001bd4565b62001c4e602083018462001c17565b9392505050565b60008151905062001c668162001680565b92915050565b60006020828403121562001c855762001c846200113f565b5b600062001c958482850162001c55565b9150509291505056fe60806040523480156200001157600080fd5b5060405162001fb638038062001fb6833981810160405281019062000037919062000551565b818181600390805190602001906200005192919062000304565b5080600490805190602001906200006a92919062000304565b5050506200008d62000081620000b360201b60201c565b620000bb60201b60201c565b620000ab336b033b2e3c9fd0803ce80000006200018160201b60201c565b505062000782565b600033905090565b6000600560009054906101000a900473ffffffffffffffffffffffffffffffffffffffff16905081600560006101000a81548173ffffffffffffffffffffffffffffffffffffffff021916908373ffffffffffffffffffffffffffffffffffffffff1602179055508173ffffffffffffffffffffffffffffffffffffffff168173ffffffffffffffffffffffffffffffffffffffff167f8be0079c531659141344cd1fd0a4f28419497f9722a3daafe3b4186f6b6457e060405160405180910390a35050565b600073ffffffffffffffffffffffffffffffffffffffff168273ffffffffffffffffffffffffffffffffffffffff161415620001f4576040517f08c379a0000000000000000000000000000000000000000000000000000000008152600401620001eb9062000637565b60405180910390fd5b6200020860008383620002fa60201b60201c565b80600260008282546200021c919062000692565b92505081905550806000808473ffffffffffffffffffffffffffffffffffffffff1673ffffffffffffffffffffffffffffffffffffffff168152602001908152602001600020600082825462000273919062000692565b925050819055508173ffffffffffffffffffffffffffffffffffffffff16600073ffffffffffffffffffffffffffffffffffffffff167fddf252ad1be2c89b69c2b068fc378daa952ba7f163c4a11628f55a4df523b3ef83604051620002da919062000700565b60405180910390a3620002f660008383620002ff60201b60201c565b5050565b505050565b505050565b82805462000312906200074c565b90600052602060002090601f01602090048101928262000336576000855562000382565b82601f106200035157805160ff191683800117855562000382565b8280016001018555821562000382579182015b828111156200038157825182559160200191906001019062000364565b5b50905062000391919062000395565b5090565b5b80821115620003b057600081600090555060010162000396565b5090565b6000604051905090565b600080fd5b600080fd5b600080fd5b600080fd5b6000601f19601f8301169050919050565b7f4e487b7100000000000000000000000000000000000000000000000000000000600052604160045260246000fd5b6200041d82620003d2565b810181811067ffffffffffffffff821117156200043f576200043e620003e3565b5b80604052505050565b600062000454620003b4565b905062000462828262000412565b919050565b600067ffffffffffffffff821115620004855762000484620003e3565b5b6200049082620003d2565b9050602081019050919050565b60005b83811015620004bd578082015181840152602081019050620004a0565b83811115620004cd576000848401525b50505050565b6000620004ea620004e48462000467565b62000448565b905082815260208101848484011115620005095762000508620003cd565b5b620005168482856200049d565b509392505050565b600082601f830112620005365762000535620003c8565b5b815162000548848260208601620004d3565b91505092915050565b600080604083850312156200056b576200056a620003be565b5b600083015167ffffffffffffffff8111156200058c576200058b620003c3565b5b6200059a858286016200051e565b925050602083015167ffffffffffffffff811115620005be57620005bd620003c3565b5b620005cc858286016200051e565b9150509250929050565b600082825260208201905092915050565b7f45524332303a206d696e7420746f20746865207a65726f206164647265737300600082015250565b60006200061f601f83620005d6565b91506200062c82620005e7565b602082019050919050565b60006020820190508181036000830152620006528162000610565b9050919050565b6000819050919050565b7f4e487b7100000000000000000000000000000000000000000000000000000000600052601160045260246000fd5b60006200069f8262000659565b9150620006ac8362000659565b9250827fffffffffffffffffffffffffffffffffffffffffffffffffffffffffffffffff03821115620006e457620006e362000663565b5b828201905092915050565b620006fa8162000659565b82525050565b6000602082019050620007176000830184620006ef565b92915050565b7f4e487b7100000000000000000000000000000000000000000000000000000000600052602260045260246000fd5b600060028204905060018216806200076557607f821691505b602082108114156200077c576200077b6200071d565b5b50919050565b61182480620007926000396000f3fe608060405234801561001057600080fd5b50600436106100f55760003560e01c806370a0823111610097578063a457c2d711610066578063a457c2d714610276578063a9059cbb146102a6578063dd62ed3e146102d6578063f2fde38b14610306576100f5565b806370a0823114610200578063715018a6146102305780638da5cb5b1461023a57806395d89b4114610258576100f5565b806323b872dd116100d357806323b872dd14610166578063313ce5671461019657806339509351146101b457806340c10f19146101e4576100f5565b806306fdde03146100fa578063095ea7b31461011857806318160ddd14610148575b600080fd5b610102610322565b60405161010f9190610f4a565b60405180910390f35b610132600480360381019061012d9190611005565b6103b4565b60405161013f9190611060565b60405180910390f35b6101506103d7565b60405161015d919061108a565b60405180910390f35b610180600480360381019061017b91906110a5565b6103e1565b60405161018d9190611060565b60405180910390f35b61019e610410565b6040516101ab9190611114565b60405180910390f35b6101ce60048036038101906101c99190611005565b610419565b6040516101db9190611060565b60405180910390f35b6101fe60048036038101906101f99190611005565b610450565b005b61021a6004803603810190610215919061112f565b610466565b604051610227919061108a565b60405180910390f35b6102386104ae565b005b6102426104c2565b60405161024f919061116b565b60405180910390f35b6102606104ec565b60405161026d9190610f4a565b60405180910390f35b610290600480360381019061028b9190611005565b61057e565b60405161029d9190611060565b60405180910390f35b6102c060048036038101906102bb9190611005565b6105f5565b6040516102cd9190611060565b60405180910390f35b6102f060048036038101906102eb9190611186565b610618565b6040516102fd919061108a565b60405180910390f35b610320600480360381019061031b919061112f565b61069f565b005b606060038054610331906111f5565b80601f016020809104026020016040519081016040528092919081815260200182805461035d906111f5565b80156103aa5780601f1061037f576101008083540402835291602001916103aa565b820191906000526020600020905b81548152906001019060200180831161038d57829003601f168201915b5050505050905090565b6000806103bf610723565b90506103cc81858561072b565b600191505092915050565b6000600254905090565b6000806103ec610723565b90506103f98582856108f6565b610404858585610982565b60019150509392505050565b60006012905090565b600080610424610723565b90506104458185856104368589610618565b6104409190611256565b61072b565b600191505092915050565b610458610c03565b6104628282610c81565b5050565b60008060008373ffffffffffffffffffffffffffffffffffffffff1673ffffffffffffffffffffffffffffffffffffffff168152602001908152602001600020549050919050565b6104b6610c03565b6104c06000610de1565b565b6000600560009054906101000a900473ffffffffffffffffffffffffffffffffffffffff16905090565b6060600480546104fb906111f5565b80601f0160208091040260200160405190810160405280929190818152602001828054610527906111f5565b80156105745780601f1061054957610100808354040283529160200191610574565b820191906000526020600020905b81548152906001019060200180831161055757829003601f168201915b5050505050905090565b600080610589610723565b905060006105978286610618565b9050838110156105dc576040517f08c379a00000000000000000000000000000000000000000000000000000000081526004016105d39061131e565b60405180910390fd5b6105e9828686840361072b565b60019250505092915050565b600080610600610723565b905061060d818585610982565b600191505092915050565b6000600160008473ffffffffffffffffffffffffffffffffffffffff1673ffffffffffffffffffffffffffffffffffffffff16815260200190815260200160002060008373ffffffffffffffffffffffffffffffffffffffff1673ffffffffffffffffffffffffffffffffffffffff16815260200190815260200160002054905092915050565b6106a7610c03565b600073ffffffffffffffffffffffffffffffffffffffff168173ffffffffffffffffffffffffffffffffffffffff161415610717576040517f08c379a000000000000000000000000000000000000000000000000000000000815260040161070e906113b0565b60405180910390fd5b61072081610de1565b50565b600033905090565b600073ffffffffffffffffffffffffffffffffffffffff168373ffffffffffffffffffffffffffffffffffffffff16141561079b576040517f08c379a000000000000000000000000000000000000000000000000000000000815260040161079290611442565b60405180910390fd5b600073ffffffffffffffffffffffffffffffffffffffff168273ffffffffffffffffffffffffffffffffffffffff16141561080b576040517f08c379a0000000000000000000000000000000000000000000000000000000008152600401610802906114d4565b60405180910390fd5b80600160008573ffffffffffffffffffffffffffffffffffffffff1673ffffffffffffffffffffffffffffffffffffffff16815260200190815260200160002060008473ffffffffffffffffffffffffffffffffffffffff1673ffffffffffffffffffffffffffffffffffffffff168152602001908152602001600020819055508173ffffffffffffffffffffffffffffffffffffffff168373ffffffffffffffffffffffffffffffffffffffff167f8c5be1e5ebec7d5bd14f71427d1e84f3dd0314c0f7b2291e5b200ac8c7c3b925836040516108e9919061108a565b60405180910390a3505050565b60006109028484610618565b90507fffffffffffffffffffffffffffffffffffffffffffffffffffffffffffffffff811461097c578181101561096e576040517f08c379a000000000000000000000000000000000000000000000000000000000815260040161096590611540565b60405180910390fd5b61097b848484840361072b565b5b50505050565b600073ffffffffffffffffffffffffffffffffffffffff168373ffffffffffffffffffffffffffffffffffffffff1614156109f2576040517f08c379a00000000000000000000000000000000000000000000000000000000081526004016109e9906115d2565b60405180910390fd5b600073ffffffffffffffffffffffffffffffffffffffff168273ffffffffffffffffffffffffffffffffffffffff161415610a62576040517f08c379a0000000000000000000000000000000000000000000000000000000008152600401610a5990611664565b60405180910390fd5b610a6d838383610ea7565b60008060008573ffffffffffffffffffffffffffffffffffffffff1673ffffffffffffffffffffffffffffffffffffffff16815260200190815260200160002054905081811015610af3576040517f08c379a0000000000000000000000000000000000000000000000000000000008152600401610aea906116f6565b60405180910390fd5b8181036000808673ffffffffffffffffffffffffffffffffffffffff1673ffffffffffffffffffffffffffffffffffffffff16815260200190815260200160002081905550816000808573ffffffffffffffffffffffffffffffffffffffff1673ffffffffffffffffffffffffffffffffffffffff1681526020019081526020016000206000828254610b869190611256565b925050819055508273ffffffffffffffffffffffffffffffffffffffff168473ffffffffffffffffffffffffffffffffffffffff167fddf252ad1be2c89b69c2b068fc378daa952ba7f163c4a11628f55a4df523b3ef84604051610bea919061108a565b60405180910390a3610bfd848484610eac565b50505050565b610c0b610723565b73ffffffffffffffffffffffffffffffffffffffff16610c296104c2565b73ffffffffffffffffffffffffffffffffffffffff1614610c7f576040517f08c379a0000000000000000000000000000000000000000000000000000000008152600401610c7690611762565b60405180910390fd5b565b600073ffffffffffffffffffffffffffffffffffffffff168273ffffffffffffffffffffffffffffffffffffffff161415610cf1576040517f08c379a0000000000000000000000000000000000000000000000000000000008152600401610ce8906117ce565b60405180910390fd5b610cfd60008383610ea7565b8060026000828254610d0f9190611256565b92505081905550806000808473ffffffffffffffffffffffffffffffffffffffff1673ffffffffffffffffffffffffffffffffffffffff1681526020019081526020016000206000828254610d649190611256565b925050819055508173ffffffffffffffffffffffffffffffffffffffff16600073ffffffffffffffffffffffffffffffffffffffff167fddf252ad1be2c89b69c2b068fc378daa952ba7f163c4a11628f55a4df523b3ef83604051610dc9919061108a565b60405180910390a3610ddd60008383610eac565b5050565b6000600560009054906101000a900473ffffffffffffffffffffffffffffffffffffffff16905081600560006101000a81548173ffffffffffffffffffffffffffffffffffffffff021916908373ffffffffffffffffffffffffffffffffffffffff1602179055508173ffffffffffffffffffffffffffffffffffffffff168173ffffffffffffffffffffffffffffffffffffffff167f8be0079c531659141344cd1fd0a4f28419497f9722a3daafe3b4186f6b6457e060405160405180910390a35050565b505050565b505050565b600081519050919050565b600082825260208201905092915050565b60005b83811015610eeb578082015181840152602081019050610ed0565b83811115610efa576000848401525b50505050565b6000601f19601f8301169050919050565b6000610f1c82610eb1565b610f268185610ebc565b9350610f36818560208601610ecd565b610f3f81610f00565b840191505092915050565b60006020820190508181036000830152610f648184610f11565b905092915050565b600080fd5b600073ffffffffffffffffffffffffffffffffffffffff82169050919050565b6000610f9c82610f71565b9050919050565b610fac81610f91565b8114610fb757600080fd5b50565b600081359050610fc981610fa3565b92915050565b6000819050919050565b610fe281610fcf565b8114610fed57600080fd5b50565b600081359050610fff81610fd9565b92915050565b6000806040838503121561101c5761101b610f6c565b5b600061102a85828601610fba565b925050602061103b85828601610ff0565b9150509250929050565b60008115159050919050565b61105a81611045565b82525050565b60006020820190506110756000830184611051565b92915050565b61108481610fcf565b82525050565b600060208201905061109f600083018461107b565b92915050565b6000806000606084860312156110be576110bd610f6c565b5b60006110cc86828701610fba565b93505060206110dd86828701610fba565b92505060406110ee86828701610ff0565b9150509250925092565b600060ff82169050919050565b61110e816110f8565b82525050565b60006020820190506111296000830184611105565b92915050565b60006020828403121561114557611144610f6c565b5b600061115384828501610fba565b91505092915050565b61116581610f91565b82525050565b6000602082019050611180600083018461115c565b92915050565b6000806040838503121561119d5761119c610f6c565b5b60006111ab85828601610fba565b92505060206111bc85828601610fba565b9150509250929050565b7f4e487b7100000000000000000000000000000000000000000000000000000000600052602260045260246000fd5b6000600282049050600182168061120d57607f821691505b60208210811415611221576112206111c6565b5b50919050565b7f4e487b7100000000000000000000000000000000000000000000000000000000600052601160045260246000fd5b600061126182610fcf565b915061126c83610fcf565b9250827fffffffffffffffffffffffffffffffffffffffffffffffffffffffffffffffff038211156112a1576112a0611227565b5b828201905092915050565b7f45524332303a2064656372656173656420616c6c6f77616e63652062656c6f7760008201527f207a65726f000000000000000000000000000000000000000000000000000000602082015250565b6000611308602583610ebc565b9150611313826112ac565b604082019050919050565b60006020820190508181036000830152611337816112fb565b9050919050565b7f4f776e61626c653a206e6577206f776e657220697320746865207a65726f206160008201527f6464726573730000000000000000000000000000000000000000000000000000602082015250565b600061139a602683610ebc565b91506113a58261133e565b604082019050919050565b600060208201905081810360008301526113c98161138d565b9050919050565b7f45524332303a20617070726f76652066726f6d20746865207a65726f2061646460008201527f7265737300000000000000000000000000000000000000000000000000000000602082015250565b600061142c602483610ebc565b9150611437826113d0565b604082019050919050565b6000602082019050818103600083015261145b8161141f565b9050919050565b7f45524332303a20617070726f766520746f20746865207a65726f20616464726560008201527f7373000000000000000000000000000000000000000000000000000000000000602082015250565b60006114be602283610ebc565b91506114c982611462565b604082019050919050565b600060208201905081810360008301526114ed816114b1565b9050919050565b7f45524332303a20696e73756666696369656e7420616c6c6f77616e6365000000600082015250565b600061152a601d83610ebc565b9150611535826114f4565b602082019050919050565b600060208201905081810360008301526115598161151d565b9050919050565b7f45524332303a207472616e736665722066726f6d20746865207a65726f20616460008201527f6472657373000000000000000000000000000000000000000000000000000000602082015250565b60006115bc602583610ebc565b91506115c782611560565b604082019050919050565b600060208201905081810360008301526115eb816115af565b9050919050565b7f45524332303a207472616e7366657220746f20746865207a65726f206164647260008201527f6573730000000000000000000000000000000000000000000000000000000000602082015250565b600061164e602383610ebc565b9150611659826115f2565b604082019050919050565b6000602082019050818103600083015261167d81611641565b9050919050565b7f45524332303a207472616e7366657220616d6f756e742065786365656473206260008201527f616c616e63650000000000000000000000000000000000000000000000000000602082015250565b60006116e0602683610ebc565b91506116eb82611684565b604082019050919050565b6000602082019050818103600083015261170f816116d3565b9050919050565b7f4f776e61626c653a2063616c6c6572206973206e6f7420746865206f776e6572600082015250565b600061174c602083610ebc565b915061175782611716565b602082019050919050565b6000602082019050818103600083015261177b8161173f565b9050919050565b7f45524332303a206d696e7420746f20746865207a65726f206164647265737300600082015250565b60006117b8601f83610ebc565b91506117c382611782565b602082019050919050565b600060208201905081810360008301526117e7816117ab565b905091905056fea26469706673582212200d18ab3463b76ac0807fc58beac5022090e44240729637b424ab9dce42602c1b64736f6c63430008090033a2646970667358221220cf81ee7d16a18b6f8a06a210d16b2ac8a4c07e6b7abf1ce8c8a0f05534f2224b64736f6c63430008090033",
  "linkReferences": {},
  "deployedLinkReferences": {}
}