{
  "_format": "hh-sol-artifact-1",
  "contractName": "FundsManager",
  "sourceName": "contracts/FundsManager.sol",
  "abi": [
    {
      "inputs": [
        {
          "internalType": "string",
          "name": "_poolId",
          "type": "string"
        }
      ],
      "name": "contributeFunds",
      "outputs": [],
      "stateMutability": "payable",
      "type": "function"
    },
    {
      "inputs": [
        {
          "internalType": "string",
          "name": "_poolId",
          "type": "string"
        },
        {
          "internalType": "string",
          "name": "_poolName",
          "type": "string"
        },
        {
          "internalType": "uint256",
          "name": "_poolSize",
          "type": "uint256"
        },
        {
          "internalType": "address[]",
          "name": "_owners",
          "type": "address[]"
        },
        {
          "internalType": "uint256",
          "name": "_fundsGoal",
          "type": "uint256"
        },
        {
          "internalType": "uint256",
          "name": "_tokenId",
          "type": "uint256"
        },
        {
          "internalType": "address",
          "name": "_collectionAddress",
          "type": "address"
        }
      ],
      "name": "createPool",
      "outputs": [],
      "stateMutability": "nonpayable",
      "type": "function"
    },
    {
      "inputs": [
        {
          "internalType": "string",
          "name": "_poolId",
          "type": "string"
        }
      ],
      "name": "getPoolOwners",
      "outputs": [
        {
          "internalType": "address[]",
          "name": "",
          "type": "address[]"
        }
      ],
      "stateMutability": "view",
      "type": "function"
    },
    {
      "inputs": [],
      "name": "getUserPools",
      "outputs": [
        {
          "internalType": "string[]",
          "name": "",
          "type": "string[]"
        }
      ],
      "stateMutability": "view",
      "type": "function"
    },
    {
      "inputs": [
        {
          "internalType": "string",
          "name": "_poolId",
          "type": "string"
        }
      ],
      "name": "isVoted",
      "outputs": [
        {
          "internalType": "bool",
          "name": "",
          "type": "bool"
        }
      ],
      "stateMutability": "view",
      "type": "function"
    },
    {
      "inputs": [
        {
          "internalType": "string",
          "name": "_poolId",
          "type": "string"
        },
        {
          "internalType": "bool",
          "name": "_isAgree",
          "type": "bool"
        }
      ],
      "name": "makeConsensus",
      "outputs": [],
      "stateMutability": "nonpayable",
      "type": "function"
    },
    {
      "inputs": [
        {
          "internalType": "address",
          "name": "",
          "type": "address"
        },
        {
          "internalType": "uint256",
          "name": "",
          "type": "uint256"
        }
      ],
      "name": "poolOwners",
      "outputs": [
        {
          "internalType": "string",
          "name": "",
          "type": "string"
        }
      ],
      "stateMutability": "view",
      "type": "function"
    },
    {
      "inputs": [
        {
          "internalType": "string",
          "name": "",
          "type": "string"
        }
      ],
      "name": "pools",
      "outputs": [
        {
          "internalType": "uint256",
          "name": "funds",
          "type": "uint256"
        },
        {
          "internalType": "string",
          "name": "poolName",
          "type": "string"
        },
        {
          "internalType": "uint256",
          "name": "poolSize",
          "type": "uint256"
        },
        {
          "internalType": "uint256",
          "name": "fundGoal",
          "type": "uint256"
        },
        {
          "internalType": "uint256",
          "name": "positiveCount",
          "type": "uint256"
        },
        {
          "internalType": "uint256",
          "name": "negativeCount",
          "type": "uint256"
        },
        {
          "internalType": "contract OwnerShipTokens",
          "name": "ownerShipTokenAddress",
          "type": "address"
        },
        {
          "internalType": "string",
          "name": "poolId",
          "type": "string"
        },
        {
          "internalType": "contract OwnerShipTokens",
          "name": "OwnerShipTokenContract",
          "type": "address"
        },
        {
          "internalType": "uint256",
          "name": "tokenId",
          "type": "uint256"
        },
        {
          "internalType": "address",
          "name": "collectionAddress",
          "type": "address"
        }
      ],
      "stateMutability": "view",
      "type": "function"
    },
    {
      "stateMutability": "payable",
      "type": "receive"
    }
  ],
  "bytecode": "0x608060405273e7f1725e7734ce288f8367e1bb143e90bb3f05126000806101000a81548173ffffffffffffffffffffffffffffffffffffffff021916908373ffffffffffffffffffffffffffffffffffffffff16021790555034801561006457600080fd5b50614137806100746000396000f3fe6080604052600436106200008b5760003560e01c80634ce6a99d11620000555780634ce6a99d146200015a5780636a05e5fe146200019e5780639d6f17a814620001e2578063dab07f4314620002305762000093565b80630b7fd928146200009857806326f1024f14620000c65780632fe839dd14620000f65780633f40c73314620001165762000093565b366200009357005b600080fd5b348015620000a557600080fd5b50620000c46004803603810190620000be9190620016b6565b6200025e565b005b348015620000d357600080fd5b50620000de620005b4565b604051620000ed919062001929565b60405180910390f35b6200011460048036038101906200010e91906200194d565b620006d4565b005b3480156200012357600080fd5b506200014260048036038101906200013c91906200194d565b6200078c565b604051620001519190620019bb565b60405180910390f35b3480156200016757600080fd5b506200018660048036038101906200018091906200194d565b620008b2565b60405162000195919062001aa6565b60405180910390f35b348015620001ab57600080fd5b50620001ca6004803603810190620001c4919062001aca565b62000965565b604051620001d9919062001b63565b60405180910390f35b348015620001ef57600080fd5b506200020e60048036038101906200020891906200194d565b62000a27565b604051620002279b9a9998979695949392919062001c14565b60405180910390f35b3480156200023d57600080fd5b506200025c600480360381019062000256919062001d14565b62000c17565b005b8560028860405162000271919062001dbc565b908152602001604051809103902060020190805190602001906200029792919062001307565b5084600288604051620002ab919062001dbc565b90815260200160405180910390206003018190555060005b858110156200040557600288604051620002de919062001dbc565b908152602001604051809103902060000185828151811062000305576200030462001dd5565b5b60200260200101519080600181540180825580915050600190039060005260206000200160009091909190916101000a81548173ffffffffffffffffffffffffffffffffffffffff021916908373ffffffffffffffffffffffffffffffffffffffff1602179055506002808960405162000380919062001dbc565b9081526020016040518091039020600d016000878481518110620003a957620003a862001dd5565b5b602002602001015173ffffffffffffffffffffffffffffffffffffffff1673ffffffffffffffffffffffffffffffffffffffff168152602001908152602001600020819055508080620003fc9062001e33565b915050620002c3565b508260028860405162000419919062001dbc565b908152602001604051809103902060040181905550600360003373ffffffffffffffffffffffffffffffffffffffff1673ffffffffffffffffffffffffffffffffffffffff16815260200190815260200160002087908060018154018082558091505060019003906000526020600020016000909190919091509080519060200190620004a892919062001307565b50600487908060018154018082558091505060019003906000526020600020016000909190919091509080519060200190620004e692919062001307565b5086600288604051620004fa919062001dbc565b908152602001604051809103902060080190805190602001906200052092919062001307565b508160028860405162000534919062001dbc565b9081526020016040518091039020600b0181905550806002886040516200055c919062001dbc565b9081526020016040518091039020600c0160006101000a81548173ffffffffffffffffffffffffffffffffffffffff021916908373ffffffffffffffffffffffffffffffffffffffff16021790555050505050505050565b6060600360003373ffffffffffffffffffffffffffffffffffffffff1673ffffffffffffffffffffffffffffffffffffffff168152602001908152602001600020805480602002602001604051908101604052809291908181526020016000905b82821015620006cb578382906000526020600020018054620006379062001eb0565b80601f0160208091040260200160405190810160405280929190818152602001828054620006659062001eb0565b8015620006b65780601f106200068a57610100808354040283529160200191620006b6565b820191906000526020600020905b8154815290600101906020018083116200069857829003601f168201915b50505050508152602001906001019062000615565b50505050905090565b34600282604051620006e7919062001dbc565b9081526020016040518091039020600101600082825462000709919062001ee6565b925050819055503460028260405162000723919062001dbc565b908152602001604051809103902060090160003373ffffffffffffffffffffffffffffffffffffffff1673ffffffffffffffffffffffffffffffffffffffff168152602001908152602001600020600082825462000782919062001ee6565b9250508190555050565b600080600283604051620007a1919062001dbc565b9081526020016040518091039020600d0160003373ffffffffffffffffffffffffffffffffffffffff1673ffffffffffffffffffffffffffffffffffffffff16815260200190815260200160002054141562000834576040517f08c379a00000000000000000000000000000000000000000000000000000000081526004016200082b9062001f93565b60405180910390fd5b600160028360405162000848919062001dbc565b9081526020016040518091039020600d0160003373ffffffffffffffffffffffffffffffffffffffff1673ffffffffffffffffffffffffffffffffffffffff168152602001908152602001600020541415620008a85760019050620008ad565b600090505b919050565b6060600282604051620008c6919062001dbc565b90815260200160405180910390206000018054806020026020016040519081016040528092919081815260200182805480156200095957602002820191906000526020600020905b8160009054906101000a900473ffffffffffffffffffffffffffffffffffffffff1673ffffffffffffffffffffffffffffffffffffffff16815260200190600101908083116200090e575b50505050509050919050565b600360205281600052604060002081815481106200098257600080fd5b90600052602060002001600091509150508054620009a09062001eb0565b80601f0160208091040260200160405190810160405280929190818152602001828054620009ce9062001eb0565b801562000a1f5780601f10620009f35761010080835404028352916020019162000a1f565b820191906000526020600020905b81548152906001019060200180831162000a0157829003601f168201915b505050505081565b60028180516020810182018051848252602083016020850120818352809550505050505060009150905080600101549080600201805462000a689062001eb0565b80601f016020809104026020016040519081016040528092919081815260200182805462000a969062001eb0565b801562000ae75780601f1062000abb5761010080835404028352916020019162000ae7565b820191906000526020600020905b81548152906001019060200180831162000ac957829003601f168201915b5050505050908060030154908060040154908060050154908060060154908060070160009054906101000a900473ffffffffffffffffffffffffffffffffffffffff169080600801805462000b3c9062001eb0565b80601f016020809104026020016040519081016040528092919081815260200182805462000b6a9062001eb0565b801562000bbb5780601f1062000b8f5761010080835404028352916020019162000bbb565b820191906000526020600020905b81548152906001019060200180831162000b9d57829003601f168201915b50505050509080600a0160009054906101000a900473ffffffffffffffffffffffffffffffffffffffff169080600b01549080600c0160009054906101000a900473ffffffffffffffffffffffffffffffffffffffff1690508b565b6002808360405162000c2a919062001dbc565b9081526020016040518091039020600d0160003373ffffffffffffffffffffffffffffffffffffffff1673ffffffffffffffffffffffffffffffffffffffff168152602001908152602001600020541462000cbc576040517f08c379a000000000000000000000000000000000000000000000000000000000815260040162000cb39062001f93565b60405180910390fd5b801562000d8a57600160028360405162000cd7919062001dbc565b90815260200160405180910390206005015462000cf5919062001ee6565b60028360405162000d07919062001dbc565b9081526020016040518091039020600501819055506002808360405162000d2f919062001dbc565b90815260200160405180910390206003015462000d4d919062001fe4565b60028360405162000d5f919062001dbc565b908152602001604051809103902060050154111562000d845762000d838262000e4e565b5b62000de4565b600160028360405162000d9e919062001dbc565b90815260200160405180910390206006015462000dbc919062001ee6565b60028360405162000dce919062001dbc565b9081526020016040518091039020600601819055505b600160028360405162000df8919062001dbc565b9081526020016040518091039020600d0160003373ffffffffffffffffffffffffffffffffffffffff1673ffffffffffffffffffffffffffffffffffffffff168152602001908152602001600020819055505050565b60008054906101000a900473ffffffffffffffffffffffffffffffffffffffff16600160006101000a81548173ffffffffffffffffffffffffffffffffffffffff021916908373ffffffffffffffffffffffffffffffffffffffff160217905550600160009054906101000a900473ffffffffffffffffffffffffffffffffffffffff1673ffffffffffffffffffffffffffffffffffffffff1663d38ea5bf600160028460405162000f01919062001dbc565b9081526020016040518091039020600b015462000f1f919062001ee6565b6040518263ffffffff1660e01b815260040162000f3d91906200201c565b600060405180830381600087803b15801562000f5857600080fd5b505af115801562000f6d573d6000803e3d6000fd5b505050506000818260405162000f839062001398565b62000f9092919062002039565b604051809103906000f08015801562000fad573d6000803e3d6000fd5b5090508060028360405162000fc3919062001dbc565b908152602001604051809103902060070160006101000a81548173ffffffffffffffffffffffffffffffffffffffff021916908373ffffffffffffffffffffffffffffffffffffffff1602179055508060028360405162001025919062001dbc565b9081526020016040518091039020600a0160006101000a81548173ffffffffffffffffffffffffffffffffffffffff021916908373ffffffffffffffffffffffffffffffffffffffff16021790555060005b60028360405162001089919062001dbc565b90815260200160405180910390206000018054905081101562001302576000670de0b6b3a7640000600285604051620010c3919062001dbc565b908152602001604051809103902060040154600286604051620010e7919062001dbc565b908152602001604051809103902060090160006002886040516200110c919062001dbc565b9081526020016040518091039020600001868154811062001132576200113162001dd5565b5b9060005260206000200160009054906101000a900473ffffffffffffffffffffffffffffffffffffffff1673ffffffffffffffffffffffffffffffffffffffff1673ffffffffffffffffffffffffffffffffffffffff16815260200190815260200160002054620011a4919062001fe4565b620011b0919062002074565b9050600284604051620011c4919062001dbc565b9081526020016040518091039020600a0160009054906101000a900473ffffffffffffffffffffffffffffffffffffffff1673ffffffffffffffffffffffffffffffffffffffff1663a9059cbb60028660405162001223919062001dbc565b9081526020016040518091039020600001848154811062001249576200124862001dd5565b5b9060005260206000200160009054906101000a900473ffffffffffffffffffffffffffffffffffffffff16836040518363ffffffff1660e01b815260040162001294929190620020d5565b602060405180830381600087803b158015620012af57600080fd5b505af1158015620012c4573d6000803e3d6000fd5b505050506040513d601f19601f82011682018060405250810190620012ea919062002119565b50508080620012f99062001e33565b91505062001077565b505050565b828054620013159062001eb0565b90600052602060002090601f01602090048101928262001339576000855562001385565b82601f106200135457805160ff191683800117855562001385565b8280016001018555821562001385579182015b828111156200138457825182559160200191906001019062001367565b5b509050620013949190620013a6565b5090565b611fb6806200214c83390190565b5b80821115620013c1576000816000905550600101620013a7565b5090565b6000604051905090565b600080fd5b600080fd5b600080fd5b600080fd5b6000601f19601f8301169050919050565b7f4e487b7100000000000000000000000000000000000000000000000000000000600052604160045260246000fd5b6200142e82620013e3565b810181811067ffffffffffffffff8211171562001450576200144f620013f4565b5b80604052505050565b600062001465620013c5565b905062001473828262001423565b919050565b600067ffffffffffffffff821115620014965762001495620013f4565b5b620014a182620013e3565b9050602081019050919050565b82818337600083830152505050565b6000620014d4620014ce8462001478565b62001459565b905082815260208101848484011115620014f357620014f2620013de565b5b62001500848285620014ae565b509392505050565b600082601f83011262001520576200151f620013d9565b5b813562001532848260208601620014bd565b91505092915050565b6000819050919050565b62001550816200153b565b81146200155c57600080fd5b50565b600081359050620015708162001545565b92915050565b600067ffffffffffffffff821115620015945762001593620013f4565b5b602082029050602081019050919050565b600080fd5b600073ffffffffffffffffffffffffffffffffffffffff82169050919050565b6000620015d782620015aa565b9050919050565b620015e981620015ca565b8114620015f557600080fd5b50565b6000813590506200160981620015de565b92915050565b600062001626620016208462001576565b62001459565b905080838252602082019050602084028301858111156200164c576200164b620015a5565b5b835b81811015620016795780620016648882620015f8565b8452602084019350506020810190506200164e565b5050509392505050565b600082601f8301126200169b576200169a620013d9565b5b8135620016ad8482602086016200160f565b91505092915050565b600080600080600080600060e0888a031215620016d857620016d7620013cf565b5b600088013567ffffffffffffffff811115620016f957620016f8620013d4565b5b620017078a828b0162001508565b975050602088013567ffffffffffffffff8111156200172b576200172a620013d4565b5b620017398a828b0162001508565b96505060406200174c8a828b016200155f565b955050606088013567ffffffffffffffff81111562001770576200176f620013d4565b5b6200177e8a828b0162001683565b9450506080620017918a828b016200155f565b93505060a0620017a48a828b016200155f565b92505060c0620017b78a828b01620015f8565b91505092959891949750929550565b600081519050919050565b600082825260208201905092915050565b6000819050602082019050919050565b600081519050919050565b600082825260208201905092915050565b60005b838110156200182e57808201518184015260208101905062001811565b838111156200183e576000848401525b50505050565b60006200185182620017f2565b6200185d8185620017fd565b93506200186f8185602086016200180e565b6200187a81620013e3565b840191505092915050565b600062001893838362001844565b905092915050565b6000602082019050919050565b6000620018b582620017c6565b620018c18185620017d1565b935083602082028501620018d585620017e2565b8060005b85811015620019175784840389528151620018f5858262001885565b945062001902836200189b565b925060208a01995050600181019050620018d9565b50829750879550505050505092915050565b60006020820190508181036000830152620019458184620018a8565b905092915050565b600060208284031215620019665762001965620013cf565b5b600082013567ffffffffffffffff811115620019875762001986620013d4565b5b620019958482850162001508565b91505092915050565b60008115159050919050565b620019b5816200199e565b82525050565b6000602082019050620019d26000830184620019aa565b92915050565b600081519050919050565b600082825260208201905092915050565b6000819050602082019050919050565b62001a0f81620015ca565b82525050565b600062001a23838362001a04565b60208301905092915050565b6000602082019050919050565b600062001a4982620019d8565b62001a558185620019e3565b935062001a6283620019f4565b8060005b8381101562001a9957815162001a7d888262001a15565b975062001a8a8362001a2f565b92505060018101905062001a66565b5085935050505092915050565b6000602082019050818103600083015262001ac2818462001a3c565b905092915050565b6000806040838503121562001ae45762001ae3620013cf565b5b600062001af485828601620015f8565b925050602062001b07858286016200155f565b9150509250929050565b600082825260208201905092915050565b600062001b2f82620017f2565b62001b3b818562001b11565b935062001b4d8185602086016200180e565b62001b5881620013e3565b840191505092915050565b6000602082019050818103600083015262001b7f818462001b22565b905092915050565b62001b92816200153b565b82525050565b6000819050919050565b600062001bc362001bbd62001bb784620015aa565b62001b98565b620015aa565b9050919050565b600062001bd78262001ba2565b9050919050565b600062001beb8262001bca565b9050919050565b62001bfd8162001bde565b82525050565b62001c0e81620015ca565b82525050565b60006101608201905062001c2c600083018e62001b87565b818103602083015262001c40818d62001b22565b905062001c51604083018c62001b87565b62001c60606083018b62001b87565b62001c6f608083018a62001b87565b62001c7e60a083018962001b87565b62001c8d60c083018862001bf2565b81810360e083015262001ca1818762001b22565b905062001cb361010083018662001bf2565b62001cc361012083018562001b87565b62001cd361014083018462001c03565b9c9b505050505050505050505050565b62001cee816200199e565b811462001cfa57600080fd5b50565b60008135905062001d0e8162001ce3565b92915050565b6000806040838503121562001d2e5762001d2d620013cf565b5b600083013567ffffffffffffffff81111562001d4f5762001d4e620013d4565b5b62001d5d8582860162001508565b925050602062001d708582860162001cfd565b9150509250929050565b600081905092915050565b600062001d9282620017f2565b62001d9e818562001d7a565b935062001db08185602086016200180e565b80840191505092915050565b600062001dca828462001d85565b915081905092915050565b7f4e487b7100000000000000000000000000000000000000000000000000000000600052603260045260246000fd5b7f4e487b7100000000000000000000000000000000000000000000000000000000600052601160045260246000fd5b600062001e40826200153b565b91507fffffffffffffffffffffffffffffffffffffffffffffffffffffffffffffffff82141562001e765762001e7562001e04565b5b600182019050919050565b7f4e487b7100000000000000000000000000000000000000000000000000000000600052602260045260246000fd5b6000600282049050600182168062001ec957607f821691505b6020821081141562001ee05762001edf62001e81565b5b50919050565b600062001ef3826200153b565b915062001f00836200153b565b9250827fffffffffffffffffffffffffffffffffffffffffffffffffffffffffffffffff0382111562001f385762001f3762001e04565b5b828201905092915050565b7f596f7520617265206e6f7420617574686f72697a656420746f20766f74650000600082015250565b600062001f7b601e8362001b11565b915062001f888262001f43565b602082019050919050565b6000602082019050818103600083015262001fae8162001f6c565b9050919050565b7f4e487b7100000000000000000000000000000000000000000000000000000000600052601260045260246000fd5b600062001ff1826200153b565b915062001ffe836200153b565b92508262002011576200201062001fb5565b5b828204905092915050565b600060208201905062002033600083018462001b87565b92915050565b6000604082019050818103600083015262002055818562001b22565b905081810360208301526200206b818462001b22565b90509392505050565b600062002081826200153b565b91506200208e836200153b565b9250817fffffffffffffffffffffffffffffffffffffffffffffffffffffffffffffffff0483118215151615620020ca57620020c962001e04565b5b828202905092915050565b6000604082019050620020ec600083018562001c03565b620020fb602083018462001b87565b9392505050565b600081519050620021138162001ce3565b92915050565b600060208284031215620021325762002131620013cf565b5b6000620021428482850162002102565b9150509291505056fe60806040523480156200001157600080fd5b5060405162001fb638038062001fb6833981810160405281019062000037919062000551565b818181600390805190602001906200005192919062000304565b5080600490805190602001906200006a92919062000304565b5050506200008d62000081620000b360201b60201c565b620000bb60201b60201c565b620000ab336b033b2e3c9fd0803ce80000006200018160201b60201c565b505062000782565b600033905090565b6000600560009054906101000a900473ffffffffffffffffffffffffffffffffffffffff16905081600560006101000a81548173ffffffffffffffffffffffffffffffffffffffff021916908373ffffffffffffffffffffffffffffffffffffffff1602179055508173ffffffffffffffffffffffffffffffffffffffff168173ffffffffffffffffffffffffffffffffffffffff167f8be0079c531659141344cd1fd0a4f28419497f9722a3daafe3b4186f6b6457e060405160405180910390a35050565b600073ffffffffffffffffffffffffffffffffffffffff168273ffffffffffffffffffffffffffffffffffffffff161415620001f4576040517f08c379a0000000000000000000000000000000000000000000000000000000008152600401620001eb9062000637565b60405180910390fd5b6200020860008383620002fa60201b60201c565b80600260008282546200021c919062000692565b92505081905550806000808473ffffffffffffffffffffffffffffffffffffffff1673ffffffffffffffffffffffffffffffffffffffff168152602001908152602001600020600082825462000273919062000692565b925050819055508173ffffffffffffffffffffffffffffffffffffffff16600073ffffffffffffffffffffffffffffffffffffffff167fddf252ad1be2c89b69c2b068fc378daa952ba7f163c4a11628f55a4df523b3ef83604051620002da919062000700565b60405180910390a3620002f660008383620002ff60201b60201c565b5050565b505050565b505050565b82805462000312906200074c565b90600052602060002090601f01602090048101928262000336576000855562000382565b82601f106200035157805160ff191683800117855562000382565b8280016001018555821562000382579182015b828111156200038157825182559160200191906001019062000364565b5b50905062000391919062000395565b5090565b5b80821115620003b057600081600090555060010162000396565b5090565b6000604051905090565b600080fd5b600080fd5b600080fd5b600080fd5b6000601f19601f8301169050919050565b7f4e487b7100000000000000000000000000000000000000000000000000000000600052604160045260246000fd5b6200041d82620003d2565b810181811067ffffffffffffffff821117156200043f576200043e620003e3565b5b80604052505050565b600062000454620003b4565b905062000462828262000412565b919050565b600067ffffffffffffffff821115620004855762000484620003e3565b5b6200049082620003d2565b9050602081019050919050565b60005b83811015620004bd578082015181840152602081019050620004a0565b83811115620004cd576000848401525b50505050565b6000620004ea620004e48462000467565b62000448565b905082815260208101848484011115620005095762000508620003cd565b5b620005168482856200049d565b509392505050565b600082601f830112620005365762000535620003c8565b5b815162000548848260208601620004d3565b91505092915050565b600080604083850312156200056b576200056a620003be565b5b600083015167ffffffffffffffff8111156200058c576200058b620003c3565b5b6200059a858286016200051e565b925050602083015167ffffffffffffffff811115620005be57620005bd620003c3565b5b620005cc858286016200051e565b9150509250929050565b600082825260208201905092915050565b7f45524332303a206d696e7420746f20746865207a65726f206164647265737300600082015250565b60006200061f601f83620005d6565b91506200062c82620005e7565b602082019050919050565b60006020820190508181036000830152620006528162000610565b9050919050565b6000819050919050565b7f4e487b7100000000000000000000000000000000000000000000000000000000600052601160045260246000fd5b60006200069f8262000659565b9150620006ac8362000659565b9250827fffffffffffffffffffffffffffffffffffffffffffffffffffffffffffffffff03821115620006e457620006e362000663565b5b828201905092915050565b620006fa8162000659565b82525050565b6000602082019050620007176000830184620006ef565b92915050565b7f4e487b7100000000000000000000000000000000000000000000000000000000600052602260045260246000fd5b600060028204905060018216806200076557607f821691505b602082108114156200077c576200077b6200071d565b5b50919050565b61182480620007926000396000f3fe608060405234801561001057600080fd5b50600436106100f55760003560e01c806370a0823111610097578063a457c2d711610066578063a457c2d714610276578063a9059cbb146102a6578063dd62ed3e146102d6578063f2fde38b14610306576100f5565b806370a0823114610200578063715018a6146102305780638da5cb5b1461023a57806395d89b4114610258576100f5565b806323b872dd116100d357806323b872dd14610166578063313ce5671461019657806339509351146101b457806340c10f19146101e4576100f5565b806306fdde03146100fa578063095ea7b31461011857806318160ddd14610148575b600080fd5b610102610322565b60405161010f9190610f4a565b60405180910390f35b610132600480360381019061012d9190611005565b6103b4565b60405161013f9190611060565b60405180910390f35b6101506103d7565b60405161015d919061108a565b60405180910390f35b610180600480360381019061017b91906110a5565b6103e1565b60405161018d9190611060565b60405180910390f35b61019e610410565b6040516101ab9190611114565b60405180910390f35b6101ce60048036038101906101c99190611005565b610419565b6040516101db9190611060565b60405180910390f35b6101fe60048036038101906101f99190611005565b610450565b005b61021a6004803603810190610215919061112f565b610466565b604051610227919061108a565b60405180910390f35b6102386104ae565b005b6102426104c2565b60405161024f919061116b565b60405180910390f35b6102606104ec565b60405161026d9190610f4a565b60405180910390f35b610290600480360381019061028b9190611005565b61057e565b60405161029d9190611060565b60405180910390f35b6102c060048036038101906102bb9190611005565b6105f5565b6040516102cd9190611060565b60405180910390f35b6102f060048036038101906102eb9190611186565b610618565b6040516102fd919061108a565b60405180910390f35b610320600480360381019061031b919061112f565b61069f565b005b606060038054610331906111f5565b80601f016020809104026020016040519081016040528092919081815260200182805461035d906111f5565b80156103aa5780601f1061037f576101008083540402835291602001916103aa565b820191906000526020600020905b81548152906001019060200180831161038d57829003601f168201915b5050505050905090565b6000806103bf610723565b90506103cc81858561072b565b600191505092915050565b6000600254905090565b6000806103ec610723565b90506103f98582856108f6565b610404858585610982565b60019150509392505050565b60006012905090565b600080610424610723565b90506104458185856104368589610618565b6104409190611256565b61072b565b600191505092915050565b610458610c03565b6104628282610c81565b5050565b60008060008373ffffffffffffffffffffffffffffffffffffffff1673ffffffffffffffffffffffffffffffffffffffff168152602001908152602001600020549050919050565b6104b6610c03565b6104c06000610de1565b565b6000600560009054906101000a900473ffffffffffffffffffffffffffffffffffffffff16905090565b6060600480546104fb906111f5565b80601f0160208091040260200160405190810160405280929190818152602001828054610527906111f5565b80156105745780601f1061054957610100808354040283529160200191610574565b820191906000526020600020905b81548152906001019060200180831161055757829003601f168201915b5050505050905090565b600080610589610723565b905060006105978286610618565b9050838110156105dc576040517f08c379a00000000000000000000000000000000000000000000000000000000081526004016105d39061131e565b60405180910390fd5b6105e9828686840361072b565b60019250505092915050565b600080610600610723565b905061060d818585610982565b600191505092915050565b6000600160008473ffffffffffffffffffffffffffffffffffffffff1673ffffffffffffffffffffffffffffffffffffffff16815260200190815260200160002060008373ffffffffffffffffffffffffffffffffffffffff1673ffffffffffffffffffffffffffffffffffffffff16815260200190815260200160002054905092915050565b6106a7610c03565b600073ffffffffffffffffffffffffffffffffffffffff168173ffffffffffffffffffffffffffffffffffffffff161415610717576040517f08c379a000000000000000000000000000000000000000000000000000000000815260040161070e906113b0565b60405180910390fd5b61072081610de1565b50565b600033905090565b600073ffffffffffffffffffffffffffffffffffffffff168373ffffffffffffffffffffffffffffffffffffffff16141561079b576040517f08c379a000000000000000000000000000000000000000000000000000000000815260040161079290611442565b60405180910390fd5b600073ffffffffffffffffffffffffffffffffffffffff168273ffffffffffffffffffffffffffffffffffffffff16141561080b576040517f08c379a0000000000000000000000000000000000000000000000000000000008152600401610802906114d4565b60405180910390fd5b80600160008573ffffffffffffffffffffffffffffffffffffffff1673ffffffffffffffffffffffffffffffffffffffff16815260200190815260200160002060008473ffffffffffffffffffffffffffffffffffffffff1673ffffffffffffffffffffffffffffffffffffffff168152602001908152602001600020819055508173ffffffffffffffffffffffffffffffffffffffff168373ffffffffffffffffffffffffffffffffffffffff167f8c5be1e5ebec7d5bd14f71427d1e84f3dd0314c0f7b2291e5b200ac8c7c3b925836040516108e9919061108a565b60405180910390a3505050565b60006109028484610618565b90507fffffffffffffffffffffffffffffffffffffffffffffffffffffffffffffffff811461097c578181101561096e576040517f08c379a000000000000000000000000000000000000000000000000000000000815260040161096590611540565b60405180910390fd5b61097b848484840361072b565b5b50505050565b600073ffffffffffffffffffffffffffffffffffffffff168373ffffffffffffffffffffffffffffffffffffffff1614156109f2576040517f08c379a00000000000000000000000000000000000000000000000000000000081526004016109e9906115d2565b60405180910390fd5b600073ffffffffffffffffffffffffffffffffffffffff168273ffffffffffffffffffffffffffffffffffffffff161415610a62576040517f08c379a0000000000000000000000000000000000000000000000000000000008152600401610a5990611664565b60405180910390fd5b610a6d838383610ea7565b60008060008573ffffffffffffffffffffffffffffffffffffffff1673ffffffffffffffffffffffffffffffffffffffff16815260200190815260200160002054905081811015610af3576040517f08c379a0000000000000000000000000000000000000000000000000000000008152600401610aea906116f6565b60405180910390fd5b8181036000808673ffffffffffffffffffffffffffffffffffffffff1673ffffffffffffffffffffffffffffffffffffffff16815260200190815260200160002081905550816000808573ffffffffffffffffffffffffffffffffffffffff1673ffffffffffffffffffffffffffffffffffffffff1681526020019081526020016000206000828254610b869190611256565b925050819055508273ffffffffffffffffffffffffffffffffffffffff168473ffffffffffffffffffffffffffffffffffffffff167fddf252ad1be2c89b69c2b068fc378daa952ba7f163c4a11628f55a4df523b3ef84604051610bea919061108a565b60405180910390a3610bfd848484610eac565b50505050565b610c0b610723565b73ffffffffffffffffffffffffffffffffffffffff16610c296104c2565b73ffffffffffffffffffffffffffffffffffffffff1614610c7f576040517f08c379a0000000000000000000000000000000000000000000000000000000008152600401610c7690611762565b60405180910390fd5b565b600073ffffffffffffffffffffffffffffffffffffffff168273ffffffffffffffffffffffffffffffffffffffff161415610cf1576040517f08c379a0000000000000000000000000000000000000000000000000000000008152600401610ce8906117ce565b60405180910390fd5b610cfd60008383610ea7565b8060026000828254610d0f9190611256565b92505081905550806000808473ffffffffffffffffffffffffffffffffffffffff1673ffffffffffffffffffffffffffffffffffffffff1681526020019081526020016000206000828254610d649190611256565b925050819055508173ffffffffffffffffffffffffffffffffffffffff16600073ffffffffffffffffffffffffffffffffffffffff167fddf252ad1be2c89b69c2b068fc378daa952ba7f163c4a11628f55a4df523b3ef83604051610dc9919061108a565b60405180910390a3610ddd60008383610eac565b5050565b6000600560009054906101000a900473ffffffffffffffffffffffffffffffffffffffff16905081600560006101000a81548173ffffffffffffffffffffffffffffffffffffffff021916908373ffffffffffffffffffffffffffffffffffffffff1602179055508173ffffffffffffffffffffffffffffffffffffffff168173ffffffffffffffffffffffffffffffffffffffff167f8be0079c531659141344cd1fd0a4f28419497f9722a3daafe3b4186f6b6457e060405160405180910390a35050565b505050565b505050565b600081519050919050565b600082825260208201905092915050565b60005b83811015610eeb578082015181840152602081019050610ed0565b83811115610efa576000848401525b50505050565b6000601f19601f8301169050919050565b6000610f1c82610eb1565b610f268185610ebc565b9350610f36818560208601610ecd565b610f3f81610f00565b840191505092915050565b60006020820190508181036000830152610f648184610f11565b905092915050565b600080fd5b600073ffffffffffffffffffffffffffffffffffffffff82169050919050565b6000610f9c82610f71565b9050919050565b610fac81610f91565b8114610fb757600080fd5b50565b600081359050610fc981610fa3565b92915050565b6000819050919050565b610fe281610fcf565b8114610fed57600080fd5b50565b600081359050610fff81610fd9565b92915050565b6000806040838503121561101c5761101b610f6c565b5b600061102a85828601610fba565b925050602061103b85828601610ff0565b9150509250929050565b60008115159050919050565b61105a81611045565b82525050565b60006020820190506110756000830184611051565b92915050565b61108481610fcf565b82525050565b600060208201905061109f600083018461107b565b92915050565b6000806000606084860312156110be576110bd610f6c565b5b60006110cc86828701610fba565b93505060206110dd86828701610fba565b92505060406110ee86828701610ff0565b9150509250925092565b600060ff82169050919050565b61110e816110f8565b82525050565b60006020820190506111296000830184611105565b92915050565b60006020828403121561114557611144610f6c565b5b600061115384828501610fba565b91505092915050565b61116581610f91565b82525050565b6000602082019050611180600083018461115c565b92915050565b6000806040838503121561119d5761119c610f6c565b5b60006111ab85828601610fba565b92505060206111bc85828601610fba565b9150509250929050565b7f4e487b7100000000000000000000000000000000000000000000000000000000600052602260045260246000fd5b6000600282049050600182168061120d57607f821691505b60208210811415611221576112206111c6565b5b50919050565b7f4e487b7100000000000000000000000000000000000000000000000000000000600052601160045260246000fd5b600061126182610fcf565b915061126c83610fcf565b9250827fffffffffffffffffffffffffffffffffffffffffffffffffffffffffffffffff038211156112a1576112a0611227565b5b828201905092915050565b7f45524332303a2064656372656173656420616c6c6f77616e63652062656c6f7760008201527f207a65726f000000000000000000000000000000000000000000000000000000602082015250565b6000611308602583610ebc565b9150611313826112ac565b604082019050919050565b60006020820190508181036000830152611337816112fb565b9050919050565b7f4f776e61626c653a206e6577206f776e657220697320746865207a65726f206160008201527f6464726573730000000000000000000000000000000000000000000000000000602082015250565b600061139a602683610ebc565b91506113a58261133e565b604082019050919050565b600060208201905081810360008301526113c98161138d565b9050919050565b7f45524332303a20617070726f76652066726f6d20746865207a65726f2061646460008201527f7265737300000000000000000000000000000000000000000000000000000000602082015250565b600061142c602483610ebc565b9150611437826113d0565b604082019050919050565b6000602082019050818103600083015261145b8161141f565b9050919050565b7f45524332303a20617070726f766520746f20746865207a65726f20616464726560008201527f7373000000000000000000000000000000000000000000000000000000000000602082015250565b60006114be602283610ebc565b91506114c982611462565b604082019050919050565b600060208201905081810360008301526114ed816114b1565b9050919050565b7f45524332303a20696e73756666696369656e7420616c6c6f77616e6365000000600082015250565b600061152a601d83610ebc565b9150611535826114f4565b602082019050919050565b600060208201905081810360008301526115598161151d565b9050919050565b7f45524332303a207472616e736665722066726f6d20746865207a65726f20616460008201527f6472657373000000000000000000000000000000000000000000000000000000602082015250565b60006115bc602583610ebc565b91506115c782611560565b604082019050919050565b600060208201905081810360008301526115eb816115af565b9050919050565b7f45524332303a207472616e7366657220746f20746865207a65726f206164647260008201527f6573730000000000000000000000000000000000000000000000000000000000602082015250565b600061164e602383610ebc565b9150611659826115f2565b604082019050919050565b6000602082019050818103600083015261167d81611641565b9050919050565b7f45524332303a207472616e7366657220616d6f756e742065786365656473206260008201527f616c616e63650000000000000000000000000000000000000000000000000000602082015250565b60006116e0602683610ebc565b91506116eb82611684565b604082019050919050565b6000602082019050818103600083015261170f816116d3565b9050919050565b7f4f776e61626c653a2063616c6c6572206973206e6f7420746865206f776e6572600082015250565b600061174c602083610ebc565b915061175782611716565b602082019050919050565b6000602082019050818103600083015261177b8161173f565b9050919050565b7f45524332303a206d696e7420746f20746865207a65726f206164647265737300600082015250565b60006117b8601f83610ebc565b91506117c382611782565b602082019050919050565b600060208201905081810360008301526117e7816117ab565b905091905056fea26469706673582212200d18ab3463b76ac0807fc58beac5022090e44240729637b424ab9dce42602c1b64736f6c63430008090033a26469706673582212201ed6a11d9b62cb6e32979c2b8ee07c335a8c0234deca01531deefe4a1093464f64736f6c63430008090033",
  "linkReferences": {},
  "deployedLinkReferences": {}
}