{
    "_format": "hh-sol-artifact-1",
    "contractName": "FundsManager",
    "sourceName": "contracts/FundsManager.sol",
    "abi": [
        {
            "inputs": [
                {
                    "internalType": "string",
                    "name": "_poolId",
                    "type": "string"
                }
            ],
            "name": "contributeFunds",
            "outputs": [],
            "stateMutability": "payable",
            "type": "function"
        },
        {
            "inputs": [
                {
                    "internalType": "string",
                    "name": "_poolId",
                    "type": "string"
                },
                {
                    "internalType": "string",
                    "name": "_poolName",
                    "type": "string"
                },
                {
                    "internalType": "uint256",
                    "name": "_poolSize",
                    "type": "uint256"
                },
                {
                    "internalType": "address[]",
                    "name": "_owners",
                    "type": "address[]"
                },
                {
                    "internalType": "uint256",
                    "name": "_fundsGoal",
                    "type": "uint256"
                }
            ],
            "name": "createPool",
            "outputs": [],
            "stateMutability": "nonpayable",
            "type": "function"
        },
        {
            "inputs": [
                {
                    "internalType": "string",
                    "name": "_poolId",
                    "type": "string"
                },
                {
                    "internalType": "bool",
                    "name": "_isAgree",
                    "type": "bool"
                }
            ],
            "name": "makeConsensus",
            "outputs": [],
            "stateMutability": "nonpayable",
            "type": "function"
        },
        {
            "inputs": [
                {
                    "internalType": "address",
                    "name": "",
                    "type": "address"
                },
                {
                    "internalType": "uint256",
                    "name": "",
                    "type": "uint256"
                }
            ],
            "name": "poolOwners",
            "outputs": [
                {
                    "internalType": "string",
                    "name": "",
                    "type": "string"
                }
            ],
            "stateMutability": "view",
            "type": "function"
        },
        {
            "inputs": [
                {
                    "internalType": "string",
                    "name": "",
                    "type": "string"
                }
            ],
            "name": "pools",
            "outputs": [
                {
                    "internalType": "uint256",
                    "name": "funds",
                    "type": "uint256"
                },
                {
                    "internalType": "string",
                    "name": "poolName",
                    "type": "string"
                },
                {
                    "internalType": "uint256",
                    "name": "poolSize",
                    "type": "uint256"
                },
                {
                    "internalType": "uint256",
                    "name": "fundGoal",
                    "type": "uint256"
                },
                {
                    "internalType": "uint256",
                    "name": "positiveCount",
                    "type": "uint256"
                },
                {
                    "internalType": "uint256",
                    "name": "negativeCount",
                    "type": "uint256"
                },
                {
                    "internalType": "contract OwnerShipTokens",
                    "name": "ownerShipTokenAddress",
                    "type": "address"
                }
            ],
            "stateMutability": "view",
            "type": "function"
        }
    ],
    "bytecode": "0x608060405273ffe9330a68e7f43b8146ac235ee3c809a5298b436000806101000a81548173ffffffffffffffffffffffffffffffffffffffff021916908373ffffffffffffffffffffffffffffffffffffffff16021790555034801561006457600080fd5b50612f1c806100746000396000f3fe608060405260043610620000505760003560e01c80632a640a8114620000555780632fe839dd14620000835780636a05e5fe14620000a35780639d6f17a814620000e7578063dab07f431462000131575b600080fd5b3480156200006257600080fd5b506200008160048036038101906200007b919062000bd6565b6200015f565b005b620000a160048036038101906200009b919062000cbb565b620002e3565b005b348015620000b057600080fd5b50620000cf6004803603810190620000c9919062000d0c565b62000322565b604051620000de919062000de6565b60405180910390f35b348015620000f457600080fd5b506200011360048036038101906200010d919062000cbb565b620003e4565b60405162000128979695949392919062000e86565b60405180910390f35b3480156200013e57600080fd5b506200015d600480360381019062000157919062000f47565b620004ec565b005b8360038660405162000172919062000fef565b908152602001604051809103902060020190805190602001906200019892919062000798565b5082600386604051620001ac919062000fef565b90815260200160405180910390206003018190555081600386604051620001d4919062000fef565b90815260200160405180910390206000019080519060200190620001fa92919062000829565b50806003866040516200020e919062000fef565b908152602001604051809103902060040181905550600460003373ffffffffffffffffffffffffffffffffffffffff1673ffffffffffffffffffffffffffffffffffffffff168152602001908152602001600020859080600181540180825580915050600190039060005260206000200160009091909190915090805190602001906200029d92919062000798565b50600585908060018154018082558091505060019003906000526020600020016000909190919091509080519060200190620002db92919062000798565b505050505050565b34600382604051620002f6919062000fef565b9081526020016040518091039020600101600082825462000318919062001037565b9250508190555050565b600460205281600052604060002081815481106200033f57600080fd5b906000526020600020016000915091505080546200035d90620010c3565b80601f01602080910402602001604051908101604052809291908181526020018280546200038b90620010c3565b8015620003dc5780601f10620003b057610100808354040283529160200191620003dc565b820191906000526020600020905b815481529060010190602001808311620003be57829003601f168201915b505050505081565b6003818051602081018201805184825260208301602085012081835280955050505050506000915090508060010154908060020180546200042590620010c3565b80601f01602080910402602001604051908101604052809291908181526020018280546200045390620010c3565b8015620004a45780601f106200047857610100808354040283529160200191620004a4565b820191906000526020600020905b8154815290600101906020018083116200048657829003601f168201915b5050505050908060030154908060040154908060050154908060060154908060070160009054906101000a900473ffffffffffffffffffffffffffffffffffffffff16905087565b80156200059d5760038260405162000505919062000fef565b908152602001604051809103902060050160008154809291906200052990620010f9565b9190505550600260038360405162000542919062000fef565b90815260200160405180910390206003015462000560919062001176565b60038360405162000572919062000fef565b908152602001604051809103902060050154111562000597576200059682620005dd565b5b620005d9565b600382604051620005af919062000fef565b90815260200160405180910390206006016000815480929190620005d390620010f9565b91905055505b5050565b60005b600382604051620005f2919062000fef565b9081526020016040518091039020600001805490508110156200079457606082600081518110620006285762000627620011ae565b5b602001015160f81c60f81b816000815181106200064a5762000649620011ae565b5b60200101907effffffffffffffffffffffffffffffffffffffffffffffffffffffffffffff1916908160001a9053508260018151811062000690576200068f620011ae565b5b602001015160f81c60f81b81600181518110620006b257620006b1620011ae565b5b60200101907effffffffffffffffffffffffffffffffffffffffffffffffffffffffffffff1916908160001a9053508281604051620006f190620008b8565b620006fe929190620011dd565b604051809103906000f0801580156200071b573d6000803e3d6000fd5b506003846040516200072e919062000fef565b908152602001604051809103902060070160006101000a81548173ffffffffffffffffffffffffffffffffffffffff021916908373ffffffffffffffffffffffffffffffffffffffff1602179055505080806200078b90620010f9565b915050620005e0565b5050565b828054620007a690620010c3565b90600052602060002090601f016020900481019282620007ca576000855562000816565b82601f10620007e557805160ff191683800117855562000816565b8280016001018555821562000816579182015b8281111562000815578251825591602001919060010190620007f8565b5b509050620008259190620008c6565b5090565b828054828255906000526020600020908101928215620008a5579160200282015b82811115620008a45782518260006101000a81548173ffffffffffffffffffffffffffffffffffffffff021916908373ffffffffffffffffffffffffffffffffffffffff160217905550916020019190600101906200084a565b5b509050620008b49190620008c6565b5090565b611cce806200121983390190565b5b80821115620008e1576000816000905550600101620008c7565b5090565b6000604051905090565b600080fd5b600080fd5b600080fd5b600080fd5b6000601f19601f8301169050919050565b7f4e487b7100000000000000000000000000000000000000000000000000000000600052604160045260246000fd5b6200094e8262000903565b810181811067ffffffffffffffff8211171562000970576200096f62000914565b5b80604052505050565b600062000985620008e5565b905062000993828262000943565b919050565b600067ffffffffffffffff821115620009b657620009b562000914565b5b620009c18262000903565b9050602081019050919050565b82818337600083830152505050565b6000620009f4620009ee8462000998565b62000979565b90508281526020810184848401111562000a135762000a12620008fe565b5b62000a20848285620009ce565b509392505050565b600082601f83011262000a405762000a3f620008f9565b5b813562000a52848260208601620009dd565b91505092915050565b6000819050919050565b62000a708162000a5b565b811462000a7c57600080fd5b50565b60008135905062000a908162000a65565b92915050565b600067ffffffffffffffff82111562000ab45762000ab362000914565b5b602082029050602081019050919050565b600080fd5b600073ffffffffffffffffffffffffffffffffffffffff82169050919050565b600062000af78262000aca565b9050919050565b62000b098162000aea565b811462000b1557600080fd5b50565b60008135905062000b298162000afe565b92915050565b600062000b4662000b408462000a96565b62000979565b9050808382526020820190506020840283018581111562000b6c5762000b6b62000ac5565b5b835b8181101562000b99578062000b84888262000b18565b84526020840193505060208101905062000b6e565b5050509392505050565b600082601f83011262000bbb5762000bba620008f9565b5b813562000bcd84826020860162000b2f565b91505092915050565b600080600080600060a0868803121562000bf55762000bf4620008ef565b5b600086013567ffffffffffffffff81111562000c165762000c15620008f4565b5b62000c248882890162000a28565b955050602086013567ffffffffffffffff81111562000c485762000c47620008f4565b5b62000c568882890162000a28565b945050604062000c698882890162000a7f565b935050606086013567ffffffffffffffff81111562000c8d5762000c8c620008f4565b5b62000c9b8882890162000ba3565b925050608062000cae8882890162000a7f565b9150509295509295909350565b60006020828403121562000cd45762000cd3620008ef565b5b600082013567ffffffffffffffff81111562000cf55762000cf4620008f4565b5b62000d038482850162000a28565b91505092915050565b6000806040838503121562000d265762000d25620008ef565b5b600062000d368582860162000b18565b925050602062000d498582860162000a7f565b9150509250929050565b600081519050919050565b600082825260208201905092915050565b60005b8381101562000d8f57808201518184015260208101905062000d72565b8381111562000d9f576000848401525b50505050565b600062000db28262000d53565b62000dbe818562000d5e565b935062000dd081856020860162000d6f565b62000ddb8162000903565b840191505092915050565b6000602082019050818103600083015262000e02818462000da5565b905092915050565b62000e158162000a5b565b82525050565b6000819050919050565b600062000e4662000e4062000e3a8462000aca565b62000e1b565b62000aca565b9050919050565b600062000e5a8262000e25565b9050919050565b600062000e6e8262000e4d565b9050919050565b62000e808162000e61565b82525050565b600060e08201905062000e9d600083018a62000e0a565b818103602083015262000eb1818962000da5565b905062000ec2604083018862000e0a565b62000ed1606083018762000e0a565b62000ee0608083018662000e0a565b62000eef60a083018562000e0a565b62000efe60c083018462000e75565b98975050505050505050565b60008115159050919050565b62000f218162000f0a565b811462000f2d57600080fd5b50565b60008135905062000f418162000f16565b92915050565b6000806040838503121562000f615762000f60620008ef565b5b600083013567ffffffffffffffff81111562000f825762000f81620008f4565b5b62000f908582860162000a28565b925050602062000fa38582860162000f30565b9150509250929050565b600081905092915050565b600062000fc58262000d53565b62000fd1818562000fad565b935062000fe381856020860162000d6f565b80840191505092915050565b600062000ffd828462000fb8565b915081905092915050565b7f4e487b7100000000000000000000000000000000000000000000000000000000600052601160045260246000fd5b6000620010448262000a5b565b9150620010518362000a5b565b9250827fffffffffffffffffffffffffffffffffffffffffffffffffffffffffffffffff0382111562001089576200108862001008565b5b828201905092915050565b7f4e487b7100000000000000000000000000000000000000000000000000000000600052602260045260246000fd5b60006002820490506001821680620010dc57607f821691505b60208210811415620010f357620010f262001094565b5b50919050565b6000620011068262000a5b565b91507fffffffffffffffffffffffffffffffffffffffffffffffffffffffffffffffff8214156200113c576200113b62001008565b5b600182019050919050565b7f4e487b7100000000000000000000000000000000000000000000000000000000600052601260045260246000fd5b6000620011838262000a5b565b9150620011908362000a5b565b925082620011a357620011a262001147565b5b828204905092915050565b7f4e487b7100000000000000000000000000000000000000000000000000000000600052603260045260246000fd5b60006040820190508181036000830152620011f9818562000da5565b905081810360208301526200120f818462000da5565b9050939250505056fe60806040523480156200001157600080fd5b5060405162001cce38038062001cce8339818101604052810190620000379190620003b0565b818181600390805190602001906200005192919062000163565b5080600490805190602001906200006a92919062000163565b5050506200008d620000816200009560201b60201c565b6200009d60201b60201c565b50506200049a565b600033905090565b6000600560009054906101000a900473ffffffffffffffffffffffffffffffffffffffff16905081600560006101000a81548173ffffffffffffffffffffffffffffffffffffffff021916908373ffffffffffffffffffffffffffffffffffffffff1602179055508173ffffffffffffffffffffffffffffffffffffffff168173ffffffffffffffffffffffffffffffffffffffff167f8be0079c531659141344cd1fd0a4f28419497f9722a3daafe3b4186f6b6457e060405160405180910390a35050565b828054620001719062000464565b90600052602060002090601f016020900481019282620001955760008555620001e1565b82601f10620001b057805160ff1916838001178555620001e1565b82800160010185558215620001e1579182015b82811115620001e0578251825591602001919060010190620001c3565b5b509050620001f09190620001f4565b5090565b5b808211156200020f576000816000905550600101620001f5565b5090565b6000604051905090565b600080fd5b600080fd5b600080fd5b600080fd5b6000601f19601f8301169050919050565b7f4e487b7100000000000000000000000000000000000000000000000000000000600052604160045260246000fd5b6200027c8262000231565b810181811067ffffffffffffffff821117156200029e576200029d62000242565b5b80604052505050565b6000620002b362000213565b9050620002c1828262000271565b919050565b600067ffffffffffffffff821115620002e457620002e362000242565b5b620002ef8262000231565b9050602081019050919050565b60005b838110156200031c578082015181840152602081019050620002ff565b838111156200032c576000848401525b50505050565b6000620003496200034384620002c6565b620002a7565b9050828152602081018484840111156200036857620003676200022c565b5b62000375848285620002fc565b509392505050565b600082601f83011262000395576200039462000227565b5b8151620003a784826020860162000332565b91505092915050565b60008060408385031215620003ca57620003c96200021d565b5b600083015167ffffffffffffffff811115620003eb57620003ea62000222565b5b620003f9858286016200037d565b925050602083015167ffffffffffffffff8111156200041d576200041c62000222565b5b6200042b858286016200037d565b9150509250929050565b7f4e487b7100000000000000000000000000000000000000000000000000000000600052602260045260246000fd5b600060028204905060018216806200047d57607f821691505b6020821081141562000494576200049362000435565b5b50919050565b61182480620004aa6000396000f3fe608060405234801561001057600080fd5b50600436106100f55760003560e01c806370a0823111610097578063a457c2d711610066578063a457c2d714610276578063a9059cbb146102a6578063dd62ed3e146102d6578063f2fde38b14610306576100f5565b806370a0823114610200578063715018a6146102305780638da5cb5b1461023a57806395d89b4114610258576100f5565b806323b872dd116100d357806323b872dd14610166578063313ce5671461019657806339509351146101b457806340c10f19146101e4576100f5565b806306fdde03146100fa578063095ea7b31461011857806318160ddd14610148575b600080fd5b610102610322565b60405161010f9190610f4a565b60405180910390f35b610132600480360381019061012d9190611005565b6103b4565b60405161013f9190611060565b60405180910390f35b6101506103d7565b60405161015d919061108a565b60405180910390f35b610180600480360381019061017b91906110a5565b6103e1565b60405161018d9190611060565b60405180910390f35b61019e610410565b6040516101ab9190611114565b60405180910390f35b6101ce60048036038101906101c99190611005565b610419565b6040516101db9190611060565b60405180910390f35b6101fe60048036038101906101f99190611005565b610450565b005b61021a6004803603810190610215919061112f565b610466565b604051610227919061108a565b60405180910390f35b6102386104ae565b005b6102426104c2565b60405161024f919061116b565b60405180910390f35b6102606104ec565b60405161026d9190610f4a565b60405180910390f35b610290600480360381019061028b9190611005565b61057e565b60405161029d9190611060565b60405180910390f35b6102c060048036038101906102bb9190611005565b6105f5565b6040516102cd9190611060565b60405180910390f35b6102f060048036038101906102eb9190611186565b610618565b6040516102fd919061108a565b60405180910390f35b610320600480360381019061031b919061112f565b61069f565b005b606060038054610331906111f5565b80601f016020809104026020016040519081016040528092919081815260200182805461035d906111f5565b80156103aa5780601f1061037f576101008083540402835291602001916103aa565b820191906000526020600020905b81548152906001019060200180831161038d57829003601f168201915b5050505050905090565b6000806103bf610723565b90506103cc81858561072b565b600191505092915050565b6000600254905090565b6000806103ec610723565b90506103f98582856108f6565b610404858585610982565b60019150509392505050565b60006012905090565b600080610424610723565b90506104458185856104368589610618565b6104409190611256565b61072b565b600191505092915050565b610458610c03565b6104628282610c81565b5050565b60008060008373ffffffffffffffffffffffffffffffffffffffff1673ffffffffffffffffffffffffffffffffffffffff168152602001908152602001600020549050919050565b6104b6610c03565b6104c06000610de1565b565b6000600560009054906101000a900473ffffffffffffffffffffffffffffffffffffffff16905090565b6060600480546104fb906111f5565b80601f0160208091040260200160405190810160405280929190818152602001828054610527906111f5565b80156105745780601f1061054957610100808354040283529160200191610574565b820191906000526020600020905b81548152906001019060200180831161055757829003601f168201915b5050505050905090565b600080610589610723565b905060006105978286610618565b9050838110156105dc576040517f08c379a00000000000000000000000000000000000000000000000000000000081526004016105d39061131e565b60405180910390fd5b6105e9828686840361072b565b60019250505092915050565b600080610600610723565b905061060d818585610982565b600191505092915050565b6000600160008473ffffffffffffffffffffffffffffffffffffffff1673ffffffffffffffffffffffffffffffffffffffff16815260200190815260200160002060008373ffffffffffffffffffffffffffffffffffffffff1673ffffffffffffffffffffffffffffffffffffffff16815260200190815260200160002054905092915050565b6106a7610c03565b600073ffffffffffffffffffffffffffffffffffffffff168173ffffffffffffffffffffffffffffffffffffffff161415610717576040517f08c379a000000000000000000000000000000000000000000000000000000000815260040161070e906113b0565b60405180910390fd5b61072081610de1565b50565b600033905090565b600073ffffffffffffffffffffffffffffffffffffffff168373ffffffffffffffffffffffffffffffffffffffff16141561079b576040517f08c379a000000000000000000000000000000000000000000000000000000000815260040161079290611442565b60405180910390fd5b600073ffffffffffffffffffffffffffffffffffffffff168273ffffffffffffffffffffffffffffffffffffffff16141561080b576040517f08c379a0000000000000000000000000000000000000000000000000000000008152600401610802906114d4565b60405180910390fd5b80600160008573ffffffffffffffffffffffffffffffffffffffff1673ffffffffffffffffffffffffffffffffffffffff16815260200190815260200160002060008473ffffffffffffffffffffffffffffffffffffffff1673ffffffffffffffffffffffffffffffffffffffff168152602001908152602001600020819055508173ffffffffffffffffffffffffffffffffffffffff168373ffffffffffffffffffffffffffffffffffffffff167f8c5be1e5ebec7d5bd14f71427d1e84f3dd0314c0f7b2291e5b200ac8c7c3b925836040516108e9919061108a565b60405180910390a3505050565b60006109028484610618565b90507fffffffffffffffffffffffffffffffffffffffffffffffffffffffffffffffff811461097c578181101561096e576040517f08c379a000000000000000000000000000000000000000000000000000000000815260040161096590611540565b60405180910390fd5b61097b848484840361072b565b5b50505050565b600073ffffffffffffffffffffffffffffffffffffffff168373ffffffffffffffffffffffffffffffffffffffff1614156109f2576040517f08c379a00000000000000000000000000000000000000000000000000000000081526004016109e9906115d2565b60405180910390fd5b600073ffffffffffffffffffffffffffffffffffffffff168273ffffffffffffffffffffffffffffffffffffffff161415610a62576040517f08c379a0000000000000000000000000000000000000000000000000000000008152600401610a5990611664565b60405180910390fd5b610a6d838383610ea7565b60008060008573ffffffffffffffffffffffffffffffffffffffff1673ffffffffffffffffffffffffffffffffffffffff16815260200190815260200160002054905081811015610af3576040517f08c379a0000000000000000000000000000000000000000000000000000000008152600401610aea906116f6565b60405180910390fd5b8181036000808673ffffffffffffffffffffffffffffffffffffffff1673ffffffffffffffffffffffffffffffffffffffff16815260200190815260200160002081905550816000808573ffffffffffffffffffffffffffffffffffffffff1673ffffffffffffffffffffffffffffffffffffffff1681526020019081526020016000206000828254610b869190611256565b925050819055508273ffffffffffffffffffffffffffffffffffffffff168473ffffffffffffffffffffffffffffffffffffffff167fddf252ad1be2c89b69c2b068fc378daa952ba7f163c4a11628f55a4df523b3ef84604051610bea919061108a565b60405180910390a3610bfd848484610eac565b50505050565b610c0b610723565b73ffffffffffffffffffffffffffffffffffffffff16610c296104c2565b73ffffffffffffffffffffffffffffffffffffffff1614610c7f576040517f08c379a0000000000000000000000000000000000000000000000000000000008152600401610c7690611762565b60405180910390fd5b565b600073ffffffffffffffffffffffffffffffffffffffff168273ffffffffffffffffffffffffffffffffffffffff161415610cf1576040517f08c379a0000000000000000000000000000000000000000000000000000000008152600401610ce8906117ce565b60405180910390fd5b610cfd60008383610ea7565b8060026000828254610d0f9190611256565b92505081905550806000808473ffffffffffffffffffffffffffffffffffffffff1673ffffffffffffffffffffffffffffffffffffffff1681526020019081526020016000206000828254610d649190611256565b925050819055508173ffffffffffffffffffffffffffffffffffffffff16600073ffffffffffffffffffffffffffffffffffffffff167fddf252ad1be2c89b69c2b068fc378daa952ba7f163c4a11628f55a4df523b3ef83604051610dc9919061108a565b60405180910390a3610ddd60008383610eac565b5050565b6000600560009054906101000a900473ffffffffffffffffffffffffffffffffffffffff16905081600560006101000a81548173ffffffffffffffffffffffffffffffffffffffff021916908373ffffffffffffffffffffffffffffffffffffffff1602179055508173ffffffffffffffffffffffffffffffffffffffff168173ffffffffffffffffffffffffffffffffffffffff167f8be0079c531659141344cd1fd0a4f28419497f9722a3daafe3b4186f6b6457e060405160405180910390a35050565b505050565b505050565b600081519050919050565b600082825260208201905092915050565b60005b83811015610eeb578082015181840152602081019050610ed0565b83811115610efa576000848401525b50505050565b6000601f19601f8301169050919050565b6000610f1c82610eb1565b610f268185610ebc565b9350610f36818560208601610ecd565b610f3f81610f00565b840191505092915050565b60006020820190508181036000830152610f648184610f11565b905092915050565b600080fd5b600073ffffffffffffffffffffffffffffffffffffffff82169050919050565b6000610f9c82610f71565b9050919050565b610fac81610f91565b8114610fb757600080fd5b50565b600081359050610fc981610fa3565b92915050565b6000819050919050565b610fe281610fcf565b8114610fed57600080fd5b50565b600081359050610fff81610fd9565b92915050565b6000806040838503121561101c5761101b610f6c565b5b600061102a85828601610fba565b925050602061103b85828601610ff0565b9150509250929050565b60008115159050919050565b61105a81611045565b82525050565b60006020820190506110756000830184611051565b92915050565b61108481610fcf565b82525050565b600060208201905061109f600083018461107b565b92915050565b6000806000606084860312156110be576110bd610f6c565b5b60006110cc86828701610fba565b93505060206110dd86828701610fba565b92505060406110ee86828701610ff0565b9150509250925092565b600060ff82169050919050565b61110e816110f8565b82525050565b60006020820190506111296000830184611105565b92915050565b60006020828403121561114557611144610f6c565b5b600061115384828501610fba565b91505092915050565b61116581610f91565b82525050565b6000602082019050611180600083018461115c565b92915050565b6000806040838503121561119d5761119c610f6c565b5b60006111ab85828601610fba565b92505060206111bc85828601610fba565b9150509250929050565b7f4e487b7100000000000000000000000000000000000000000000000000000000600052602260045260246000fd5b6000600282049050600182168061120d57607f821691505b60208210811415611221576112206111c6565b5b50919050565b7f4e487b7100000000000000000000000000000000000000000000000000000000600052601160045260246000fd5b600061126182610fcf565b915061126c83610fcf565b9250827fffffffffffffffffffffffffffffffffffffffffffffffffffffffffffffffff038211156112a1576112a0611227565b5b828201905092915050565b7f45524332303a2064656372656173656420616c6c6f77616e63652062656c6f7760008201527f207a65726f000000000000000000000000000000000000000000000000000000602082015250565b6000611308602583610ebc565b9150611313826112ac565b604082019050919050565b60006020820190508181036000830152611337816112fb565b9050919050565b7f4f776e61626c653a206e6577206f776e657220697320746865207a65726f206160008201527f6464726573730000000000000000000000000000000000000000000000000000602082015250565b600061139a602683610ebc565b91506113a58261133e565b604082019050919050565b600060208201905081810360008301526113c98161138d565b9050919050565b7f45524332303a20617070726f76652066726f6d20746865207a65726f2061646460008201527f7265737300000000000000000000000000000000000000000000000000000000602082015250565b600061142c602483610ebc565b9150611437826113d0565b604082019050919050565b6000602082019050818103600083015261145b8161141f565b9050919050565b7f45524332303a20617070726f766520746f20746865207a65726f20616464726560008201527f7373000000000000000000000000000000000000000000000000000000000000602082015250565b60006114be602283610ebc565b91506114c982611462565b604082019050919050565b600060208201905081810360008301526114ed816114b1565b9050919050565b7f45524332303a20696e73756666696369656e7420616c6c6f77616e6365000000600082015250565b600061152a601d83610ebc565b9150611535826114f4565b602082019050919050565b600060208201905081810360008301526115598161151d565b9050919050565b7f45524332303a207472616e736665722066726f6d20746865207a65726f20616460008201527f6472657373000000000000000000000000000000000000000000000000000000602082015250565b60006115bc602583610ebc565b91506115c782611560565b604082019050919050565b600060208201905081810360008301526115eb816115af565b9050919050565b7f45524332303a207472616e7366657220746f20746865207a65726f206164647260008201527f6573730000000000000000000000000000000000000000000000000000000000602082015250565b600061164e602383610ebc565b9150611659826115f2565b604082019050919050565b6000602082019050818103600083015261167d81611641565b9050919050565b7f45524332303a207472616e7366657220616d6f756e742065786365656473206260008201527f616c616e63650000000000000000000000000000000000000000000000000000602082015250565b60006116e0602683610ebc565b91506116eb82611684565b604082019050919050565b6000602082019050818103600083015261170f816116d3565b9050919050565b7f4f776e61626c653a2063616c6c6572206973206e6f7420746865206f776e6572600082015250565b600061174c602083610ebc565b915061175782611716565b602082019050919050565b6000602082019050818103600083015261177b8161173f565b9050919050565b7f45524332303a206d696e7420746f20746865207a65726f206164647265737300600082015250565b60006117b8601f83610ebc565b91506117c382611782565b602082019050919050565b600060208201905081810360008301526117e7816117ab565b905091905056fea26469706673582212200eeaa7dc7a7deba9a7de25fd00f8ef67fe6969fcdb9a9cfb98a0349487e10a1c64736f6c63430008090033a2646970667358221220c9cec53846bdeb9e7d381ab658213d39daacd5d0bd83422f6abf790893550e9064736f6c63430008090033",
    "linkReferences": {},
    "deployedLinkReferences": {}
}