{
  "_format": "hh-sol-artifact-1",
  "contractName": "FundsManager",
  "sourceName": "contracts/FundsManager.sol",
  "abi": [
    {
      "inputs": [
        {
          "internalType": "string",
          "name": "_poolId",
          "type": "string"
        }
      ],
      "name": "contributeFunds",
      "outputs": [],
      "stateMutability": "payable",
      "type": "function"
    },
    {
      "inputs": [
        {
          "internalType": "string",
          "name": "_poolId",
          "type": "string"
        },
        {
          "internalType": "string",
          "name": "_poolName",
          "type": "string"
        },
        {
          "internalType": "uint256",
          "name": "_poolSize",
          "type": "uint256"
        },
        {
          "internalType": "address[]",
          "name": "_owners",
          "type": "address[]"
        },
        {
          "internalType": "uint256",
          "name": "_fundsGoal",
          "type": "uint256"
        }
      ],
      "name": "createPool",
      "outputs": [],
      "stateMutability": "nonpayable",
      "type": "function"
    },
    {
      "inputs": [
        {
          "internalType": "string",
          "name": "_poolId",
          "type": "string"
        }
      ],
      "name": "getPoolOwners",
      "outputs": [
        {
          "internalType": "address[]",
          "name": "",
          "type": "address[]"
        }
      ],
      "stateMutability": "view",
      "type": "function"
    },
    {
      "inputs": [],
      "name": "getUserPools",
      "outputs": [
        {
          "internalType": "string[]",
          "name": "",
          "type": "string[]"
        }
      ],
      "stateMutability": "view",
      "type": "function"
    },
    {
      "inputs": [
        {
          "internalType": "string",
          "name": "_poolId",
          "type": "string"
        },
        {
          "internalType": "bool",
          "name": "_isAgree",
          "type": "bool"
        }
      ],
      "name": "makeConsensus",
      "outputs": [],
      "stateMutability": "nonpayable",
      "type": "function"
    },
    {
      "inputs": [
        {
          "internalType": "address",
          "name": "",
          "type": "address"
        },
        {
          "internalType": "uint256",
          "name": "",
          "type": "uint256"
        }
      ],
      "name": "poolOwners",
      "outputs": [
        {
          "internalType": "string",
          "name": "",
          "type": "string"
        }
      ],
      "stateMutability": "view",
      "type": "function"
    },
    {
      "inputs": [
        {
          "internalType": "string",
          "name": "",
          "type": "string"
        }
      ],
      "name": "pools",
      "outputs": [
        {
          "internalType": "uint256",
          "name": "funds",
          "type": "uint256"
        },
        {
          "internalType": "string",
          "name": "poolName",
          "type": "string"
        },
        {
          "internalType": "uint256",
          "name": "poolSize",
          "type": "uint256"
        },
        {
          "internalType": "uint256",
          "name": "fundGoal",
          "type": "uint256"
        },
        {
          "internalType": "uint256",
          "name": "positiveCount",
          "type": "uint256"
        },
        {
          "internalType": "uint256",
          "name": "negativeCount",
          "type": "uint256"
        },
        {
          "internalType": "contract OwnerShipTokens",
          "name": "ownerShipTokenAddress",
          "type": "address"
        },
        {
          "internalType": "string",
          "name": "poolId",
          "type": "string"
        }
      ],
      "stateMutability": "view",
      "type": "function"
    }
  ],
  "bytecode": "0x608060405273ffe9330a68e7f43b8146ac235ee3c809a5298b436000806101000a81548173ffffffffffffffffffffffffffffffffffffffff021916908373ffffffffffffffffffffffffffffffffffffffff16021790555034801561006457600080fd5b506134a9806100746000396000f3fe6080604052600436106200007a5760003560e01c80634ce6a99d11620000555780634ce6a99d14620000fd5780636a05e5fe14620001415780639d6f17a81462000185578063dab07f4314620001d0576200007a565b806326f1024f146200007f5780632a640a8114620000af5780632fe839dd14620000dd575b600080fd5b3480156200008c57600080fd5b5062000097620001fe565b604051620000a6919062000d96565b60405180910390f35b348015620000bc57600080fd5b50620000db6004803603810190620000d591906200109a565b6200031e565b005b620000fb6004803603810190620000f591906200117f565b62000566565b005b3480156200010a57600080fd5b506200012960048036038101906200012391906200117f565b620005a5565b6040516200013891906200129e565b60405180910390f35b3480156200014e57600080fd5b506200016d6004803603810190620001679190620012c2565b62000658565b6040516200017c91906200135b565b60405180910390f35b3480156200019257600080fd5b50620001b16004803603810190620001ab91906200117f565b6200071a565b604051620001c7989796959493929190620013fb565b60405180910390f35b348015620001dd57600080fd5b50620001fc6004803603810190620001f69190620014d4565b620008b8565b005b6060600460003373ffffffffffffffffffffffffffffffffffffffff1673ffffffffffffffffffffffffffffffffffffffff168152602001908152602001600020805480602002602001604051908101604052809291908181526020016000905b8282101562000315578382906000526020600020018054620002819062001569565b80601f0160208091040260200160405190810160405280929190818152602001828054620002af9062001569565b8015620003005780601f10620002d45761010080835404028352916020019162000300565b820191906000526020600020905b815481529060010190602001808311620002e257829003601f168201915b5050505050815260200190600101906200025f565b50505050905090565b83600386604051620003319190620015e1565b908152602001604051809103902060020190805190602001906200035792919062000b64565b50826003866040516200036b9190620015e1565b90815260200160405180910390206003018190555060005b8381101562000443576003866040516200039e9190620015e1565b9081526020016040518091039020600001838281518110620003c557620003c4620015fa565b5b60200260200101519080600181540180825580915050600190039060005260206000200160009091909190916101000a81548173ffffffffffffffffffffffffffffffffffffffff021916908373ffffffffffffffffffffffffffffffffffffffff16021790555080806200043a9062001658565b91505062000383565b5080600386604051620004579190620015e1565b908152602001604051809103902060040181905550600460003373ffffffffffffffffffffffffffffffffffffffff1673ffffffffffffffffffffffffffffffffffffffff16815260200190815260200160002085908060018154018082558091505060019003906000526020600020016000909190919091509080519060200190620004e692919062000b64565b506005859080600181540180825580915050600190039060005260206000200160009091909190915090805190602001906200052492919062000b64565b5084600386604051620005389190620015e1565b908152602001604051809103902060080190805190602001906200055e92919062000b64565b505050505050565b34600382604051620005799190620015e1565b908152602001604051809103902060010160008282546200059b9190620016a6565b9250508190555050565b6060600382604051620005b99190620015e1565b90815260200160405180910390206000018054806020026020016040519081016040528092919081815260200182805480156200064c57602002820191906000526020600020905b8160009054906101000a900473ffffffffffffffffffffffffffffffffffffffff1673ffffffffffffffffffffffffffffffffffffffff168152602001906001019080831162000601575b50505050509050919050565b600460205281600052604060002081815481106200067557600080fd5b90600052602060002001600091509150508054620006939062001569565b80601f0160208091040260200160405190810160405280929190818152602001828054620006c19062001569565b8015620007125780601f10620006e65761010080835404028352916020019162000712565b820191906000526020600020905b815481529060010190602001808311620006f457829003601f168201915b505050505081565b6003818051602081018201805184825260208301602085012081835280955050505050506000915090508060010154908060020180546200075b9062001569565b80601f0160208091040260200160405190810160405280929190818152602001828054620007899062001569565b8015620007da5780601f10620007ae57610100808354040283529160200191620007da565b820191906000526020600020905b815481529060010190602001808311620007bc57829003601f168201915b5050505050908060030154908060040154908060050154908060060154908060070160009054906101000a900473ffffffffffffffffffffffffffffffffffffffff16908060080180546200082f9062001569565b80601f01602080910402602001604051908101604052809291908181526020018280546200085d9062001569565b8015620008ae5780601f106200088257610100808354040283529160200191620008ae565b820191906000526020600020905b8154815290600101906020018083116200089057829003601f168201915b5050505050905088565b80156200096957600382604051620008d19190620015e1565b90815260200160405180910390206005016000815480929190620008f59062001658565b919050555060026003836040516200090e9190620015e1565b9081526020016040518091039020600301546200092c919062001732565b6003836040516200093e9190620015e1565b908152602001604051809103902060050154111562000963576200096282620009a9565b5b620009a5565b6003826040516200097b9190620015e1565b908152602001604051809103902060060160008154809291906200099f9062001658565b91905055505b5050565b60005b600382604051620009be9190620015e1565b90815260200160405180910390206000018054905081101562000b6057606082600081518110620009f457620009f3620015fa565b5b602001015160f81c60f81b8160008151811062000a165762000a15620015fa565b5b60200101907effffffffffffffffffffffffffffffffffffffffffffffffffffffffffffff1916908160001a9053508260018151811062000a5c5762000a5b620015fa565b5b602001015160f81c60f81b8160018151811062000a7e5762000a7d620015fa565b5b60200101907effffffffffffffffffffffffffffffffffffffffffffffffffffffffffffff1916908160001a905350828160405162000abd9062000bf5565b62000aca9291906200176a565b604051809103906000f08015801562000ae7573d6000803e3d6000fd5b5060038460405162000afa9190620015e1565b908152602001604051809103902060070160006101000a81548173ffffffffffffffffffffffffffffffffffffffff021916908373ffffffffffffffffffffffffffffffffffffffff16021790555050808062000b579062001658565b915050620009ac565b5050565b82805462000b729062001569565b90600052602060002090601f01602090048101928262000b96576000855562000be2565b82601f1062000bb157805160ff191683800117855562000be2565b8280016001018555821562000be2579182015b8281111562000be157825182559160200191906001019062000bc4565b5b50905062000bf1919062000c03565b5090565b611cce80620017a683390190565b5b8082111562000c1e57600081600090555060010162000c04565b5090565b600081519050919050565b600082825260208201905092915050565b6000819050602082019050919050565b600081519050919050565b600082825260208201905092915050565b60005b8381101562000c8a57808201518184015260208101905062000c6d565b8381111562000c9a576000848401525b50505050565b6000601f19601f8301169050919050565b600062000cbe8262000c4e565b62000cca818562000c59565b935062000cdc81856020860162000c6a565b62000ce78162000ca0565b840191505092915050565b600062000d00838362000cb1565b905092915050565b6000602082019050919050565b600062000d228262000c22565b62000d2e818562000c2d565b93508360208202850162000d428562000c3e565b8060005b8581101562000d84578484038952815162000d62858262000cf2565b945062000d6f8362000d08565b925060208a0199505060018101905062000d46565b50829750879550505050505092915050565b6000602082019050818103600083015262000db2818462000d15565b905092915050565b6000604051905090565b600080fd5b600080fd5b600080fd5b600080fd5b7f4e487b7100000000000000000000000000000000000000000000000000000000600052604160045260246000fd5b62000e128262000ca0565b810181811067ffffffffffffffff8211171562000e345762000e3362000dd8565b5b80604052505050565b600062000e4962000dba565b905062000e57828262000e07565b919050565b600067ffffffffffffffff82111562000e7a5762000e7962000dd8565b5b62000e858262000ca0565b9050602081019050919050565b82818337600083830152505050565b600062000eb862000eb28462000e5c565b62000e3d565b90508281526020810184848401111562000ed75762000ed662000dd3565b5b62000ee484828562000e92565b509392505050565b600082601f83011262000f045762000f0362000dce565b5b813562000f1684826020860162000ea1565b91505092915050565b6000819050919050565b62000f348162000f1f565b811462000f4057600080fd5b50565b60008135905062000f548162000f29565b92915050565b600067ffffffffffffffff82111562000f785762000f7762000dd8565b5b602082029050602081019050919050565b600080fd5b600073ffffffffffffffffffffffffffffffffffffffff82169050919050565b600062000fbb8262000f8e565b9050919050565b62000fcd8162000fae565b811462000fd957600080fd5b50565b60008135905062000fed8162000fc2565b92915050565b60006200100a620010048462000f5a565b62000e3d565b9050808382526020820190506020840283018581111562001030576200102f62000f89565b5b835b818110156200105d578062001048888262000fdc565b84526020840193505060208101905062001032565b5050509392505050565b600082601f8301126200107f576200107e62000dce565b5b81356200109184826020860162000ff3565b91505092915050565b600080600080600060a08688031215620010b957620010b862000dc4565b5b600086013567ffffffffffffffff811115620010da57620010d962000dc9565b5b620010e88882890162000eec565b955050602086013567ffffffffffffffff8111156200110c576200110b62000dc9565b5b6200111a8882890162000eec565b94505060406200112d8882890162000f43565b935050606086013567ffffffffffffffff81111562001151576200115062000dc9565b5b6200115f8882890162001067565b9250506080620011728882890162000f43565b9150509295509295909350565b60006020828403121562001198576200119762000dc4565b5b600082013567ffffffffffffffff811115620011b957620011b862000dc9565b5b620011c78482850162000eec565b91505092915050565b600081519050919050565b600082825260208201905092915050565b6000819050602082019050919050565b620012078162000fae565b82525050565b60006200121b8383620011fc565b60208301905092915050565b6000602082019050919050565b60006200124182620011d0565b6200124d8185620011db565b93506200125a83620011ec565b8060005b83811015620012915781516200127588826200120d565b9750620012828362001227565b9250506001810190506200125e565b5085935050505092915050565b60006020820190508181036000830152620012ba818462001234565b905092915050565b60008060408385031215620012dc57620012db62000dc4565b5b6000620012ec8582860162000fdc565b9250506020620012ff8582860162000f43565b9150509250929050565b600082825260208201905092915050565b6000620013278262000c4e565b62001333818562001309565b93506200134581856020860162000c6a565b620013508162000ca0565b840191505092915050565b600060208201905081810360008301526200137781846200131a565b905092915050565b6200138a8162000f1f565b82525050565b6000819050919050565b6000620013bb620013b5620013af8462000f8e565b62001390565b62000f8e565b9050919050565b6000620013cf826200139a565b9050919050565b6000620013e382620013c2565b9050919050565b620013f581620013d6565b82525050565b60006101008201905062001413600083018b6200137f565b818103602083015262001427818a6200131a565b90506200143860408301896200137f565b6200144760608301886200137f565b6200145660808301876200137f565b6200146560a08301866200137f565b6200147460c0830185620013ea565b81810360e08301526200148881846200131a565b90509998505050505050505050565b60008115159050919050565b620014ae8162001497565b8114620014ba57600080fd5b50565b600081359050620014ce81620014a3565b92915050565b60008060408385031215620014ee57620014ed62000dc4565b5b600083013567ffffffffffffffff8111156200150f576200150e62000dc9565b5b6200151d8582860162000eec565b92505060206200153085828601620014bd565b9150509250929050565b7f4e487b7100000000000000000000000000000000000000000000000000000000600052602260045260246000fd5b600060028204905060018216806200158257607f821691505b602082108114156200159957620015986200153a565b5b50919050565b600081905092915050565b6000620015b78262000c4e565b620015c381856200159f565b9350620015d581856020860162000c6a565b80840191505092915050565b6000620015ef8284620015aa565b915081905092915050565b7f4e487b7100000000000000000000000000000000000000000000000000000000600052603260045260246000fd5b7f4e487b7100000000000000000000000000000000000000000000000000000000600052601160045260246000fd5b6000620016658262000f1f565b91507fffffffffffffffffffffffffffffffffffffffffffffffffffffffffffffffff8214156200169b576200169a62001629565b5b600182019050919050565b6000620016b38262000f1f565b9150620016c08362000f1f565b9250827fffffffffffffffffffffffffffffffffffffffffffffffffffffffffffffffff03821115620016f857620016f762001629565b5b828201905092915050565b7f4e487b7100000000000000000000000000000000000000000000000000000000600052601260045260246000fd5b60006200173f8262000f1f565b91506200174c8362000f1f565b9250826200175f576200175e62001703565b5b828204905092915050565b600060408201905081810360008301526200178681856200131a565b905081810360208301526200179c81846200131a565b9050939250505056fe60806040523480156200001157600080fd5b5060405162001cce38038062001cce8339818101604052810190620000379190620003b0565b818181600390805190602001906200005192919062000163565b5080600490805190602001906200006a92919062000163565b5050506200008d620000816200009560201b60201c565b6200009d60201b60201c565b50506200049a565b600033905090565b6000600560009054906101000a900473ffffffffffffffffffffffffffffffffffffffff16905081600560006101000a81548173ffffffffffffffffffffffffffffffffffffffff021916908373ffffffffffffffffffffffffffffffffffffffff1602179055508173ffffffffffffffffffffffffffffffffffffffff168173ffffffffffffffffffffffffffffffffffffffff167f8be0079c531659141344cd1fd0a4f28419497f9722a3daafe3b4186f6b6457e060405160405180910390a35050565b828054620001719062000464565b90600052602060002090601f016020900481019282620001955760008555620001e1565b82601f10620001b057805160ff1916838001178555620001e1565b82800160010185558215620001e1579182015b82811115620001e0578251825591602001919060010190620001c3565b5b509050620001f09190620001f4565b5090565b5b808211156200020f576000816000905550600101620001f5565b5090565b6000604051905090565b600080fd5b600080fd5b600080fd5b600080fd5b6000601f19601f8301169050919050565b7f4e487b7100000000000000000000000000000000000000000000000000000000600052604160045260246000fd5b6200027c8262000231565b810181811067ffffffffffffffff821117156200029e576200029d62000242565b5b80604052505050565b6000620002b362000213565b9050620002c1828262000271565b919050565b600067ffffffffffffffff821115620002e457620002e362000242565b5b620002ef8262000231565b9050602081019050919050565b60005b838110156200031c578082015181840152602081019050620002ff565b838111156200032c576000848401525b50505050565b6000620003496200034384620002c6565b620002a7565b9050828152602081018484840111156200036857620003676200022c565b5b62000375848285620002fc565b509392505050565b600082601f83011262000395576200039462000227565b5b8151620003a784826020860162000332565b91505092915050565b60008060408385031215620003ca57620003c96200021d565b5b600083015167ffffffffffffffff811115620003eb57620003ea62000222565b5b620003f9858286016200037d565b925050602083015167ffffffffffffffff8111156200041d576200041c62000222565b5b6200042b858286016200037d565b9150509250929050565b7f4e487b7100000000000000000000000000000000000000000000000000000000600052602260045260246000fd5b600060028204905060018216806200047d57607f821691505b6020821081141562000494576200049362000435565b5b50919050565b61182480620004aa6000396000f3fe608060405234801561001057600080fd5b50600436106100f55760003560e01c806370a0823111610097578063a457c2d711610066578063a457c2d714610276578063a9059cbb146102a6578063dd62ed3e146102d6578063f2fde38b14610306576100f5565b806370a0823114610200578063715018a6146102305780638da5cb5b1461023a57806395d89b4114610258576100f5565b806323b872dd116100d357806323b872dd14610166578063313ce5671461019657806339509351146101b457806340c10f19146101e4576100f5565b806306fdde03146100fa578063095ea7b31461011857806318160ddd14610148575b600080fd5b610102610322565b60405161010f9190610f4a565b60405180910390f35b610132600480360381019061012d9190611005565b6103b4565b60405161013f9190611060565b60405180910390f35b6101506103d7565b60405161015d919061108a565b60405180910390f35b610180600480360381019061017b91906110a5565b6103e1565b60405161018d9190611060565b60405180910390f35b61019e610410565b6040516101ab9190611114565b60405180910390f35b6101ce60048036038101906101c99190611005565b610419565b6040516101db9190611060565b60405180910390f35b6101fe60048036038101906101f99190611005565b610450565b005b61021a6004803603810190610215919061112f565b610466565b604051610227919061108a565b60405180910390f35b6102386104ae565b005b6102426104c2565b60405161024f919061116b565b60405180910390f35b6102606104ec565b60405161026d9190610f4a565b60405180910390f35b610290600480360381019061028b9190611005565b61057e565b60405161029d9190611060565b60405180910390f35b6102c060048036038101906102bb9190611005565b6105f5565b6040516102cd9190611060565b60405180910390f35b6102f060048036038101906102eb9190611186565b610618565b6040516102fd919061108a565b60405180910390f35b610320600480360381019061031b919061112f565b61069f565b005b606060038054610331906111f5565b80601f016020809104026020016040519081016040528092919081815260200182805461035d906111f5565b80156103aa5780601f1061037f576101008083540402835291602001916103aa565b820191906000526020600020905b81548152906001019060200180831161038d57829003601f168201915b5050505050905090565b6000806103bf610723565b90506103cc81858561072b565b600191505092915050565b6000600254905090565b6000806103ec610723565b90506103f98582856108f6565b610404858585610982565b60019150509392505050565b60006012905090565b600080610424610723565b90506104458185856104368589610618565b6104409190611256565b61072b565b600191505092915050565b610458610c03565b6104628282610c81565b5050565b60008060008373ffffffffffffffffffffffffffffffffffffffff1673ffffffffffffffffffffffffffffffffffffffff168152602001908152602001600020549050919050565b6104b6610c03565b6104c06000610de1565b565b6000600560009054906101000a900473ffffffffffffffffffffffffffffffffffffffff16905090565b6060600480546104fb906111f5565b80601f0160208091040260200160405190810160405280929190818152602001828054610527906111f5565b80156105745780601f1061054957610100808354040283529160200191610574565b820191906000526020600020905b81548152906001019060200180831161055757829003601f168201915b5050505050905090565b600080610589610723565b905060006105978286610618565b9050838110156105dc576040517f08c379a00000000000000000000000000000000000000000000000000000000081526004016105d39061131e565b60405180910390fd5b6105e9828686840361072b565b60019250505092915050565b600080610600610723565b905061060d818585610982565b600191505092915050565b6000600160008473ffffffffffffffffffffffffffffffffffffffff1673ffffffffffffffffffffffffffffffffffffffff16815260200190815260200160002060008373ffffffffffffffffffffffffffffffffffffffff1673ffffffffffffffffffffffffffffffffffffffff16815260200190815260200160002054905092915050565b6106a7610c03565b600073ffffffffffffffffffffffffffffffffffffffff168173ffffffffffffffffffffffffffffffffffffffff161415610717576040517f08c379a000000000000000000000000000000000000000000000000000000000815260040161070e906113b0565b60405180910390fd5b61072081610de1565b50565b600033905090565b600073ffffffffffffffffffffffffffffffffffffffff168373ffffffffffffffffffffffffffffffffffffffff16141561079b576040517f08c379a000000000000000000000000000000000000000000000000000000000815260040161079290611442565b60405180910390fd5b600073ffffffffffffffffffffffffffffffffffffffff168273ffffffffffffffffffffffffffffffffffffffff16141561080b576040517f08c379a0000000000000000000000000000000000000000000000000000000008152600401610802906114d4565b60405180910390fd5b80600160008573ffffffffffffffffffffffffffffffffffffffff1673ffffffffffffffffffffffffffffffffffffffff16815260200190815260200160002060008473ffffffffffffffffffffffffffffffffffffffff1673ffffffffffffffffffffffffffffffffffffffff168152602001908152602001600020819055508173ffffffffffffffffffffffffffffffffffffffff168373ffffffffffffffffffffffffffffffffffffffff167f8c5be1e5ebec7d5bd14f71427d1e84f3dd0314c0f7b2291e5b200ac8c7c3b925836040516108e9919061108a565b60405180910390a3505050565b60006109028484610618565b90507fffffffffffffffffffffffffffffffffffffffffffffffffffffffffffffffff811461097c578181101561096e576040517f08c379a000000000000000000000000000000000000000000000000000000000815260040161096590611540565b60405180910390fd5b61097b848484840361072b565b5b50505050565b600073ffffffffffffffffffffffffffffffffffffffff168373ffffffffffffffffffffffffffffffffffffffff1614156109f2576040517f08c379a00000000000000000000000000000000000000000000000000000000081526004016109e9906115d2565b60405180910390fd5b600073ffffffffffffffffffffffffffffffffffffffff168273ffffffffffffffffffffffffffffffffffffffff161415610a62576040517f08c379a0000000000000000000000000000000000000000000000000000000008152600401610a5990611664565b60405180910390fd5b610a6d838383610ea7565b60008060008573ffffffffffffffffffffffffffffffffffffffff1673ffffffffffffffffffffffffffffffffffffffff16815260200190815260200160002054905081811015610af3576040517f08c379a0000000000000000000000000000000000000000000000000000000008152600401610aea906116f6565b60405180910390fd5b8181036000808673ffffffffffffffffffffffffffffffffffffffff1673ffffffffffffffffffffffffffffffffffffffff16815260200190815260200160002081905550816000808573ffffffffffffffffffffffffffffffffffffffff1673ffffffffffffffffffffffffffffffffffffffff1681526020019081526020016000206000828254610b869190611256565b925050819055508273ffffffffffffffffffffffffffffffffffffffff168473ffffffffffffffffffffffffffffffffffffffff167fddf252ad1be2c89b69c2b068fc378daa952ba7f163c4a11628f55a4df523b3ef84604051610bea919061108a565b60405180910390a3610bfd848484610eac565b50505050565b610c0b610723565b73ffffffffffffffffffffffffffffffffffffffff16610c296104c2565b73ffffffffffffffffffffffffffffffffffffffff1614610c7f576040517f08c379a0000000000000000000000000000000000000000000000000000000008152600401610c7690611762565b60405180910390fd5b565b600073ffffffffffffffffffffffffffffffffffffffff168273ffffffffffffffffffffffffffffffffffffffff161415610cf1576040517f08c379a0000000000000000000000000000000000000000000000000000000008152600401610ce8906117ce565b60405180910390fd5b610cfd60008383610ea7565b8060026000828254610d0f9190611256565b92505081905550806000808473ffffffffffffffffffffffffffffffffffffffff1673ffffffffffffffffffffffffffffffffffffffff1681526020019081526020016000206000828254610d649190611256565b925050819055508173ffffffffffffffffffffffffffffffffffffffff16600073ffffffffffffffffffffffffffffffffffffffff167fddf252ad1be2c89b69c2b068fc378daa952ba7f163c4a11628f55a4df523b3ef83604051610dc9919061108a565b60405180910390a3610ddd60008383610eac565b5050565b6000600560009054906101000a900473ffffffffffffffffffffffffffffffffffffffff16905081600560006101000a81548173ffffffffffffffffffffffffffffffffffffffff021916908373ffffffffffffffffffffffffffffffffffffffff1602179055508173ffffffffffffffffffffffffffffffffffffffff168173ffffffffffffffffffffffffffffffffffffffff167f8be0079c531659141344cd1fd0a4f28419497f9722a3daafe3b4186f6b6457e060405160405180910390a35050565b505050565b505050565b600081519050919050565b600082825260208201905092915050565b60005b83811015610eeb578082015181840152602081019050610ed0565b83811115610efa576000848401525b50505050565b6000601f19601f8301169050919050565b6000610f1c82610eb1565b610f268185610ebc565b9350610f36818560208601610ecd565b610f3f81610f00565b840191505092915050565b60006020820190508181036000830152610f648184610f11565b905092915050565b600080fd5b600073ffffffffffffffffffffffffffffffffffffffff82169050919050565b6000610f9c82610f71565b9050919050565b610fac81610f91565b8114610fb757600080fd5b50565b600081359050610fc981610fa3565b92915050565b6000819050919050565b610fe281610fcf565b8114610fed57600080fd5b50565b600081359050610fff81610fd9565b92915050565b6000806040838503121561101c5761101b610f6c565b5b600061102a85828601610fba565b925050602061103b85828601610ff0565b9150509250929050565b60008115159050919050565b61105a81611045565b82525050565b60006020820190506110756000830184611051565b92915050565b61108481610fcf565b82525050565b600060208201905061109f600083018461107b565b92915050565b6000806000606084860312156110be576110bd610f6c565b5b60006110cc86828701610fba565b93505060206110dd86828701610fba565b92505060406110ee86828701610ff0565b9150509250925092565b600060ff82169050919050565b61110e816110f8565b82525050565b60006020820190506111296000830184611105565b92915050565b60006020828403121561114557611144610f6c565b5b600061115384828501610fba565b91505092915050565b61116581610f91565b82525050565b6000602082019050611180600083018461115c565b92915050565b6000806040838503121561119d5761119c610f6c565b5b60006111ab85828601610fba565b92505060206111bc85828601610fba565b9150509250929050565b7f4e487b7100000000000000000000000000000000000000000000000000000000600052602260045260246000fd5b6000600282049050600182168061120d57607f821691505b60208210811415611221576112206111c6565b5b50919050565b7f4e487b7100000000000000000000000000000000000000000000000000000000600052601160045260246000fd5b600061126182610fcf565b915061126c83610fcf565b9250827fffffffffffffffffffffffffffffffffffffffffffffffffffffffffffffffff038211156112a1576112a0611227565b5b828201905092915050565b7f45524332303a2064656372656173656420616c6c6f77616e63652062656c6f7760008201527f207a65726f000000000000000000000000000000000000000000000000000000602082015250565b6000611308602583610ebc565b9150611313826112ac565b604082019050919050565b60006020820190508181036000830152611337816112fb565b9050919050565b7f4f776e61626c653a206e6577206f776e657220697320746865207a65726f206160008201527f6464726573730000000000000000000000000000000000000000000000000000602082015250565b600061139a602683610ebc565b91506113a58261133e565b604082019050919050565b600060208201905081810360008301526113c98161138d565b9050919050565b7f45524332303a20617070726f76652066726f6d20746865207a65726f2061646460008201527f7265737300000000000000000000000000000000000000000000000000000000602082015250565b600061142c602483610ebc565b9150611437826113d0565b604082019050919050565b6000602082019050818103600083015261145b8161141f565b9050919050565b7f45524332303a20617070726f766520746f20746865207a65726f20616464726560008201527f7373000000000000000000000000000000000000000000000000000000000000602082015250565b60006114be602283610ebc565b91506114c982611462565b604082019050919050565b600060208201905081810360008301526114ed816114b1565b9050919050565b7f45524332303a20696e73756666696369656e7420616c6c6f77616e6365000000600082015250565b600061152a601d83610ebc565b9150611535826114f4565b602082019050919050565b600060208201905081810360008301526115598161151d565b9050919050565b7f45524332303a207472616e736665722066726f6d20746865207a65726f20616460008201527f6472657373000000000000000000000000000000000000000000000000000000602082015250565b60006115bc602583610ebc565b91506115c782611560565b604082019050919050565b600060208201905081810360008301526115eb816115af565b9050919050565b7f45524332303a207472616e7366657220746f20746865207a65726f206164647260008201527f6573730000000000000000000000000000000000000000000000000000000000602082015250565b600061164e602383610ebc565b9150611659826115f2565b604082019050919050565b6000602082019050818103600083015261167d81611641565b9050919050565b7f45524332303a207472616e7366657220616d6f756e742065786365656473206260008201527f616c616e63650000000000000000000000000000000000000000000000000000602082015250565b60006116e0602683610ebc565b91506116eb82611684565b604082019050919050565b6000602082019050818103600083015261170f816116d3565b9050919050565b7f4f776e61626c653a2063616c6c6572206973206e6f7420746865206f776e6572600082015250565b600061174c602083610ebc565b915061175782611716565b602082019050919050565b6000602082019050818103600083015261177b8161173f565b9050919050565b7f45524332303a206d696e7420746f20746865207a65726f206164647265737300600082015250565b60006117b8601f83610ebc565b91506117c382611782565b602082019050919050565b600060208201905081810360008301526117e7816117ab565b905091905056fea26469706673582212200eeaa7dc7a7deba9a7de25fd00f8ef67fe6969fcdb9a9cfb98a0349487e10a1c64736f6c63430008090033a2646970667358221220c9910e9d125e28083f334284e1412aaec8315a66df430e02738e87377a66c1d064736f6c63430008090033",
  "linkReferences": {},
  "deployedLinkReferences": {}
}